{
	"data": {
		"bytecode": {
			"linkReferences": {},
			"object": "60e060405234801561000f575f80fd5b50604051613ed4380380613ed483398101604081905261002e9161029f565b848484848484848484838360128484818181818e6001600160a01b03811661006f57604051631e4fbdf760e01b81525f600482015260240160405180910390fd5b61007881610193565b506001600160a01b0380831660805281166100a657604051632d618d8160e21b815260040160405180910390fd5b60805160405163ca5eb5e160e01b81526001600160a01b0383811660048301529091169063ca5eb5e1906024015f604051808303815f87803b1580156100ea575f80fd5b505af11580156100fc573d5f803e3d5ffd5b50505050505050506101126101e260201b60201c565b60ff168360ff161015610138576040516301e9714b60e41b815260040160405180910390fd5b610143600684610348565b61014e90600a61044a565b60a0525060089150610162905083826104e3565b50600961016f82826104e3565b5050506001600160a01b0390941660c0525061059d9b505050505050505050505050565b5f80546001600160a01b038381166001600160a01b0319831681178455604051919092169283917f8be0079c531659141344cd1fd0a4f28419497f9722a3daafe3b4186f6b6457e09190a35050565b600690565b634e487b7160e01b5f52604160045260245ffd5b5f82601f83011261020a575f80fd5b81516001600160401b03811115610223576102236101e7565b604051601f8201601f19908116603f011681016001600160401b0381118282101715610251576102516101e7565b604052818152838201602001851015610268575f80fd5b8160208501602083015e5f918101602001919091529392505050565b80516001600160a01b038116811461029a575f80fd5b919050565b5f805f805f60a086880312156102b3575f80fd5b85516001600160401b038111156102c8575f80fd5b6102d4888289016101fb565b602088015190965090506001600160401b038111156102f1575f80fd5b6102fd888289016101fb565b94505061030c60408701610284565b925061031a60608701610284565b915061032860808701610284565b90509295509295909350565b634e487b7160e01b5f52601160045260245ffd5b60ff828116828216039081111561036157610361610334565b92915050565b6001815b60018411156103a25780850481111561038657610386610334565b600184161561039457908102905b60019390931c92800261036b565b935093915050565b5f826103b857506001610361565b816103c457505f610361565b81600181146103da57600281146103e457610400565b6001915050610361565b60ff8411156103f5576103f5610334565b50506001821b610361565b5060208310610133831016604e8410600b8410161715610423575081810a610361565b61042f5f198484610367565b805f190482111561044257610442610334565b029392505050565b5f61045860ff8416836103aa565b9392505050565b600181811c9082168061047357607f821691505b60208210810361049157634e487b7160e01b5f52602260045260245ffd5b50919050565b601f8211156104de57805f5260205f20601f840160051c810160208510156104bc5750805b601f840160051c820191505b818110156104db575f81556001016104c8565b50505b505050565b81516001600160401b038111156104fc576104fc6101e7565b6105108161050a845461045f565b84610497565b6020601f821160018114610542575f831561052b5750848201515b5f19600385901b1c1916600184901b1784556104db565b5f84815260208120601f198516915b828110156105715787850151825560209485019460019092019101610551565b508482101561058e57868401515f19600387901b60f8161c191681555b50505050600190811b01905550565b60805160a05160c0516138c06106145f395f81816115da015261167301525f81816106d0015281816120830152818161211201526123d601525f818161057a01528181610a58015281816114d5015281816119ff01528181611cff01528181611e150152818161249f015261255601526138c05ff3fe6080604052600436106102a5575f3560e01c806370a082311161016f578063bb0b6a53116100d8578063d424388511610092578063ea598cb01161006d578063ea598cb014610885578063f2fde38b146108a4578063fc0c546a14610503578063ff7bd03d146108c3575f80fd5b8063d424388514610803578063dd62ed3e14610822578063de0e9a3e14610866575f80fd5b8063bb0b6a5314610761578063bc70b3541461078c578063bd815db0146107ab578063c7c7f5b3146107be578063ca5eb5e1146107d1578063d045a0dc146107f0575f80fd5b8063963efcaa11610129578063963efcaa146106bf5780639f68b964146106f2578063a9059cbb14610704578063b731ea0a14610723578063b92d0eff14610503578063b98bd07014610742575f80fd5b806370a08231146105fb578063715018a61461062f5780637d25a05e14610643578063857749b01461067c5780638da5cb5b1461068f57806395d89b41146106ab575f80fd5b8063313ce567116102115780635535d461116101cb5780635535d461146105155780635a0dfe4d146105345780635e280f1114610569578063657a4a251461059c5780636d70e9a8146105bb5780636fc1b31e146105dc575f80fd5b8063313ce567146104595780633400288b1461047a5780633b6f743b14610499578063416fc591146104c5578063442c876d146104e457806352ae287914610503575f80fd5b806314531de81161026257806314531de8146103a3578063156a0d0f146103c257806317442b70146103e857806318160ddd146104085780631f5e13341461042657806323b872dd1461043a575f80fd5b806306fdde03146102a9578063095ea7b3146102d35780630d35b41514610302578063111ecdad1461033057806313137d6514610367578063134d4f251461037c575b5f80fd5b3480156102b4575f80fd5b506102bd6108e2565b6040516102ca91906127c5565b60405180910390f35b3480156102de575f80fd5b506102f26102ed3660046127eb565b610972565b60405190151581526020016102ca565b34801561030d575f80fd5b5061032161031c36600461282b565b61098b565b6040516102ca9392919061285c565b34801561033b575f80fd5b5060045461034f906001600160a01b031681565b6040516001600160a01b0390911681526020016102ca565b61037a61037536600461294b565b610a56565b005b348015610387575f80fd5b50610390600281565b60405161ffff90911681526020016102ca565b3480156103ae575f80fd5b5061037a6103bd3660046129e5565b610b16565b3480156103cd575f80fd5b506040805162b9270b60e21b815260016020820152016102ca565b3480156103f3575f80fd5b506040805160018082526020820152016102ca565b348015610413575f80fd5b506007545b6040519081526020016102ca565b348015610431575f80fd5b50610390600181565b348015610445575f80fd5b506102f2610454366004612a00565b610b91565b348015610464575f80fd5b5060125b60405160ff90911681526020016102ca565b348015610485575f80fd5b5061037a610494366004612a56565b610bb6565b3480156104a4575f80fd5b506104b86104b3366004612a7d565b610c13565b6040516102ca9190612acb565b3480156104d0575f80fd5b5061037a6104df366004612ae2565b610c77565b3480156104ef575f80fd5b50600a5461034f906001600160a01b031681565b34801561050e575f80fd5b503061034f565b348015610520575f80fd5b506102bd61052f366004612b31565b610c94565b34801561053f575f80fd5b506102f261054e366004612a56565b63ffffffff919091165f908152600160205260409020541490565b348015610574575f80fd5b5061034f7f000000000000000000000000000000000000000000000000000000000000000081565b3480156105a7575f80fd5b506104b86105b6366004612b72565b610d36565b6105ce6105c9366004612be1565b610dc1565b6040516102ca929190612c50565b3480156105e7575f80fd5b5061037a6105f63660046129e5565b610edf565b348015610606575f80fd5b506104186106153660046129e5565b6001600160a01b03165f9081526005602052604090205490565b34801561063a575f80fd5b5061037a610f3c565b34801561064e575f80fd5b5061066461065d366004612a56565b5f92915050565b6040516001600160401b0390911681526020016102ca565b348015610687575f80fd5b506006610468565b34801561069a575f80fd5b505f546001600160a01b031661034f565b3480156106b6575f80fd5b506102bd610f4f565b3480156106ca575f80fd5b506104187f000000000000000000000000000000000000000000000000000000000000000081565b3480156106fd575f80fd5b505f6102f2565b34801561070f575f80fd5b506102f261071e3660046127eb565b610f5e565b34801561072e575f80fd5b5060025461034f906001600160a01b031681565b34801561074d575f80fd5b5061037a61075c366004612ce1565b610f6b565b34801561076c575f80fd5b5061041861077b366004612d13565b60016020525f908152604090205481565b348015610797575f80fd5b506102bd6107a6366004612d2c565b6110c7565b61037a6107b9366004612ce1565b61123c565b6105ce6107cc366004612d88565b6113bc565b3480156107dc575f80fd5b5061037a6107eb3660046129e5565b6114ae565b61037a6107fe36600461294b565b61152f565b34801561080e575f80fd5b5061037a61081d3660046129e5565b61155e565b34801561082d575f80fd5b5061041861083c366004612ddb565b6001600160a01b039182165f90815260066020908152604080832093909416825291909152205490565b348015610871575f80fd5b5061037a610880366004612e07565b6115b4565b348015610890575f80fd5b5061037a61089f366004612e07565b611651565b3480156108af575f80fd5b5061037a6108be3660046129e5565b6116aa565b3480156108ce575f80fd5b506102f26108dd366004612e1e565b6116e7565b6060600880546108f190612e38565b80601f016020809104026020016040519081016040528092919081815260200182805461091d90612e38565b80156109685780601f1061093f57610100808354040283529160200191610968565b820191905f5260205f20905b81548152906001019060200180831161094b57829003601f168201915b5050505050905090565b5f3361097f81858561171b565b60019150505b92915050565b604080518082019091525f808252602082015260606109bb60405180604001604052805f81526020015f81525090565b6040805180820182525f8082526001600160401b03602080840182905284518381529081019094529195509182610a14565b604080518082019091525f8152606060208201528152602001906001900390816109ed5790505b5093505f80610a38604089013560608a0135610a3360208c018c612d13565b61172d565b60408051808201909152918252602082015296989597505050505050565b7f00000000000000000000000000000000000000000000000000000000000000006001600160a01b03163314610aa6576040516391ac5e4f60e01b81523360048201526024015b60405180910390fd5b60208701803590610ac090610abb908a612d13565b611770565b14610afe57610ad26020880188612d13565b60405163309afaf360e21b815263ffffffff909116600482015260208801356024820152604401610a9d565b610b0d878787878787876117ab565b50505050505050565b600a546001600160a01b031615610b6f5760405162461bcd60e51b815260206004820152601860248201527f4361707461696e20486f6f6b20616c72656164792073657400000000000000006044820152606401610a9d565b600a80546001600160a01b0319166001600160a01b0392909216919091179055565b5f33610b9e858285611acd565b610ba9858585611b42565b60019150505b9392505050565b610bbe611b9f565b63ffffffff82165f81815260016020908152604091829020849055815192835282018390527f238399d427b947898edb290f5ff0f9109849b1c3ba196a42e35f00c50a54b98b91015b60405180910390a15050565b604080518082019091525f80825260208201525f610c4160408501356060860135610a336020880188612d13565b9150505f80610c508684611bcb565b9092509050610c6d610c656020880188612d13565b838388611cea565b9695505050505050565b333014610c82575f80fd5b610c8e81830183612f30565b50505050565b600360209081525f928352604080842090915290825290208054610cb790612e38565b80601f0160208091040260200160405190810160405280929190818152602001828054610ce390612e38565b8015610d2e5780601f10610d0557610100808354040283529160200191610d2e565b820191905f5260205f20905b815481529060010190602001808311610d1157829003601f168201915b505050505081565b604080518082019091525f80825260208201525f610d6460408601356060870135610a336020890189612d13565b9150505f80610d738784611bcb565b915091505f8683604051602001610d8b92919061302d565b60408051601f198184030181529190529050610db5610dad60208a018a612d13565b828489611cea565b98975050505050505050565b610dc9612754565b604080518082019091525f80825260208201525f80610dfd604089013560608a0135610df860208c018c612d13565b611dc8565b915091505f80610e0d8a84611bcb565b915091505f8783604051602001610e2592919061302d565b60408051601f198184030181529190529050610e5e610e4760208d018d612d13565b8284610e58368f90038f018f6130cd565b8d611de4565b60408051808201909152868152602080820187905282519299509097503391907f85496b760a4b7f8d66384b9df21b381f5d1b1e79f229a47aaf4c232edc2fe59a90610eac908f018f612d13565b6040805163ffffffff9092168252602082018a9052810188905260600160405180910390a3505050505094509492505050565b610ee7611b9f565b600480546001600160a01b0319166001600160a01b0383169081179091556040519081527ff0be4f1e87349231d80c36b33f9e8639658eeaf474014dee15a3e6a4d4414197906020015b60405180910390a150565b610f44611b9f565b610f4d5f611eea565b565b6060600980546108f190612e38565b5f3361097f818585611b42565b610f73611b9f565b5f5b8181101561109557610fb7838383818110610f9257610f926130fe565b9050602002810190610fa49190613112565b610fb2906040810190613130565b611f39565b828282818110610fc957610fc96130fe565b9050602002810190610fdb9190613112565b610fe9906040810190613130565b60035f868686818110610ffe57610ffe6130fe565b90506020028101906110109190613112565b61101e906020810190612d13565b63ffffffff1663ffffffff1681526020019081526020015f205f86868681811061104a5761104a6130fe565b905060200281019061105c9190613112565b61106d906040810190602001613172565b61ffff16815260208101919091526040015f209161108c9190836131cf565b50600101610f75565b507fbe4864a8e820971c0247f5992e2da559595f7bf076a21cb5928d443d2a13b6748282604051610c079291906132b0565b63ffffffff84165f90815260036020908152604080832061ffff871684529091528120805460609291906110fa90612e38565b80601f016020809104026020016040519081016040528092919081815260200182805461112690612e38565b80156111715780601f1061114857610100808354040283529160200191611171565b820191905f5260205f20905b81548152906001019060200180831161115457829003601f168201915b5050505050905080515f036111bf5783838080601f0160208091040260200160405190810160405280939291908181526020018383808284375f920191909152509294506112349350505050565b5f8390036111ce579050611234565b60028310611217576111e08484611f39565b806111ee8460028188613395565b604051602001611200939291906133d3565b604051602081830303815290604052915050611234565b8383604051639a6d49cd60e01b8152600401610a9d9291906133f1565b949350505050565b5f5b8181101561133f5736838383818110611259576112596130fe565b905060200281019061126b9190613404565b905061129d61127d6020830183612d13565b602083013563ffffffff919091165f908152600160205260409020541490565b6112a75750611337565b3063d045a0dc60c08301358360a08101356112c6610100830183613130565b6112d7610100890160e08a016129e5565b6112e56101208a018a613130565b6040518963ffffffff1660e01b8152600401611307979695949392919061342d565b5f604051808303818588803b15801561131e575f80fd5b505af1158015611330573d5f803e3d5ffd5b5050505050505b60010161123e565b50336001600160a01b0316638e9e70996040518163ffffffff1660e01b81526004015f60405180830381865afa15801561137b573d5f803e3d5ffd5b505050506040513d5f823e601f3d908101601f191682016040526113a291908101906134b2565b604051638351eea760e01b8152600401610a9d91906127c5565b6113c4612754565b604080518082019091525f80825260208201525f806113f360408801356060890135610df860208b018b612d13565b915091505f806114038984611bcb565b909250905061142f61141860208b018b612d13565b8383611429368d90038d018d6130cd565b8b611de4565b60408051808201909152858152602080820186905282519298509096503391907f85496b760a4b7f8d66384b9df21b381f5d1b1e79f229a47aaf4c232edc2fe59a9061147d908d018d612d13565b6040805163ffffffff909216825260208201899052810187905260600160405180910390a350505050935093915050565b6114b6611b9f565b60405163ca5eb5e160e01b81526001600160a01b0382811660048301527f0000000000000000000000000000000000000000000000000000000000000000169063ca5eb5e1906024015f604051808303815f87803b158015611516575f80fd5b505af1158015611528573d5f803e3d5ffd5b5050505050565b33301461154f5760405163029a949d60e31b815260040160405180910390fd5b610b0d87878787878787610afe565b611566611b9f565b600280546001600160a01b0319166001600160a01b0383169081179091556040519081527fd48d879cef83a1c0bdda516f27b13ddb1b3f8bbac1c9e1511bb2a659c242776090602001610f31565b6115be3382611f7a565b60405163a9059cbb60e01b8152336004820152602481018290527f00000000000000000000000000000000000000000000000000000000000000006001600160a01b03169063a9059cbb906044015b6020604051808303815f875af1158015611629573d5f803e3d5ffd5b505050506040513d601f19601f8201168201806040525081019061164d9190613526565b5050565b6040516323b872dd60e01b8152336004820152306024820152604481018290527f00000000000000000000000000000000000000000000000000000000000000006001600160a01b0316906323b872dd9060640161160d565b6116b2611b9f565b6001600160a01b0381166116db57604051631e4fbdf760e01b81525f6004820152602401610a9d565b6116e481611eea565b50565b5f6020820180359060019083906116fe9086612d13565b63ffffffff16815260208101919091526040015f20541492915050565b6117288383836001611fae565b505050565b5f8061173885612080565b915081905083811015611768576040516371c4efed60e01b81526004810182905260248101859052604401610a9d565b935093915050565b63ffffffff81165f90815260016020526040812054806109855760405163f6ff4fb760e01b815263ffffffff84166004820152602401610a9d565b5f805f6060306001600160a01b031663416fc5918a8a6040518363ffffffff1660e01b81526004016117de9291906133f1565b5f6040518083038186803b1580156117f4575f80fd5b505afa925050508015611805575060015b61183e573d808015611832576040519150601f19603f3d011682016040523d82523d5f602084013e611837565b606091505b5050611843565b600193505b8315611943575f806118578a8c018c612f30565b9150915061186a611867836120b6565b90565b94506118988561188161187c856120e1565b61210c565b8f5f0160208101906118939190612d13565b612140565b600a546040805163d596914360e01b815284516001600160a01b0390811660048301526020860151811660248301529185015182166044820152606085015182166064820152608085015162ffffff16608482015260a085015160a482015260c48101849052929650169063d59691439060e4015f604051808303815f87803b158015611923575f80fd5b505af1158015611935573d5f803e3d5ffd5b5050505081925050506119ab565b6119506118678a8a612153565b92506119708361196361187c8c8c61216a565b61189360208f018f612d13565b915088888080601f0160208091040260200160405190810160405280939291908181526020018383808284375f920191909152509293505050505b805160281015611a69575f6119e56119c960608e0160408f01613541565b6119d660208f018f612d13565b856119e08661218c565b612278565b604051633e5ac80960e11b81529091506001600160a01b037f00000000000000000000000000000000000000000000000000000000000000001690637cb5901290611a3a9087908f905f90879060040161355c565b5f604051808303815f87803b158015611a51575f80fd5b505af1158015611a63573d5f803e3d5ffd5b50505050505b6001600160a01b0383168a7fefed6d3500546b29533b128a29e3a94d70788727f0507505ac12eaf2e578fd9c611aa260208f018f612d13565b6040805163ffffffff9092168252602082018790520160405180910390a35050505050505050505050565b6001600160a01b038381165f908152600660209081526040808320938616835292905220545f198114610c8e5781811015611b3457604051637dc7a0d960e11b81526001600160a01b03841660048201526024810182905260448101839052606401610a9d565b610c8e84848484035f611fae565b6001600160a01b038316611b6b57604051634b637e8f60e11b81525f6004820152602401610a9d565b6001600160a01b038216611b945760405163ec442f0560e01b81525f6004820152602401610a9d565b6117288383836122aa565b5f546001600160a01b03163314610f4d5760405163118cdaa760e01b8152336004820152602401610a9d565b6060805f611c268560200135611be0866123d0565b611bed60a0890189613130565b8080601f0160208091040260200160405190810160405280939291908181526020018383808284375f920191909152506123fb92505050565b90935090505f81611c38576001611c3b565b60025b9050611c5b611c4d6020880188612d13565b826107a660808a018a613130565b6004549093506001600160a01b031615611ce1576004805460405163043a78eb60e01b81526001600160a01b039091169163043a78eb91611ca091889188910161358c565b602060405180830381865afa158015611cbb573d5f803e3d5ffd5b505050506040513d601f19601f82011682018060405250810190611cdf9190613526565b505b50509250929050565b604080518082019091525f80825260208201527f00000000000000000000000000000000000000000000000000000000000000006001600160a01b031663ddc28c586040518060a001604052808863ffffffff168152602001611d4c89611770565b8152602001878152602001868152602001851515815250306040518363ffffffff1660e01b8152600401611d819291906135b0565b6040805180830381865afa158015611d9b573d5f803e3d5ffd5b505050506040513d601f19601f82011682018060405250810190611dbf9190613657565b95945050505050565b5f80611dd585858561172d565b90925090506117683383611f7a565b611dec612754565b5f611df9845f0151612475565b602085015190915015611e1357611e13846020015161249c565b7f00000000000000000000000000000000000000000000000000000000000000006001600160a01b0316632637a450826040518060a001604052808b63ffffffff168152602001611e638c611770565b81526020018a81526020018981526020015f8960200151111515815250866040518463ffffffff1660e01b8152600401611e9e9291906135b0565b60806040518083038185885af1158015611eba573d5f803e3d5ffd5b50505050506040513d601f19601f82011682018060405250810190611edf9190613671565b979650505050505050565b5f80546001600160a01b038381166001600160a01b0319831681178455604051919092169283917f8be0079c531659141344cd1fd0a4f28419497f9722a3daafe3b4186f6b6457e09190a35050565b5f611f476002828486613395565b611f50916136d8565b60f01c905060038114611728578282604051639a6d49cd60e01b8152600401610a9d9291906133f1565b6001600160a01b038216611fa357604051634b637e8f60e11b81525f6004820152602401610a9d565b61164d825f836122aa565b6001600160a01b038416611fd75760405163e602df0560e01b81525f6004820152602401610a9d565b6001600160a01b03831661200057604051634a1406b160e11b81525f6004820152602401610a9d565b6001600160a01b038085165f9081526006602090815260408083209387168352929052208290558015610c8e57826001600160a01b0316846001600160a01b03167f8c5be1e5ebec7d5bd14f71427d1e84f3dd0314c0f7b2291e5b200ac8c7c3b9258460405161207291815260200190565b60405180910390a350505050565b5f7f00000000000000000000000000000000000000000000000000000000000000006120ac8184613724565b6109859190613743565b5f6020825110156120d95760405162461bcd60e51b8152600401610a9d9061375a565b506020015190565b5f6028825110156121045760405162461bcd60e51b8152600401610a9d9061375a565b506028015190565b5f6109857f00000000000000000000000000000000000000000000000000000000000000006001600160401b038416613743565b5f61214b848461257b565b509092915050565b5f6121616020828486613395565b610baf91613785565b5f612179602860208486613395565b612182916137a2565b60c01c9392505050565b80516060906028908111156121b35760405162461bcd60e51b8152600401610a9d9061375a565b5f8160ff1684516121c491906137d8565b90505f816001600160401b038111156121df576121df612e6a565b6040519080825280601f01601f191660200182016040528015612209576020820181803683370190505b5090505f5b8281101561226f57856122248260ff87166137eb565b81518110612234576122346130fe565b602001015160f81c60f81b828281518110612251576122516130fe565b60200101906001600160f81b03191690815f1a90535060010161220e565b50949350505050565b60608484848460405160200161229194939291906137fe565b6040516020818303038152906040529050949350505050565b6001600160a01b0383166122d4578060075f8282546122c991906137eb565b909155506123449050565b6001600160a01b0383165f90815260056020526040902054818110156123265760405163391434e360e21b81526001600160a01b03851660048201526024810182905260448101839052606401610a9d565b6001600160a01b0384165f9081526005602052604090209082900390555b6001600160a01b0382166123605760078054829003905561237e565b6001600160a01b0382165f9081526005602052604090208054820190555b816001600160a01b0316836001600160a01b03167fddf252ad1be2c89b69c2b068fc378daa952ba7f163c4a11628f55a4df523b3ef836040516123c391815260200190565b60405180910390a3505050565b5f6109857f000000000000000000000000000000000000000000000000000000000000000083613724565b805160609015158061244457848460405160200161243092919091825260c01b6001600160c01b031916602082015260280190565b60405160208183030381529060405261246b565b8484338560405160200161245b9493929190613838565b6040516020818303038152906040525b9150935093915050565b5f813414612498576040516304fb820960e51b8152346004820152602401610a9d565b5090565b5f7f00000000000000000000000000000000000000000000000000000000000000006001600160a01b031663e4fe1d946040518163ffffffff1660e01b8152600401602060405180830381865afa1580156124f9573d5f803e3d5ffd5b505050506040513d601f19601f8201168201806040525081019061251d9190613864565b90506001600160a01b038116612546576040516329b99a9560e11b815260040160405180910390fd5b61164d6001600160a01b038216337f0000000000000000000000000000000000000000000000000000000000000000856125af565b6001600160a01b0382166125a45760405163ec442f0560e01b81525f6004820152602401610a9d565b61164d5f83836122aa565b604080516001600160a01b038581166024830152848116604483015260648083018590528351808403909101815260849092019092526020810180516001600160e01b03166323b872dd60e01b179052610c8e918691905f9061261490841683612661565b905080515f141580156126385750808060200190518101906126369190613526565b155b1561172857604051635274afe760e01b81526001600160a01b0384166004820152602401610a9d565b6060610baf83835f845f80856001600160a01b03168486604051612685919061387f565b5f6040518083038185875af1925050503d805f81146126bf576040519150601f19603f3d011682016040523d82523d5f602084013e6126c4565b606091505b5091509150610c6d8683836060826126e4576126df8261272b565b610baf565b81511580156126fb57506001600160a01b0384163b155b1561272457604051639996b31560e01b81526001600160a01b0385166004820152602401610a9d565b5080610baf565b80511561273b5780518082602001fd5b604051630a12f52160e11b815260040160405180910390fd5b60405180606001604052805f80191681526020015f6001600160401b0316815260200161279260405180604001604052805f81526020015f81525090565b905290565b5f81518084528060208401602086015e5f602082860101526020601f19601f83011685010191505092915050565b602081525f610baf6020830184612797565b6001600160a01b03811681146116e4575f80fd5b5f80604083850312156127fc575f80fd5b8235612807816127d7565b946020939093013593505050565b5f60e08284031215612825575f80fd5b50919050565b5f6020828403121561283b575f80fd5b81356001600160401b03811115612850575f80fd5b61123484828501612815565b83518152602080850151908201525f60a0820160a0604084015280855180835260c08501915060c08160051b8601019250602087015f5b828110156128db5760bf1987860301845281518051865260208101519050604060208701526128c56040870182612797565b9550506020938401939190910190600101612893565b5050855160608601525050602084015160808401529050611234565b5f60608284031215612825575f80fd5b5f8083601f840112612917575f80fd5b5081356001600160401b0381111561292d575f80fd5b602083019150836020828501011115612944575f80fd5b9250929050565b5f805f805f805f60e0888a031215612961575f80fd5b61296b89896128f7565b96506060880135955060808801356001600160401b0381111561298c575f80fd5b6129988a828b01612907565b90965094505060a08801356129ac816127d7565b925060c08801356001600160401b038111156129c6575f80fd5b6129d28a828b01612907565b989b979a50959850939692959293505050565b5f602082840312156129f5575f80fd5b8135610baf816127d7565b5f805f60608486031215612a12575f80fd5b8335612a1d816127d7565b92506020840135612a2d816127d7565b929592945050506040919091013590565b803563ffffffff81168114612a51575f80fd5b919050565b5f8060408385031215612a67575f80fd5b61280783612a3e565b80151581146116e4575f80fd5b5f8060408385031215612a8e575f80fd5b82356001600160401b03811115612aa3575f80fd5b612aaf85828601612815565b9250506020830135612ac081612a70565b809150509250929050565b815181526020808301519082015260408101610985565b5f8060208385031215612af3575f80fd5b82356001600160401b03811115612b08575f80fd5b612b1485828601612907565b90969095509350505050565b803561ffff81168114612a51575f80fd5b5f8060408385031215612b42575f80fd5b612b4b83612a3e565b9150612b5960208401612b20565b90509250929050565b5f60c08284031215612825575f80fd5b5f805f6101008486031215612b85575f80fd5b83356001600160401b03811115612b9a575f80fd5b612ba686828701612815565b935050612bb68560208601612b62565b915060e0840135612bc681612a70565b809150509250925092565b5f60408284031215612825575f80fd5b5f805f806101408587031215612bf5575f80fd5b84356001600160401b03811115612c0a575f80fd5b612c1687828801612815565b945050612c268660208701612bd1565b92506060850135612c36816127d7565b9150612c458660808701612b62565b905092959194509250565b5f60c082019050835182526001600160401b0360208501511660208301526040840151612c8a604084018280518252602090810151910152565b5082516080830152602083015160a0830152610baf565b5f8083601f840112612cb1575f80fd5b5081356001600160401b03811115612cc7575f80fd5b6020830191508360208260051b8501011115612944575f80fd5b5f8060208385031215612cf2575f80fd5b82356001600160401b03811115612d07575f80fd5b612b1485828601612ca1565b5f60208284031215612d23575f80fd5b610baf82612a3e565b5f805f8060608587031215612d3f575f80fd5b612d4885612a3e565b9350612d5660208601612b20565b925060408501356001600160401b03811115612d70575f80fd5b612d7c87828801612907565b95989497509550505050565b5f805f60808486031215612d9a575f80fd5b83356001600160401b03811115612daf575f80fd5b612dbb86828701612815565b935050612dcb8560208601612bd1565b91506060840135612bc6816127d7565b5f8060408385031215612dec575f80fd5b8235612df7816127d7565b91506020830135612ac0816127d7565b5f60208284031215612e17575f80fd5b5035919050565b5f60608284031215612e2e575f80fd5b610baf83836128f7565b600181811c90821680612e4c57607f821691505b60208210810361282557634e487b7160e01b5f52602260045260245ffd5b634e487b7160e01b5f52604160045260245ffd5b60405160c081016001600160401b0381118282101715612ea057612ea0612e6a565b60405290565b604080519081016001600160401b0381118282101715612ea057612ea0612e6a565b604051601f8201601f191681016001600160401b0381118282101715612ef057612ef0612e6a565b604052919050565b5f6001600160401b03821115612f1057612f10612e6a565b50601f01601f191660200190565b803562ffffff81168114612a51575f80fd5b5f8082840360e0811215612f42575f80fd5b83356001600160401b03811115612f57575f80fd5b8401601f81018613612f67575f80fd5b8035612f7a612f7582612ef8565b612ec8565b818152876020838501011115612f8e575f80fd5b816020840160208301375f9181016020019190915293505060c0601f1982011215612fb7575f80fd5b50612fc0612e7e565b6020840135612fce816127d7565b81526040840135612fde816127d7565b60208201526060840135612ff1816127d7565b60408201526080840135613004816127d7565b606082015261301560a08501612f1e565b608082015260c0939093013560a08401525092909150565b5f8335613039816127d7565b6001600160a01b031682526020840135613052816127d7565b6001600160a01b03166020830152604084013561306e816127d7565b6001600160a01b03166040830152606084013561308a816127d7565b6001600160a01b031660608301526130a460808501612f1e565b62ffffff16608083015260a0848101359083015260e060c0830181905261123490830184612797565b5f60408284031280156130de575f80fd5b506130e7612ea6565b823581526020928301359281019290925250919050565b634e487b7160e01b5f52603260045260245ffd5b5f8235605e19833603018112613126575f80fd5b9190910192915050565b5f808335601e19843603018112613145575f80fd5b8301803591506001600160401b0382111561315e575f80fd5b602001915036819003821315612944575f80fd5b5f60208284031215613182575f80fd5b610baf82612b20565b601f82111561172857805f5260205f20601f840160051c810160208510156131b05750805b601f840160051c820191505b81811015611528575f81556001016131bc565b6001600160401b038311156131e6576131e6612e6a565b6131fa836131f48354612e38565b8361318b565b5f601f84116001811461322b575f85156132145750838201355b5f19600387901b1c1916600186901b178355611528565b5f83815260208120601f198716915b8281101561325a578685013582556020948501946001909201910161323a565b5086821015613276575f1960f88860031b161c19848701351681555b505060018560011b0183555050505050565b81835281816020850137505f828201602090810191909152601f909101601f19169091010190565b602080825281018290525f6040600584901b830181019083018583605e1936839003015b8782101561338857868503603f1901845282358181126132f2575f80fd5b890163ffffffff61330282612a3e565b16865261ffff61331460208301612b20565b1660208701526040810135601e19823603018112613330575f80fd5b016020810190356001600160401b0381111561334a575f80fd5b803603821315613358575f80fd5b6060604088015261336d606088018284613288565b965050506020830192506020840193506001820191506132d4565b5092979650505050505050565b5f80858511156133a3575f80fd5b838611156133af575f80fd5b5050820193919092039150565b5f81518060208401855e5f93019283525090919050565b5f6133de82866133bc565b838582375f930192835250909392505050565b602081525f611234602083018486613288565b5f823561013e19833603018112613126575f80fd5b6001600160401b03811681146116e4575f80fd5b63ffffffff61343b89612a3e565b168152602088810135908201525f604089013561345781613419565b6001600160401b03811660408401525087606083015260e0608083015261348260e083018789613288565b6001600160a01b03861660a084015282810360c08401526134a4818587613288565b9a9950505050505050505050565b5f602082840312156134c2575f80fd5b81516001600160401b038111156134d7575f80fd5b8201601f810184136134e7575f80fd5b80516134f5612f7582612ef8565b818152856020838501011115613509575f80fd5b8160208401602083015e5f91810160200191909152949350505050565b5f60208284031215613536575f80fd5b8151610baf81612a70565b5f60208284031215613551575f80fd5b8135610baf81613419565b60018060a01b038516815283602082015261ffff83166040820152608060608201525f610c6d6080830184612797565b604081525f61359e6040830185612797565b8281036020840152611dbf8185612797565b6040815263ffffffff8351166040820152602083015160608201525f604084015160a060808401526135e560e0840182612797565b90506060850151603f198483030160a08501526136028282612797565b60809690960151151560c08501525050506001600160a01b039190911660209091015290565b5f60408284031215613638575f80fd5b613640612ea6565b825181526020928301519281019290925250919050565b5f60408284031215613667575f80fd5b610baf8383613628565b5f6080828403128015613682575f80fd5b50604051606081016001600160401b03811182821017156136a5576136a5612e6a565b6040528251815260208301516136ba81613419565b60208201526136cc8460408501613628565b60408201529392505050565b80356001600160f01b03198116906002841015613709576001600160f01b0319600285900360031b81901b82161691505b5092915050565b634e487b7160e01b5f52601160045260245ffd5b5f8261373e57634e487b7160e01b5f52601260045260245ffd5b500490565b808202811582820484141761098557610985613710565b60208082526011908201527013595cdcd859d9481d1bdbc81cda1bdc9d607a1b604082015260600190565b80356020831015610985575f19602084900360031b1b1692915050565b80356001600160c01b03198116906008841015613709576001600160c01b031960089490940360031b84901b1690921692915050565b8181038181111561098557610985613710565b8082018082111561098557610985613710565b60c085901b6001600160c01b031916815260e084901b6001600160e01b0319166008820152600c81018390525f610c6d602c8301846133bc565b8481526001600160401b0360c01b8460c01b1660208201528260288201525f610c6d60488301846133bc565b5f60208284031215613874575f80fd5b8151610baf816127d7565b5f610baf82846133bc56fea2646970667358221220d638500be5be50544a5c30d18bfba3f9dfd0892b02533af748dc97bcfb17430464736f6c634300081a0033",
			"opcodes": "PUSH1 0xE0 PUSH1 0x40 MSTORE CALLVALUE DUP1 ISZERO PUSH2 0xF JUMPI PUSH0 DUP1 REVERT JUMPDEST POP PUSH1 0x40 MLOAD PUSH2 0x3ED4 CODESIZE SUB DUP1 PUSH2 0x3ED4 DUP4 CODECOPY DUP2 ADD PUSH1 0x40 DUP2 SWAP1 MSTORE PUSH2 0x2E SWAP2 PUSH2 0x29F JUMP JUMPDEST DUP5 DUP5 DUP5 DUP5 DUP5 DUP5 DUP5 DUP5 DUP5 DUP4 DUP4 PUSH1 0x12 DUP5 DUP5 DUP2 DUP2 DUP2 DUP2 DUP15 PUSH1 0x1 PUSH1 0x1 PUSH1 0xA0 SHL SUB DUP2 AND PUSH2 0x6F JUMPI PUSH1 0x40 MLOAD PUSH4 0x1E4FBDF7 PUSH1 0xE0 SHL DUP2 MSTORE PUSH0 PUSH1 0x4 DUP3 ADD MSTORE PUSH1 0x24 ADD PUSH1 0x40 MLOAD DUP1 SWAP2 SUB SWAP1 REVERT JUMPDEST PUSH2 0x78 DUP2 PUSH2 0x193 JUMP JUMPDEST POP PUSH1 0x1 PUSH1 0x1 PUSH1 0xA0 SHL SUB DUP1 DUP4 AND PUSH1 0x80 MSTORE DUP2 AND PUSH2 0xA6 JUMPI PUSH1 0x40 MLOAD PUSH4 0x2D618D81 PUSH1 0xE2 SHL DUP2 MSTORE PUSH1 0x4 ADD PUSH1 0x40 MLOAD DUP1 SWAP2 SUB SWAP1 REVERT JUMPDEST PUSH1 0x80 MLOAD PUSH1 0x40 MLOAD PUSH4 0xCA5EB5E1 PUSH1 0xE0 SHL DUP2 MSTORE PUSH1 0x1 PUSH1 0x1 PUSH1 0xA0 SHL SUB DUP4 DUP2 AND PUSH1 0x4 DUP4 ADD MSTORE SWAP1 SWAP2 AND SWAP1 PUSH4 0xCA5EB5E1 SWAP1 PUSH1 0x24 ADD PUSH0 PUSH1 0x40 MLOAD DUP1 DUP4 SUB DUP2 PUSH0 DUP8 DUP1 EXTCODESIZE ISZERO DUP1 ISZERO PUSH2 0xEA JUMPI PUSH0 DUP1 REVERT JUMPDEST POP GAS CALL ISZERO DUP1 ISZERO PUSH2 0xFC JUMPI RETURNDATASIZE PUSH0 DUP1 RETURNDATACOPY RETURNDATASIZE PUSH0 REVERT JUMPDEST POP POP POP POP POP POP POP POP PUSH2 0x112 PUSH2 0x1E2 PUSH1 0x20 SHL PUSH1 0x20 SHR JUMP JUMPDEST PUSH1 0xFF AND DUP4 PUSH1 0xFF AND LT ISZERO PUSH2 0x138 JUMPI PUSH1 0x40 MLOAD PUSH4 0x1E9714B PUSH1 0xE4 SHL DUP2 MSTORE PUSH1 0x4 ADD PUSH1 0x40 MLOAD DUP1 SWAP2 SUB SWAP1 REVERT JUMPDEST PUSH2 0x143 PUSH1 0x6 DUP5 PUSH2 0x348 JUMP JUMPDEST PUSH2 0x14E SWAP1 PUSH1 0xA PUSH2 0x44A JUMP JUMPDEST PUSH1 0xA0 MSTORE POP PUSH1 0x8 SWAP2 POP PUSH2 0x162 SWAP1 POP DUP4 DUP3 PUSH2 0x4E3 JUMP JUMPDEST POP PUSH1 0x9 PUSH2 0x16F DUP3 DUP3 PUSH2 0x4E3 JUMP JUMPDEST POP POP POP PUSH1 0x1 PUSH1 0x1 PUSH1 0xA0 SHL SUB SWAP1 SWAP5 AND PUSH1 0xC0 MSTORE POP PUSH2 0x59D SWAP12 POP POP POP POP POP POP POP POP POP POP POP POP JUMP JUMPDEST PUSH0 DUP1 SLOAD PUSH1 0x1 PUSH1 0x1 PUSH1 0xA0 SHL SUB DUP4 DUP2 AND PUSH1 0x1 PUSH1 0x1 PUSH1 0xA0 SHL SUB NOT DUP4 AND DUP2 OR DUP5 SSTORE PUSH1 0x40 MLOAD SWAP2 SWAP1 SWAP3 AND SWAP3 DUP4 SWAP2 PUSH32 0x8BE0079C531659141344CD1FD0A4F28419497F9722A3DAAFE3B4186F6B6457E0 SWAP2 SWAP1 LOG3 POP POP JUMP JUMPDEST PUSH1 0x6 SWAP1 JUMP JUMPDEST PUSH4 0x4E487B71 PUSH1 0xE0 SHL PUSH0 MSTORE PUSH1 0x41 PUSH1 0x4 MSTORE PUSH1 0x24 PUSH0 REVERT JUMPDEST PUSH0 DUP3 PUSH1 0x1F DUP4 ADD SLT PUSH2 0x20A JUMPI PUSH0 DUP1 REVERT JUMPDEST DUP2 MLOAD PUSH1 0x1 PUSH1 0x1 PUSH1 0x40 SHL SUB DUP2 GT ISZERO PUSH2 0x223 JUMPI PUSH2 0x223 PUSH2 0x1E7 JUMP JUMPDEST PUSH1 0x40 MLOAD PUSH1 0x1F DUP3 ADD PUSH1 0x1F NOT SWAP1 DUP2 AND PUSH1 0x3F ADD AND DUP2 ADD PUSH1 0x1 PUSH1 0x1 PUSH1 0x40 SHL SUB DUP2 GT DUP3 DUP3 LT OR ISZERO PUSH2 0x251 JUMPI PUSH2 0x251 PUSH2 0x1E7 JUMP JUMPDEST PUSH1 0x40 MSTORE DUP2 DUP2 MSTORE DUP4 DUP3 ADD PUSH1 0x20 ADD DUP6 LT ISZERO PUSH2 0x268 JUMPI PUSH0 DUP1 REVERT JUMPDEST DUP2 PUSH1 0x20 DUP6 ADD PUSH1 0x20 DUP4 ADD MCOPY PUSH0 SWAP2 DUP2 ADD PUSH1 0x20 ADD SWAP2 SWAP1 SWAP2 MSTORE SWAP4 SWAP3 POP POP POP JUMP JUMPDEST DUP1 MLOAD PUSH1 0x1 PUSH1 0x1 PUSH1 0xA0 SHL SUB DUP2 AND DUP2 EQ PUSH2 0x29A JUMPI PUSH0 DUP1 REVERT JUMPDEST SWAP2 SWAP1 POP JUMP JUMPDEST PUSH0 DUP1 PUSH0 DUP1 PUSH0 PUSH1 0xA0 DUP7 DUP9 SUB SLT ISZERO PUSH2 0x2B3 JUMPI PUSH0 DUP1 REVERT JUMPDEST DUP6 MLOAD PUSH1 0x1 PUSH1 0x1 PUSH1 0x40 SHL SUB DUP2 GT ISZERO PUSH2 0x2C8 JUMPI PUSH0 DUP1 REVERT JUMPDEST PUSH2 0x2D4 DUP9 DUP3 DUP10 ADD PUSH2 0x1FB JUMP JUMPDEST PUSH1 0x20 DUP9 ADD MLOAD SWAP1 SWAP7 POP SWAP1 POP PUSH1 0x1 PUSH1 0x1 PUSH1 0x40 SHL SUB DUP2 GT ISZERO PUSH2 0x2F1 JUMPI PUSH0 DUP1 REVERT JUMPDEST PUSH2 0x2FD DUP9 DUP3 DUP10 ADD PUSH2 0x1FB JUMP JUMPDEST SWAP5 POP POP PUSH2 0x30C PUSH1 0x40 DUP8 ADD PUSH2 0x284 JUMP JUMPDEST SWAP3 POP PUSH2 0x31A PUSH1 0x60 DUP8 ADD PUSH2 0x284 JUMP JUMPDEST SWAP2 POP PUSH2 0x328 PUSH1 0x80 DUP8 ADD PUSH2 0x284 JUMP JUMPDEST SWAP1 POP SWAP3 SWAP6 POP SWAP3 SWAP6 SWAP1 SWAP4 POP JUMP JUMPDEST PUSH4 0x4E487B71 PUSH1 0xE0 SHL PUSH0 MSTORE PUSH1 0x11 PUSH1 0x4 MSTORE PUSH1 0x24 PUSH0 REVERT JUMPDEST PUSH1 0xFF DUP3 DUP2 AND DUP3 DUP3 AND SUB SWAP1 DUP2 GT ISZERO PUSH2 0x361 JUMPI PUSH2 0x361 PUSH2 0x334 JUMP JUMPDEST SWAP3 SWAP2 POP POP JUMP JUMPDEST PUSH1 0x1 DUP2 JUMPDEST PUSH1 0x1 DUP5 GT ISZERO PUSH2 0x3A2 JUMPI DUP1 DUP6 DIV DUP2 GT ISZERO PUSH2 0x386 JUMPI PUSH2 0x386 PUSH2 0x334 JUMP JUMPDEST PUSH1 0x1 DUP5 AND ISZERO PUSH2 0x394 JUMPI SWAP1 DUP2 MUL SWAP1 JUMPDEST PUSH1 0x1 SWAP4 SWAP1 SWAP4 SHR SWAP3 DUP1 MUL PUSH2 0x36B JUMP JUMPDEST SWAP4 POP SWAP4 SWAP2 POP POP JUMP JUMPDEST PUSH0 DUP3 PUSH2 0x3B8 JUMPI POP PUSH1 0x1 PUSH2 0x361 JUMP JUMPDEST DUP2 PUSH2 0x3C4 JUMPI POP PUSH0 PUSH2 0x361 JUMP JUMPDEST DUP2 PUSH1 0x1 DUP2 EQ PUSH2 0x3DA JUMPI PUSH1 0x2 DUP2 EQ PUSH2 0x3E4 JUMPI PUSH2 0x400 JUMP JUMPDEST PUSH1 0x1 SWAP2 POP POP PUSH2 0x361 JUMP JUMPDEST PUSH1 0xFF DUP5 GT ISZERO PUSH2 0x3F5 JUMPI PUSH2 0x3F5 PUSH2 0x334 JUMP JUMPDEST POP POP PUSH1 0x1 DUP3 SHL PUSH2 0x361 JUMP JUMPDEST POP PUSH1 0x20 DUP4 LT PUSH2 0x133 DUP4 LT AND PUSH1 0x4E DUP5 LT PUSH1 0xB DUP5 LT AND OR ISZERO PUSH2 0x423 JUMPI POP DUP2 DUP2 EXP PUSH2 0x361 JUMP JUMPDEST PUSH2 0x42F PUSH0 NOT DUP5 DUP5 PUSH2 0x367 JUMP JUMPDEST DUP1 PUSH0 NOT DIV DUP3 GT ISZERO PUSH2 0x442 JUMPI PUSH2 0x442 PUSH2 0x334 JUMP JUMPDEST MUL SWAP4 SWAP3 POP POP POP JUMP JUMPDEST PUSH0 PUSH2 0x458 PUSH1 0xFF DUP5 AND DUP4 PUSH2 0x3AA JUMP JUMPDEST SWAP4 SWAP3 POP POP POP JUMP JUMPDEST PUSH1 0x1 DUP2 DUP2 SHR SWAP1 DUP3 AND DUP1 PUSH2 0x473 JUMPI PUSH1 0x7F DUP3 AND SWAP2 POP JUMPDEST PUSH1 0x20 DUP3 LT DUP2 SUB PUSH2 0x491 JUMPI PUSH4 0x4E487B71 PUSH1 0xE0 SHL PUSH0 MSTORE PUSH1 0x22 PUSH1 0x4 MSTORE PUSH1 0x24 PUSH0 REVERT JUMPDEST POP SWAP2 SWAP1 POP JUMP JUMPDEST PUSH1 0x1F DUP3 GT ISZERO PUSH2 0x4DE JUMPI DUP1 PUSH0 MSTORE PUSH1 0x20 PUSH0 KECCAK256 PUSH1 0x1F DUP5 ADD PUSH1 0x5 SHR DUP2 ADD PUSH1 0x20 DUP6 LT ISZERO PUSH2 0x4BC JUMPI POP DUP1 JUMPDEST PUSH1 0x1F DUP5 ADD PUSH1 0x5 SHR DUP3 ADD SWAP2 POP JUMPDEST DUP2 DUP2 LT ISZERO PUSH2 0x4DB JUMPI PUSH0 DUP2 SSTORE PUSH1 0x1 ADD PUSH2 0x4C8 JUMP JUMPDEST POP POP JUMPDEST POP POP POP JUMP JUMPDEST DUP2 MLOAD PUSH1 0x1 PUSH1 0x1 PUSH1 0x40 SHL SUB DUP2 GT ISZERO PUSH2 0x4FC JUMPI PUSH2 0x4FC PUSH2 0x1E7 JUMP JUMPDEST PUSH2 0x510 DUP2 PUSH2 0x50A DUP5 SLOAD PUSH2 0x45F JUMP JUMPDEST DUP5 PUSH2 0x497 JUMP JUMPDEST PUSH1 0x20 PUSH1 0x1F DUP3 GT PUSH1 0x1 DUP2 EQ PUSH2 0x542 JUMPI PUSH0 DUP4 ISZERO PUSH2 0x52B JUMPI POP DUP5 DUP3 ADD MLOAD JUMPDEST PUSH0 NOT PUSH1 0x3 DUP6 SWAP1 SHL SHR NOT AND PUSH1 0x1 DUP5 SWAP1 SHL OR DUP5 SSTORE PUSH2 0x4DB JUMP JUMPDEST PUSH0 DUP5 DUP2 MSTORE PUSH1 0x20 DUP2 KECCAK256 PUSH1 0x1F NOT DUP6 AND SWAP2 JUMPDEST DUP3 DUP2 LT ISZERO PUSH2 0x571 JUMPI DUP8 DUP6 ADD MLOAD DUP3 SSTORE PUSH1 0x20 SWAP5 DUP6 ADD SWAP5 PUSH1 0x1 SWAP1 SWAP3 ADD SWAP2 ADD PUSH2 0x551 JUMP JUMPDEST POP DUP5 DUP3 LT ISZERO PUSH2 0x58E JUMPI DUP7 DUP5 ADD MLOAD PUSH0 NOT PUSH1 0x3 DUP8 SWAP1 SHL PUSH1 0xF8 AND SHR NOT AND DUP2 SSTORE JUMPDEST POP POP POP POP PUSH1 0x1 SWAP1 DUP2 SHL ADD SWAP1 SSTORE POP JUMP JUMPDEST PUSH1 0x80 MLOAD PUSH1 0xA0 MLOAD PUSH1 0xC0 MLOAD PUSH2 0x38C0 PUSH2 0x614 PUSH0 CODECOPY PUSH0 DUP2 DUP2 PUSH2 0x15DA ADD MSTORE PUSH2 0x1673 ADD MSTORE PUSH0 DUP2 DUP2 PUSH2 0x6D0 ADD MSTORE DUP2 DUP2 PUSH2 0x2083 ADD MSTORE DUP2 DUP2 PUSH2 0x2112 ADD MSTORE PUSH2 0x23D6 ADD MSTORE PUSH0 DUP2 DUP2 PUSH2 0x57A ADD MSTORE DUP2 DUP2 PUSH2 0xA58 ADD MSTORE DUP2 DUP2 PUSH2 0x14D5 ADD MSTORE DUP2 DUP2 PUSH2 0x19FF ADD MSTORE DUP2 DUP2 PUSH2 0x1CFF ADD MSTORE DUP2 DUP2 PUSH2 0x1E15 ADD MSTORE DUP2 DUP2 PUSH2 0x249F ADD MSTORE PUSH2 0x2556 ADD MSTORE PUSH2 0x38C0 PUSH0 RETURN INVALID PUSH1 0x80 PUSH1 0x40 MSTORE PUSH1 0x4 CALLDATASIZE LT PUSH2 0x2A5 JUMPI PUSH0 CALLDATALOAD PUSH1 0xE0 SHR DUP1 PUSH4 0x70A08231 GT PUSH2 0x16F JUMPI DUP1 PUSH4 0xBB0B6A53 GT PUSH2 0xD8 JUMPI DUP1 PUSH4 0xD4243885 GT PUSH2 0x92 JUMPI DUP1 PUSH4 0xEA598CB0 GT PUSH2 0x6D JUMPI DUP1 PUSH4 0xEA598CB0 EQ PUSH2 0x885 JUMPI DUP1 PUSH4 0xF2FDE38B EQ PUSH2 0x8A4 JUMPI DUP1 PUSH4 0xFC0C546A EQ PUSH2 0x503 JUMPI DUP1 PUSH4 0xFF7BD03D EQ PUSH2 0x8C3 JUMPI PUSH0 DUP1 REVERT JUMPDEST DUP1 PUSH4 0xD4243885 EQ PUSH2 0x803 JUMPI DUP1 PUSH4 0xDD62ED3E EQ PUSH2 0x822 JUMPI DUP1 PUSH4 0xDE0E9A3E EQ PUSH2 0x866 JUMPI PUSH0 DUP1 REVERT JUMPDEST DUP1 PUSH4 0xBB0B6A53 EQ PUSH2 0x761 JUMPI DUP1 PUSH4 0xBC70B354 EQ PUSH2 0x78C JUMPI DUP1 PUSH4 0xBD815DB0 EQ PUSH2 0x7AB JUMPI DUP1 PUSH4 0xC7C7F5B3 EQ PUSH2 0x7BE JUMPI DUP1 PUSH4 0xCA5EB5E1 EQ PUSH2 0x7D1 JUMPI DUP1 PUSH4 0xD045A0DC EQ PUSH2 0x7F0 JUMPI PUSH0 DUP1 REVERT JUMPDEST DUP1 PUSH4 0x963EFCAA GT PUSH2 0x129 JUMPI DUP1 PUSH4 0x963EFCAA EQ PUSH2 0x6BF JUMPI DUP1 PUSH4 0x9F68B964 EQ PUSH2 0x6F2 JUMPI DUP1 PUSH4 0xA9059CBB EQ PUSH2 0x704 JUMPI DUP1 PUSH4 0xB731EA0A EQ PUSH2 0x723 JUMPI DUP1 PUSH4 0xB92D0EFF EQ PUSH2 0x503 JUMPI DUP1 PUSH4 0xB98BD070 EQ PUSH2 0x742 JUMPI PUSH0 DUP1 REVERT JUMPDEST DUP1 PUSH4 0x70A08231 EQ PUSH2 0x5FB JUMPI DUP1 PUSH4 0x715018A6 EQ PUSH2 0x62F JUMPI DUP1 PUSH4 0x7D25A05E EQ PUSH2 0x643 JUMPI DUP1 PUSH4 0x857749B0 EQ PUSH2 0x67C JUMPI DUP1 PUSH4 0x8DA5CB5B EQ PUSH2 0x68F JUMPI DUP1 PUSH4 0x95D89B41 EQ PUSH2 0x6AB JUMPI PUSH0 DUP1 REVERT JUMPDEST DUP1 PUSH4 0x313CE567 GT PUSH2 0x211 JUMPI DUP1 PUSH4 0x5535D461 GT PUSH2 0x1CB JUMPI DUP1 PUSH4 0x5535D461 EQ PUSH2 0x515 JUMPI DUP1 PUSH4 0x5A0DFE4D EQ PUSH2 0x534 JUMPI DUP1 PUSH4 0x5E280F11 EQ PUSH2 0x569 JUMPI DUP1 PUSH4 0x657A4A25 EQ PUSH2 0x59C JUMPI DUP1 PUSH4 0x6D70E9A8 EQ PUSH2 0x5BB JUMPI DUP1 PUSH4 0x6FC1B31E EQ PUSH2 0x5DC JUMPI PUSH0 DUP1 REVERT JUMPDEST DUP1 PUSH4 0x313CE567 EQ PUSH2 0x459 JUMPI DUP1 PUSH4 0x3400288B EQ PUSH2 0x47A JUMPI DUP1 PUSH4 0x3B6F743B EQ PUSH2 0x499 JUMPI DUP1 PUSH4 0x416FC591 EQ PUSH2 0x4C5 JUMPI DUP1 PUSH4 0x442C876D EQ PUSH2 0x4E4 JUMPI DUP1 PUSH4 0x52AE2879 EQ PUSH2 0x503 JUMPI PUSH0 DUP1 REVERT JUMPDEST DUP1 PUSH4 0x14531DE8 GT PUSH2 0x262 JUMPI DUP1 PUSH4 0x14531DE8 EQ PUSH2 0x3A3 JUMPI DUP1 PUSH4 0x156A0D0F EQ PUSH2 0x3C2 JUMPI DUP1 PUSH4 0x17442B70 EQ PUSH2 0x3E8 JUMPI DUP1 PUSH4 0x18160DDD EQ PUSH2 0x408 JUMPI DUP1 PUSH4 0x1F5E1334 EQ PUSH2 0x426 JUMPI DUP1 PUSH4 0x23B872DD EQ PUSH2 0x43A JUMPI PUSH0 DUP1 REVERT JUMPDEST DUP1 PUSH4 0x6FDDE03 EQ PUSH2 0x2A9 JUMPI DUP1 PUSH4 0x95EA7B3 EQ PUSH2 0x2D3 JUMPI DUP1 PUSH4 0xD35B415 EQ PUSH2 0x302 JUMPI DUP1 PUSH4 0x111ECDAD EQ PUSH2 0x330 JUMPI DUP1 PUSH4 0x13137D65 EQ PUSH2 0x367 JUMPI DUP1 PUSH4 0x134D4F25 EQ PUSH2 0x37C JUMPI JUMPDEST PUSH0 DUP1 REVERT JUMPDEST CALLVALUE DUP1 ISZERO PUSH2 0x2B4 JUMPI PUSH0 DUP1 REVERT JUMPDEST POP PUSH2 0x2BD PUSH2 0x8E2 JUMP JUMPDEST PUSH1 0x40 MLOAD PUSH2 0x2CA SWAP2 SWAP1 PUSH2 0x27C5 JUMP JUMPDEST PUSH1 0x40 MLOAD DUP1 SWAP2 SUB SWAP1 RETURN JUMPDEST CALLVALUE DUP1 ISZERO PUSH2 0x2DE JUMPI PUSH0 DUP1 REVERT JUMPDEST POP PUSH2 0x2F2 PUSH2 0x2ED CALLDATASIZE PUSH1 0x4 PUSH2 0x27EB JUMP JUMPDEST PUSH2 0x972 JUMP JUMPDEST PUSH1 0x40 MLOAD SWAP1 ISZERO ISZERO DUP2 MSTORE PUSH1 0x20 ADD PUSH2 0x2CA JUMP JUMPDEST CALLVALUE DUP1 ISZERO PUSH2 0x30D JUMPI PUSH0 DUP1 REVERT JUMPDEST POP PUSH2 0x321 PUSH2 0x31C CALLDATASIZE PUSH1 0x4 PUSH2 0x282B JUMP JUMPDEST PUSH2 0x98B JUMP JUMPDEST PUSH1 0x40 MLOAD PUSH2 0x2CA SWAP4 SWAP3 SWAP2 SWAP1 PUSH2 0x285C JUMP JUMPDEST CALLVALUE DUP1 ISZERO PUSH2 0x33B JUMPI PUSH0 DUP1 REVERT JUMPDEST POP PUSH1 0x4 SLOAD PUSH2 0x34F SWAP1 PUSH1 0x1 PUSH1 0x1 PUSH1 0xA0 SHL SUB AND DUP2 JUMP JUMPDEST PUSH1 0x40 MLOAD PUSH1 0x1 PUSH1 0x1 PUSH1 0xA0 SHL SUB SWAP1 SWAP2 AND DUP2 MSTORE PUSH1 0x20 ADD PUSH2 0x2CA JUMP JUMPDEST PUSH2 0x37A PUSH2 0x375 CALLDATASIZE PUSH1 0x4 PUSH2 0x294B JUMP JUMPDEST PUSH2 0xA56 JUMP JUMPDEST STOP JUMPDEST CALLVALUE DUP1 ISZERO PUSH2 0x387 JUMPI PUSH0 DUP1 REVERT JUMPDEST POP PUSH2 0x390 PUSH1 0x2 DUP2 JUMP JUMPDEST PUSH1 0x40 MLOAD PUSH2 0xFFFF SWAP1 SWAP2 AND DUP2 MSTORE PUSH1 0x20 ADD PUSH2 0x2CA JUMP JUMPDEST CALLVALUE DUP1 ISZERO PUSH2 0x3AE JUMPI PUSH0 DUP1 REVERT JUMPDEST POP PUSH2 0x37A PUSH2 0x3BD CALLDATASIZE PUSH1 0x4 PUSH2 0x29E5 JUMP JUMPDEST PUSH2 0xB16 JUMP JUMPDEST CALLVALUE DUP1 ISZERO PUSH2 0x3CD JUMPI PUSH0 DUP1 REVERT JUMPDEST POP PUSH1 0x40 DUP1 MLOAD PUSH3 0xB9270B PUSH1 0xE2 SHL DUP2 MSTORE PUSH1 0x1 PUSH1 0x20 DUP3 ADD MSTORE ADD PUSH2 0x2CA JUMP JUMPDEST CALLVALUE DUP1 ISZERO PUSH2 0x3F3 JUMPI PUSH0 DUP1 REVERT JUMPDEST POP PUSH1 0x40 DUP1 MLOAD PUSH1 0x1 DUP1 DUP3 MSTORE PUSH1 0x20 DUP3 ADD MSTORE ADD PUSH2 0x2CA JUMP JUMPDEST CALLVALUE DUP1 ISZERO PUSH2 0x413 JUMPI PUSH0 DUP1 REVERT JUMPDEST POP PUSH1 0x7 SLOAD JUMPDEST PUSH1 0x40 MLOAD SWAP1 DUP2 MSTORE PUSH1 0x20 ADD PUSH2 0x2CA JUMP JUMPDEST CALLVALUE DUP1 ISZERO PUSH2 0x431 JUMPI PUSH0 DUP1 REVERT JUMPDEST POP PUSH2 0x390 PUSH1 0x1 DUP2 JUMP JUMPDEST CALLVALUE DUP1 ISZERO PUSH2 0x445 JUMPI PUSH0 DUP1 REVERT JUMPDEST POP PUSH2 0x2F2 PUSH2 0x454 CALLDATASIZE PUSH1 0x4 PUSH2 0x2A00 JUMP JUMPDEST PUSH2 0xB91 JUMP JUMPDEST CALLVALUE DUP1 ISZERO PUSH2 0x464 JUMPI PUSH0 DUP1 REVERT JUMPDEST POP PUSH1 0x12 JUMPDEST PUSH1 0x40 MLOAD PUSH1 0xFF SWAP1 SWAP2 AND DUP2 MSTORE PUSH1 0x20 ADD PUSH2 0x2CA JUMP JUMPDEST CALLVALUE DUP1 ISZERO PUSH2 0x485 JUMPI PUSH0 DUP1 REVERT JUMPDEST POP PUSH2 0x37A PUSH2 0x494 CALLDATASIZE PUSH1 0x4 PUSH2 0x2A56 JUMP JUMPDEST PUSH2 0xBB6 JUMP JUMPDEST CALLVALUE DUP1 ISZERO PUSH2 0x4A4 JUMPI PUSH0 DUP1 REVERT JUMPDEST POP PUSH2 0x4B8 PUSH2 0x4B3 CALLDATASIZE PUSH1 0x4 PUSH2 0x2A7D JUMP JUMPDEST PUSH2 0xC13 JUMP JUMPDEST PUSH1 0x40 MLOAD PUSH2 0x2CA SWAP2 SWAP1 PUSH2 0x2ACB JUMP JUMPDEST CALLVALUE DUP1 ISZERO PUSH2 0x4D0 JUMPI PUSH0 DUP1 REVERT JUMPDEST POP PUSH2 0x37A PUSH2 0x4DF CALLDATASIZE PUSH1 0x4 PUSH2 0x2AE2 JUMP JUMPDEST PUSH2 0xC77 JUMP JUMPDEST CALLVALUE DUP1 ISZERO PUSH2 0x4EF JUMPI PUSH0 DUP1 REVERT JUMPDEST POP PUSH1 0xA SLOAD PUSH2 0x34F SWAP1 PUSH1 0x1 PUSH1 0x1 PUSH1 0xA0 SHL SUB AND DUP2 JUMP JUMPDEST CALLVALUE DUP1 ISZERO PUSH2 0x50E JUMPI PUSH0 DUP1 REVERT JUMPDEST POP ADDRESS PUSH2 0x34F JUMP JUMPDEST CALLVALUE DUP1 ISZERO PUSH2 0x520 JUMPI PUSH0 DUP1 REVERT JUMPDEST POP PUSH2 0x2BD PUSH2 0x52F CALLDATASIZE PUSH1 0x4 PUSH2 0x2B31 JUMP JUMPDEST PUSH2 0xC94 JUMP JUMPDEST CALLVALUE DUP1 ISZERO PUSH2 0x53F JUMPI PUSH0 DUP1 REVERT JUMPDEST POP PUSH2 0x2F2 PUSH2 0x54E CALLDATASIZE PUSH1 0x4 PUSH2 0x2A56 JUMP JUMPDEST PUSH4 0xFFFFFFFF SWAP2 SWAP1 SWAP2 AND PUSH0 SWAP1 DUP2 MSTORE PUSH1 0x1 PUSH1 0x20 MSTORE PUSH1 0x40 SWAP1 KECCAK256 SLOAD EQ SWAP1 JUMP JUMPDEST CALLVALUE DUP1 ISZERO PUSH2 0x574 JUMPI PUSH0 DUP1 REVERT JUMPDEST POP PUSH2 0x34F PUSH32 0x0 DUP2 JUMP JUMPDEST CALLVALUE DUP1 ISZERO PUSH2 0x5A7 JUMPI PUSH0 DUP1 REVERT JUMPDEST POP PUSH2 0x4B8 PUSH2 0x5B6 CALLDATASIZE PUSH1 0x4 PUSH2 0x2B72 JUMP JUMPDEST PUSH2 0xD36 JUMP JUMPDEST PUSH2 0x5CE PUSH2 0x5C9 CALLDATASIZE PUSH1 0x4 PUSH2 0x2BE1 JUMP JUMPDEST PUSH2 0xDC1 JUMP JUMPDEST PUSH1 0x40 MLOAD PUSH2 0x2CA SWAP3 SWAP2 SWAP1 PUSH2 0x2C50 JUMP JUMPDEST CALLVALUE DUP1 ISZERO PUSH2 0x5E7 JUMPI PUSH0 DUP1 REVERT JUMPDEST POP PUSH2 0x37A PUSH2 0x5F6 CALLDATASIZE PUSH1 0x4 PUSH2 0x29E5 JUMP JUMPDEST PUSH2 0xEDF JUMP JUMPDEST CALLVALUE DUP1 ISZERO PUSH2 0x606 JUMPI PUSH0 DUP1 REVERT JUMPDEST POP PUSH2 0x418 PUSH2 0x615 CALLDATASIZE PUSH1 0x4 PUSH2 0x29E5 JUMP JUMPDEST PUSH1 0x1 PUSH1 0x1 PUSH1 0xA0 SHL SUB AND PUSH0 SWAP1 DUP2 MSTORE PUSH1 0x5 PUSH1 0x20 MSTORE PUSH1 0x40 SWAP1 KECCAK256 SLOAD SWAP1 JUMP JUMPDEST CALLVALUE DUP1 ISZERO PUSH2 0x63A JUMPI PUSH0 DUP1 REVERT JUMPDEST POP PUSH2 0x37A PUSH2 0xF3C JUMP JUMPDEST CALLVALUE DUP1 ISZERO PUSH2 0x64E JUMPI PUSH0 DUP1 REVERT JUMPDEST POP PUSH2 0x664 PUSH2 0x65D CALLDATASIZE PUSH1 0x4 PUSH2 0x2A56 JUMP JUMPDEST PUSH0 SWAP3 SWAP2 POP POP JUMP JUMPDEST PUSH1 0x40 MLOAD PUSH1 0x1 PUSH1 0x1 PUSH1 0x40 SHL SUB SWAP1 SWAP2 AND DUP2 MSTORE PUSH1 0x20 ADD PUSH2 0x2CA JUMP JUMPDEST CALLVALUE DUP1 ISZERO PUSH2 0x687 JUMPI PUSH0 DUP1 REVERT JUMPDEST POP PUSH1 0x6 PUSH2 0x468 JUMP JUMPDEST CALLVALUE DUP1 ISZERO PUSH2 0x69A JUMPI PUSH0 DUP1 REVERT JUMPDEST POP PUSH0 SLOAD PUSH1 0x1 PUSH1 0x1 PUSH1 0xA0 SHL SUB AND PUSH2 0x34F JUMP JUMPDEST CALLVALUE DUP1 ISZERO PUSH2 0x6B6 JUMPI PUSH0 DUP1 REVERT JUMPDEST POP PUSH2 0x2BD PUSH2 0xF4F JUMP JUMPDEST CALLVALUE DUP1 ISZERO PUSH2 0x6CA JUMPI PUSH0 DUP1 REVERT JUMPDEST POP PUSH2 0x418 PUSH32 0x0 DUP2 JUMP JUMPDEST CALLVALUE DUP1 ISZERO PUSH2 0x6FD JUMPI PUSH0 DUP1 REVERT JUMPDEST POP PUSH0 PUSH2 0x2F2 JUMP JUMPDEST CALLVALUE DUP1 ISZERO PUSH2 0x70F JUMPI PUSH0 DUP1 REVERT JUMPDEST POP PUSH2 0x2F2 PUSH2 0x71E CALLDATASIZE PUSH1 0x4 PUSH2 0x27EB JUMP JUMPDEST PUSH2 0xF5E JUMP JUMPDEST CALLVALUE DUP1 ISZERO PUSH2 0x72E JUMPI PUSH0 DUP1 REVERT JUMPDEST POP PUSH1 0x2 SLOAD PUSH2 0x34F SWAP1 PUSH1 0x1 PUSH1 0x1 PUSH1 0xA0 SHL SUB AND DUP2 JUMP JUMPDEST CALLVALUE DUP1 ISZERO PUSH2 0x74D JUMPI PUSH0 DUP1 REVERT JUMPDEST POP PUSH2 0x37A PUSH2 0x75C CALLDATASIZE PUSH1 0x4 PUSH2 0x2CE1 JUMP JUMPDEST PUSH2 0xF6B JUMP JUMPDEST CALLVALUE DUP1 ISZERO PUSH2 0x76C JUMPI PUSH0 DUP1 REVERT JUMPDEST POP PUSH2 0x418 PUSH2 0x77B CALLDATASIZE PUSH1 0x4 PUSH2 0x2D13 JUMP JUMPDEST PUSH1 0x1 PUSH1 0x20 MSTORE PUSH0 SWAP1 DUP2 MSTORE PUSH1 0x40 SWAP1 KECCAK256 SLOAD DUP2 JUMP JUMPDEST CALLVALUE DUP1 ISZERO PUSH2 0x797 JUMPI PUSH0 DUP1 REVERT JUMPDEST POP PUSH2 0x2BD PUSH2 0x7A6 CALLDATASIZE PUSH1 0x4 PUSH2 0x2D2C JUMP JUMPDEST PUSH2 0x10C7 JUMP JUMPDEST PUSH2 0x37A PUSH2 0x7B9 CALLDATASIZE PUSH1 0x4 PUSH2 0x2CE1 JUMP JUMPDEST PUSH2 0x123C JUMP JUMPDEST PUSH2 0x5CE PUSH2 0x7CC CALLDATASIZE PUSH1 0x4 PUSH2 0x2D88 JUMP JUMPDEST PUSH2 0x13BC JUMP JUMPDEST CALLVALUE DUP1 ISZERO PUSH2 0x7DC JUMPI PUSH0 DUP1 REVERT JUMPDEST POP PUSH2 0x37A PUSH2 0x7EB CALLDATASIZE PUSH1 0x4 PUSH2 0x29E5 JUMP JUMPDEST PUSH2 0x14AE JUMP JUMPDEST PUSH2 0x37A PUSH2 0x7FE CALLDATASIZE PUSH1 0x4 PUSH2 0x294B JUMP JUMPDEST PUSH2 0x152F JUMP JUMPDEST CALLVALUE DUP1 ISZERO PUSH2 0x80E JUMPI PUSH0 DUP1 REVERT JUMPDEST POP PUSH2 0x37A PUSH2 0x81D CALLDATASIZE PUSH1 0x4 PUSH2 0x29E5 JUMP JUMPDEST PUSH2 0x155E JUMP JUMPDEST CALLVALUE DUP1 ISZERO PUSH2 0x82D JUMPI PUSH0 DUP1 REVERT JUMPDEST POP PUSH2 0x418 PUSH2 0x83C CALLDATASIZE PUSH1 0x4 PUSH2 0x2DDB JUMP JUMPDEST PUSH1 0x1 PUSH1 0x1 PUSH1 0xA0 SHL SUB SWAP2 DUP3 AND PUSH0 SWAP1 DUP2 MSTORE PUSH1 0x6 PUSH1 0x20 SWAP1 DUP2 MSTORE PUSH1 0x40 DUP1 DUP4 KECCAK256 SWAP4 SWAP1 SWAP5 AND DUP3 MSTORE SWAP2 SWAP1 SWAP2 MSTORE KECCAK256 SLOAD SWAP1 JUMP JUMPDEST CALLVALUE DUP1 ISZERO PUSH2 0x871 JUMPI PUSH0 DUP1 REVERT JUMPDEST POP PUSH2 0x37A PUSH2 0x880 CALLDATASIZE PUSH1 0x4 PUSH2 0x2E07 JUMP JUMPDEST PUSH2 0x15B4 JUMP JUMPDEST CALLVALUE DUP1 ISZERO PUSH2 0x890 JUMPI PUSH0 DUP1 REVERT JUMPDEST POP PUSH2 0x37A PUSH2 0x89F CALLDATASIZE PUSH1 0x4 PUSH2 0x2E07 JUMP JUMPDEST PUSH2 0x1651 JUMP JUMPDEST CALLVALUE DUP1 ISZERO PUSH2 0x8AF JUMPI PUSH0 DUP1 REVERT JUMPDEST POP PUSH2 0x37A PUSH2 0x8BE CALLDATASIZE PUSH1 0x4 PUSH2 0x29E5 JUMP JUMPDEST PUSH2 0x16AA JUMP JUMPDEST CALLVALUE DUP1 ISZERO PUSH2 0x8CE JUMPI PUSH0 DUP1 REVERT JUMPDEST POP PUSH2 0x2F2 PUSH2 0x8DD CALLDATASIZE PUSH1 0x4 PUSH2 0x2E1E JUMP JUMPDEST PUSH2 0x16E7 JUMP JUMPDEST PUSH1 0x60 PUSH1 0x8 DUP1 SLOAD PUSH2 0x8F1 SWAP1 PUSH2 0x2E38 JUMP JUMPDEST DUP1 PUSH1 0x1F ADD PUSH1 0x20 DUP1 SWAP2 DIV MUL PUSH1 0x20 ADD PUSH1 0x40 MLOAD SWAP1 DUP2 ADD PUSH1 0x40 MSTORE DUP1 SWAP3 SWAP2 SWAP1 DUP2 DUP2 MSTORE PUSH1 0x20 ADD DUP3 DUP1 SLOAD PUSH2 0x91D SWAP1 PUSH2 0x2E38 JUMP JUMPDEST DUP1 ISZERO PUSH2 0x968 JUMPI DUP1 PUSH1 0x1F LT PUSH2 0x93F JUMPI PUSH2 0x100 DUP1 DUP4 SLOAD DIV MUL DUP4 MSTORE SWAP2 PUSH1 0x20 ADD SWAP2 PUSH2 0x968 JUMP JUMPDEST DUP3 ADD SWAP2 SWAP1 PUSH0 MSTORE PUSH1 0x20 PUSH0 KECCAK256 SWAP1 JUMPDEST DUP2 SLOAD DUP2 MSTORE SWAP1 PUSH1 0x1 ADD SWAP1 PUSH1 0x20 ADD DUP1 DUP4 GT PUSH2 0x94B JUMPI DUP3 SWAP1 SUB PUSH1 0x1F AND DUP3 ADD SWAP2 JUMPDEST POP POP POP POP POP SWAP1 POP SWAP1 JUMP JUMPDEST PUSH0 CALLER PUSH2 0x97F DUP2 DUP6 DUP6 PUSH2 0x171B JUMP JUMPDEST PUSH1 0x1 SWAP2 POP POP JUMPDEST SWAP3 SWAP2 POP POP JUMP JUMPDEST PUSH1 0x40 DUP1 MLOAD DUP1 DUP3 ADD SWAP1 SWAP2 MSTORE PUSH0 DUP1 DUP3 MSTORE PUSH1 0x20 DUP3 ADD MSTORE PUSH1 0x60 PUSH2 0x9BB PUSH1 0x40 MLOAD DUP1 PUSH1 0x40 ADD PUSH1 0x40 MSTORE DUP1 PUSH0 DUP2 MSTORE PUSH1 0x20 ADD PUSH0 DUP2 MSTORE POP SWAP1 JUMP JUMPDEST PUSH1 0x40 DUP1 MLOAD DUP1 DUP3 ADD DUP3 MSTORE PUSH0 DUP1 DUP3 MSTORE PUSH1 0x1 PUSH1 0x1 PUSH1 0x40 SHL SUB PUSH1 0x20 DUP1 DUP5 ADD DUP3 SWAP1 MSTORE DUP5 MLOAD DUP4 DUP2 MSTORE SWAP1 DUP2 ADD SWAP1 SWAP5 MSTORE SWAP2 SWAP6 POP SWAP2 DUP3 PUSH2 0xA14 JUMP JUMPDEST PUSH1 0x40 DUP1 MLOAD DUP1 DUP3 ADD SWAP1 SWAP2 MSTORE PUSH0 DUP2 MSTORE PUSH1 0x60 PUSH1 0x20 DUP3 ADD MSTORE DUP2 MSTORE PUSH1 0x20 ADD SWAP1 PUSH1 0x1 SWAP1 SUB SWAP1 DUP2 PUSH2 0x9ED JUMPI SWAP1 POP JUMPDEST POP SWAP4 POP PUSH0 DUP1 PUSH2 0xA38 PUSH1 0x40 DUP10 ADD CALLDATALOAD PUSH1 0x60 DUP11 ADD CALLDATALOAD PUSH2 0xA33 PUSH1 0x20 DUP13 ADD DUP13 PUSH2 0x2D13 JUMP JUMPDEST PUSH2 0x172D JUMP JUMPDEST PUSH1 0x40 DUP1 MLOAD DUP1 DUP3 ADD SWAP1 SWAP2 MSTORE SWAP2 DUP3 MSTORE PUSH1 0x20 DUP3 ADD MSTORE SWAP7 SWAP9 SWAP6 SWAP8 POP POP POP POP POP POP JUMP JUMPDEST PUSH32 0x0 PUSH1 0x1 PUSH1 0x1 PUSH1 0xA0 SHL SUB AND CALLER EQ PUSH2 0xAA6 JUMPI PUSH1 0x40 MLOAD PUSH4 0x91AC5E4F PUSH1 0xE0 SHL DUP2 MSTORE CALLER PUSH1 0x4 DUP3 ADD MSTORE PUSH1 0x24 ADD JUMPDEST PUSH1 0x40 MLOAD DUP1 SWAP2 SUB SWAP1 REVERT JUMPDEST PUSH1 0x20 DUP8 ADD DUP1 CALLDATALOAD SWAP1 PUSH2 0xAC0 SWAP1 PUSH2 0xABB SWAP1 DUP11 PUSH2 0x2D13 JUMP JUMPDEST PUSH2 0x1770 JUMP JUMPDEST EQ PUSH2 0xAFE JUMPI PUSH2 0xAD2 PUSH1 0x20 DUP9 ADD DUP9 PUSH2 0x2D13 JUMP JUMPDEST PUSH1 0x40 MLOAD PUSH4 0x309AFAF3 PUSH1 0xE2 SHL DUP2 MSTORE PUSH4 0xFFFFFFFF SWAP1 SWAP2 AND PUSH1 0x4 DUP3 ADD MSTORE PUSH1 0x20 DUP9 ADD CALLDATALOAD PUSH1 0x24 DUP3 ADD MSTORE PUSH1 0x44 ADD PUSH2 0xA9D JUMP JUMPDEST PUSH2 0xB0D DUP8 DUP8 DUP8 DUP8 DUP8 DUP8 DUP8 PUSH2 0x17AB JUMP JUMPDEST POP POP POP POP POP POP POP JUMP JUMPDEST PUSH1 0xA SLOAD PUSH1 0x1 PUSH1 0x1 PUSH1 0xA0 SHL SUB AND ISZERO PUSH2 0xB6F JUMPI PUSH1 0x40 MLOAD PUSH3 0x461BCD PUSH1 0xE5 SHL DUP2 MSTORE PUSH1 0x20 PUSH1 0x4 DUP3 ADD MSTORE PUSH1 0x18 PUSH1 0x24 DUP3 ADD MSTORE PUSH32 0x4361707461696E20486F6F6B20616C7265616479207365740000000000000000 PUSH1 0x44 DUP3 ADD MSTORE PUSH1 0x64 ADD PUSH2 0xA9D JUMP JUMPDEST PUSH1 0xA DUP1 SLOAD PUSH1 0x1 PUSH1 0x1 PUSH1 0xA0 SHL SUB NOT AND PUSH1 0x1 PUSH1 0x1 PUSH1 0xA0 SHL SUB SWAP3 SWAP1 SWAP3 AND SWAP2 SWAP1 SWAP2 OR SWAP1 SSTORE JUMP JUMPDEST PUSH0 CALLER PUSH2 0xB9E DUP6 DUP3 DUP6 PUSH2 0x1ACD JUMP JUMPDEST PUSH2 0xBA9 DUP6 DUP6 DUP6 PUSH2 0x1B42 JUMP JUMPDEST PUSH1 0x1 SWAP2 POP POP JUMPDEST SWAP4 SWAP3 POP POP POP JUMP JUMPDEST PUSH2 0xBBE PUSH2 0x1B9F JUMP JUMPDEST PUSH4 0xFFFFFFFF DUP3 AND PUSH0 DUP2 DUP2 MSTORE PUSH1 0x1 PUSH1 0x20 SWAP1 DUP2 MSTORE PUSH1 0x40 SWAP2 DUP3 SWAP1 KECCAK256 DUP5 SWAP1 SSTORE DUP2 MLOAD SWAP3 DUP4 MSTORE DUP3 ADD DUP4 SWAP1 MSTORE PUSH32 0x238399D427B947898EDB290F5FF0F9109849B1C3BA196A42E35F00C50A54B98B SWAP2 ADD JUMPDEST PUSH1 0x40 MLOAD DUP1 SWAP2 SUB SWAP1 LOG1 POP POP JUMP JUMPDEST PUSH1 0x40 DUP1 MLOAD DUP1 DUP3 ADD SWAP1 SWAP2 MSTORE PUSH0 DUP1 DUP3 MSTORE PUSH1 0x20 DUP3 ADD MSTORE PUSH0 PUSH2 0xC41 PUSH1 0x40 DUP6 ADD CALLDATALOAD PUSH1 0x60 DUP7 ADD CALLDATALOAD PUSH2 0xA33 PUSH1 0x20 DUP9 ADD DUP9 PUSH2 0x2D13 JUMP JUMPDEST SWAP2 POP POP PUSH0 DUP1 PUSH2 0xC50 DUP7 DUP5 PUSH2 0x1BCB JUMP JUMPDEST SWAP1 SWAP3 POP SWAP1 POP PUSH2 0xC6D PUSH2 0xC65 PUSH1 0x20 DUP9 ADD DUP9 PUSH2 0x2D13 JUMP JUMPDEST DUP4 DUP4 DUP9 PUSH2 0x1CEA JUMP JUMPDEST SWAP7 SWAP6 POP POP POP POP POP POP JUMP JUMPDEST CALLER ADDRESS EQ PUSH2 0xC82 JUMPI PUSH0 DUP1 REVERT JUMPDEST PUSH2 0xC8E DUP2 DUP4 ADD DUP4 PUSH2 0x2F30 JUMP JUMPDEST POP POP POP POP JUMP JUMPDEST PUSH1 0x3 PUSH1 0x20 SWAP1 DUP2 MSTORE PUSH0 SWAP3 DUP4 MSTORE PUSH1 0x40 DUP1 DUP5 KECCAK256 SWAP1 SWAP2 MSTORE SWAP1 DUP3 MSTORE SWAP1 KECCAK256 DUP1 SLOAD PUSH2 0xCB7 SWAP1 PUSH2 0x2E38 JUMP JUMPDEST DUP1 PUSH1 0x1F ADD PUSH1 0x20 DUP1 SWAP2 DIV MUL PUSH1 0x20 ADD PUSH1 0x40 MLOAD SWAP1 DUP2 ADD PUSH1 0x40 MSTORE DUP1 SWAP3 SWAP2 SWAP1 DUP2 DUP2 MSTORE PUSH1 0x20 ADD DUP3 DUP1 SLOAD PUSH2 0xCE3 SWAP1 PUSH2 0x2E38 JUMP JUMPDEST DUP1 ISZERO PUSH2 0xD2E JUMPI DUP1 PUSH1 0x1F LT PUSH2 0xD05 JUMPI PUSH2 0x100 DUP1 DUP4 SLOAD DIV MUL DUP4 MSTORE SWAP2 PUSH1 0x20 ADD SWAP2 PUSH2 0xD2E JUMP JUMPDEST DUP3 ADD SWAP2 SWAP1 PUSH0 MSTORE PUSH1 0x20 PUSH0 KECCAK256 SWAP1 JUMPDEST DUP2 SLOAD DUP2 MSTORE SWAP1 PUSH1 0x1 ADD SWAP1 PUSH1 0x20 ADD DUP1 DUP4 GT PUSH2 0xD11 JUMPI DUP3 SWAP1 SUB PUSH1 0x1F AND DUP3 ADD SWAP2 JUMPDEST POP POP POP POP POP DUP2 JUMP JUMPDEST PUSH1 0x40 DUP1 MLOAD DUP1 DUP3 ADD SWAP1 SWAP2 MSTORE PUSH0 DUP1 DUP3 MSTORE PUSH1 0x20 DUP3 ADD MSTORE PUSH0 PUSH2 0xD64 PUSH1 0x40 DUP7 ADD CALLDATALOAD PUSH1 0x60 DUP8 ADD CALLDATALOAD PUSH2 0xA33 PUSH1 0x20 DUP10 ADD DUP10 PUSH2 0x2D13 JUMP JUMPDEST SWAP2 POP POP PUSH0 DUP1 PUSH2 0xD73 DUP8 DUP5 PUSH2 0x1BCB JUMP JUMPDEST SWAP2 POP SWAP2 POP PUSH0 DUP7 DUP4 PUSH1 0x40 MLOAD PUSH1 0x20 ADD PUSH2 0xD8B SWAP3 SWAP2 SWAP1 PUSH2 0x302D JUMP JUMPDEST PUSH1 0x40 DUP1 MLOAD PUSH1 0x1F NOT DUP2 DUP5 SUB ADD DUP2 MSTORE SWAP2 SWAP1 MSTORE SWAP1 POP PUSH2 0xDB5 PUSH2 0xDAD PUSH1 0x20 DUP11 ADD DUP11 PUSH2 0x2D13 JUMP JUMPDEST DUP3 DUP5 DUP10 PUSH2 0x1CEA JUMP JUMPDEST SWAP9 SWAP8 POP POP POP POP POP POP POP POP JUMP JUMPDEST PUSH2 0xDC9 PUSH2 0x2754 JUMP JUMPDEST PUSH1 0x40 DUP1 MLOAD DUP1 DUP3 ADD SWAP1 SWAP2 MSTORE PUSH0 DUP1 DUP3 MSTORE PUSH1 0x20 DUP3 ADD MSTORE PUSH0 DUP1 PUSH2 0xDFD PUSH1 0x40 DUP10 ADD CALLDATALOAD PUSH1 0x60 DUP11 ADD CALLDATALOAD PUSH2 0xDF8 PUSH1 0x20 DUP13 ADD DUP13 PUSH2 0x2D13 JUMP JUMPDEST PUSH2 0x1DC8 JUMP JUMPDEST SWAP2 POP SWAP2 POP PUSH0 DUP1 PUSH2 0xE0D DUP11 DUP5 PUSH2 0x1BCB JUMP JUMPDEST SWAP2 POP SWAP2 POP PUSH0 DUP8 DUP4 PUSH1 0x40 MLOAD PUSH1 0x20 ADD PUSH2 0xE25 SWAP3 SWAP2 SWAP1 PUSH2 0x302D JUMP JUMPDEST PUSH1 0x40 DUP1 MLOAD PUSH1 0x1F NOT DUP2 DUP5 SUB ADD DUP2 MSTORE SWAP2 SWAP1 MSTORE SWAP1 POP PUSH2 0xE5E PUSH2 0xE47 PUSH1 0x20 DUP14 ADD DUP14 PUSH2 0x2D13 JUMP JUMPDEST DUP3 DUP5 PUSH2 0xE58 CALLDATASIZE DUP16 SWAP1 SUB DUP16 ADD DUP16 PUSH2 0x30CD JUMP JUMPDEST DUP14 PUSH2 0x1DE4 JUMP JUMPDEST PUSH1 0x40 DUP1 MLOAD DUP1 DUP3 ADD SWAP1 SWAP2 MSTORE DUP7 DUP2 MSTORE PUSH1 0x20 DUP1 DUP3 ADD DUP8 SWAP1 MSTORE DUP3 MLOAD SWAP3 SWAP10 POP SWAP1 SWAP8 POP CALLER SWAP2 SWAP1 PUSH32 0x85496B760A4B7F8D66384B9DF21B381F5D1B1E79F229A47AAF4C232EDC2FE59A SWAP1 PUSH2 0xEAC SWAP1 DUP16 ADD DUP16 PUSH2 0x2D13 JUMP JUMPDEST PUSH1 0x40 DUP1 MLOAD PUSH4 0xFFFFFFFF SWAP1 SWAP3 AND DUP3 MSTORE PUSH1 0x20 DUP3 ADD DUP11 SWAP1 MSTORE DUP2 ADD DUP9 SWAP1 MSTORE PUSH1 0x60 ADD PUSH1 0x40 MLOAD DUP1 SWAP2 SUB SWAP1 LOG3 POP POP POP POP POP SWAP5 POP SWAP5 SWAP3 POP POP POP JUMP JUMPDEST PUSH2 0xEE7 PUSH2 0x1B9F JUMP JUMPDEST PUSH1 0x4 DUP1 SLOAD PUSH1 0x1 PUSH1 0x1 PUSH1 0xA0 SHL SUB NOT AND PUSH1 0x1 PUSH1 0x1 PUSH1 0xA0 SHL SUB DUP4 AND SWAP1 DUP2 OR SWAP1 SWAP2 SSTORE PUSH1 0x40 MLOAD SWAP1 DUP2 MSTORE PUSH32 0xF0BE4F1E87349231D80C36B33F9E8639658EEAF474014DEE15A3E6A4D4414197 SWAP1 PUSH1 0x20 ADD JUMPDEST PUSH1 0x40 MLOAD DUP1 SWAP2 SUB SWAP1 LOG1 POP JUMP JUMPDEST PUSH2 0xF44 PUSH2 0x1B9F JUMP JUMPDEST PUSH2 0xF4D PUSH0 PUSH2 0x1EEA JUMP JUMPDEST JUMP JUMPDEST PUSH1 0x60 PUSH1 0x9 DUP1 SLOAD PUSH2 0x8F1 SWAP1 PUSH2 0x2E38 JUMP JUMPDEST PUSH0 CALLER PUSH2 0x97F DUP2 DUP6 DUP6 PUSH2 0x1B42 JUMP JUMPDEST PUSH2 0xF73 PUSH2 0x1B9F JUMP JUMPDEST PUSH0 JUMPDEST DUP2 DUP2 LT ISZERO PUSH2 0x1095 JUMPI PUSH2 0xFB7 DUP4 DUP4 DUP4 DUP2 DUP2 LT PUSH2 0xF92 JUMPI PUSH2 0xF92 PUSH2 0x30FE JUMP JUMPDEST SWAP1 POP PUSH1 0x20 MUL DUP2 ADD SWAP1 PUSH2 0xFA4 SWAP2 SWAP1 PUSH2 0x3112 JUMP JUMPDEST PUSH2 0xFB2 SWAP1 PUSH1 0x40 DUP2 ADD SWAP1 PUSH2 0x3130 JUMP JUMPDEST PUSH2 0x1F39 JUMP JUMPDEST DUP3 DUP3 DUP3 DUP2 DUP2 LT PUSH2 0xFC9 JUMPI PUSH2 0xFC9 PUSH2 0x30FE JUMP JUMPDEST SWAP1 POP PUSH1 0x20 MUL DUP2 ADD SWAP1 PUSH2 0xFDB SWAP2 SWAP1 PUSH2 0x3112 JUMP JUMPDEST PUSH2 0xFE9 SWAP1 PUSH1 0x40 DUP2 ADD SWAP1 PUSH2 0x3130 JUMP JUMPDEST PUSH1 0x3 PUSH0 DUP7 DUP7 DUP7 DUP2 DUP2 LT PUSH2 0xFFE JUMPI PUSH2 0xFFE PUSH2 0x30FE JUMP JUMPDEST SWAP1 POP PUSH1 0x20 MUL DUP2 ADD SWAP1 PUSH2 0x1010 SWAP2 SWAP1 PUSH2 0x3112 JUMP JUMPDEST PUSH2 0x101E SWAP1 PUSH1 0x20 DUP2 ADD SWAP1 PUSH2 0x2D13 JUMP JUMPDEST PUSH4 0xFFFFFFFF AND PUSH4 0xFFFFFFFF AND DUP2 MSTORE PUSH1 0x20 ADD SWAP1 DUP2 MSTORE PUSH1 0x20 ADD PUSH0 KECCAK256 PUSH0 DUP7 DUP7 DUP7 DUP2 DUP2 LT PUSH2 0x104A JUMPI PUSH2 0x104A PUSH2 0x30FE JUMP JUMPDEST SWAP1 POP PUSH1 0x20 MUL DUP2 ADD SWAP1 PUSH2 0x105C SWAP2 SWAP1 PUSH2 0x3112 JUMP JUMPDEST PUSH2 0x106D SWAP1 PUSH1 0x40 DUP2 ADD SWAP1 PUSH1 0x20 ADD PUSH2 0x3172 JUMP JUMPDEST PUSH2 0xFFFF AND DUP2 MSTORE PUSH1 0x20 DUP2 ADD SWAP2 SWAP1 SWAP2 MSTORE PUSH1 0x40 ADD PUSH0 KECCAK256 SWAP2 PUSH2 0x108C SWAP2 SWAP1 DUP4 PUSH2 0x31CF JUMP JUMPDEST POP PUSH1 0x1 ADD PUSH2 0xF75 JUMP JUMPDEST POP PUSH32 0xBE4864A8E820971C0247F5992E2DA559595F7BF076A21CB5928D443D2A13B674 DUP3 DUP3 PUSH1 0x40 MLOAD PUSH2 0xC07 SWAP3 SWAP2 SWAP1 PUSH2 0x32B0 JUMP JUMPDEST PUSH4 0xFFFFFFFF DUP5 AND PUSH0 SWAP1 DUP2 MSTORE PUSH1 0x3 PUSH1 0x20 SWAP1 DUP2 MSTORE PUSH1 0x40 DUP1 DUP4 KECCAK256 PUSH2 0xFFFF DUP8 AND DUP5 MSTORE SWAP1 SWAP2 MSTORE DUP2 KECCAK256 DUP1 SLOAD PUSH1 0x60 SWAP3 SWAP2 SWAP1 PUSH2 0x10FA SWAP1 PUSH2 0x2E38 JUMP JUMPDEST DUP1 PUSH1 0x1F ADD PUSH1 0x20 DUP1 SWAP2 DIV MUL PUSH1 0x20 ADD PUSH1 0x40 MLOAD SWAP1 DUP2 ADD PUSH1 0x40 MSTORE DUP1 SWAP3 SWAP2 SWAP1 DUP2 DUP2 MSTORE PUSH1 0x20 ADD DUP3 DUP1 SLOAD PUSH2 0x1126 SWAP1 PUSH2 0x2E38 JUMP JUMPDEST DUP1 ISZERO PUSH2 0x1171 JUMPI DUP1 PUSH1 0x1F LT PUSH2 0x1148 JUMPI PUSH2 0x100 DUP1 DUP4 SLOAD DIV MUL DUP4 MSTORE SWAP2 PUSH1 0x20 ADD SWAP2 PUSH2 0x1171 JUMP JUMPDEST DUP3 ADD SWAP2 SWAP1 PUSH0 MSTORE PUSH1 0x20 PUSH0 KECCAK256 SWAP1 JUMPDEST DUP2 SLOAD DUP2 MSTORE SWAP1 PUSH1 0x1 ADD SWAP1 PUSH1 0x20 ADD DUP1 DUP4 GT PUSH2 0x1154 JUMPI DUP3 SWAP1 SUB PUSH1 0x1F AND DUP3 ADD SWAP2 JUMPDEST POP POP POP POP POP SWAP1 POP DUP1 MLOAD PUSH0 SUB PUSH2 0x11BF JUMPI DUP4 DUP4 DUP1 DUP1 PUSH1 0x1F ADD PUSH1 0x20 DUP1 SWAP2 DIV MUL PUSH1 0x20 ADD PUSH1 0x40 MLOAD SWAP1 DUP2 ADD PUSH1 0x40 MSTORE DUP1 SWAP4 SWAP3 SWAP2 SWAP1 DUP2 DUP2 MSTORE PUSH1 0x20 ADD DUP4 DUP4 DUP1 DUP3 DUP5 CALLDATACOPY PUSH0 SWAP3 ADD SWAP2 SWAP1 SWAP2 MSTORE POP SWAP3 SWAP5 POP PUSH2 0x1234 SWAP4 POP POP POP POP JUMP JUMPDEST PUSH0 DUP4 SWAP1 SUB PUSH2 0x11CE JUMPI SWAP1 POP PUSH2 0x1234 JUMP JUMPDEST PUSH1 0x2 DUP4 LT PUSH2 0x1217 JUMPI PUSH2 0x11E0 DUP5 DUP5 PUSH2 0x1F39 JUMP JUMPDEST DUP1 PUSH2 0x11EE DUP5 PUSH1 0x2 DUP2 DUP9 PUSH2 0x3395 JUMP JUMPDEST PUSH1 0x40 MLOAD PUSH1 0x20 ADD PUSH2 0x1200 SWAP4 SWAP3 SWAP2 SWAP1 PUSH2 0x33D3 JUMP JUMPDEST PUSH1 0x40 MLOAD PUSH1 0x20 DUP2 DUP4 SUB SUB DUP2 MSTORE SWAP1 PUSH1 0x40 MSTORE SWAP2 POP POP PUSH2 0x1234 JUMP JUMPDEST DUP4 DUP4 PUSH1 0x40 MLOAD PUSH4 0x9A6D49CD PUSH1 0xE0 SHL DUP2 MSTORE PUSH1 0x4 ADD PUSH2 0xA9D SWAP3 SWAP2 SWAP1 PUSH2 0x33F1 JUMP JUMPDEST SWAP5 SWAP4 POP POP POP POP JUMP JUMPDEST PUSH0 JUMPDEST DUP2 DUP2 LT ISZERO PUSH2 0x133F JUMPI CALLDATASIZE DUP4 DUP4 DUP4 DUP2 DUP2 LT PUSH2 0x1259 JUMPI PUSH2 0x1259 PUSH2 0x30FE JUMP JUMPDEST SWAP1 POP PUSH1 0x20 MUL DUP2 ADD SWAP1 PUSH2 0x126B SWAP2 SWAP1 PUSH2 0x3404 JUMP JUMPDEST SWAP1 POP PUSH2 0x129D PUSH2 0x127D PUSH1 0x20 DUP4 ADD DUP4 PUSH2 0x2D13 JUMP JUMPDEST PUSH1 0x20 DUP4 ADD CALLDATALOAD PUSH4 0xFFFFFFFF SWAP2 SWAP1 SWAP2 AND PUSH0 SWAP1 DUP2 MSTORE PUSH1 0x1 PUSH1 0x20 MSTORE PUSH1 0x40 SWAP1 KECCAK256 SLOAD EQ SWAP1 JUMP JUMPDEST PUSH2 0x12A7 JUMPI POP PUSH2 0x1337 JUMP JUMPDEST ADDRESS PUSH4 0xD045A0DC PUSH1 0xC0 DUP4 ADD CALLDATALOAD DUP4 PUSH1 0xA0 DUP2 ADD CALLDATALOAD PUSH2 0x12C6 PUSH2 0x100 DUP4 ADD DUP4 PUSH2 0x3130 JUMP JUMPDEST PUSH2 0x12D7 PUSH2 0x100 DUP10 ADD PUSH1 0xE0 DUP11 ADD PUSH2 0x29E5 JUMP JUMPDEST PUSH2 0x12E5 PUSH2 0x120 DUP11 ADD DUP11 PUSH2 0x3130 JUMP JUMPDEST PUSH1 0x40 MLOAD DUP10 PUSH4 0xFFFFFFFF AND PUSH1 0xE0 SHL DUP2 MSTORE PUSH1 0x4 ADD PUSH2 0x1307 SWAP8 SWAP7 SWAP6 SWAP5 SWAP4 SWAP3 SWAP2 SWAP1 PUSH2 0x342D JUMP JUMPDEST PUSH0 PUSH1 0x40 MLOAD DUP1 DUP4 SUB DUP2 DUP6 DUP9 DUP1 EXTCODESIZE ISZERO DUP1 ISZERO PUSH2 0x131E JUMPI PUSH0 DUP1 REVERT JUMPDEST POP GAS CALL ISZERO DUP1 ISZERO PUSH2 0x1330 JUMPI RETURNDATASIZE PUSH0 DUP1 RETURNDATACOPY RETURNDATASIZE PUSH0 REVERT JUMPDEST POP POP POP POP POP POP JUMPDEST PUSH1 0x1 ADD PUSH2 0x123E JUMP JUMPDEST POP CALLER PUSH1 0x1 PUSH1 0x1 PUSH1 0xA0 SHL SUB AND PUSH4 0x8E9E7099 PUSH1 0x40 MLOAD DUP2 PUSH4 0xFFFFFFFF AND PUSH1 0xE0 SHL DUP2 MSTORE PUSH1 0x4 ADD PUSH0 PUSH1 0x40 MLOAD DUP1 DUP4 SUB DUP2 DUP7 GAS STATICCALL ISZERO DUP1 ISZERO PUSH2 0x137B JUMPI RETURNDATASIZE PUSH0 DUP1 RETURNDATACOPY RETURNDATASIZE PUSH0 REVERT JUMPDEST POP POP POP POP PUSH1 0x40 MLOAD RETURNDATASIZE PUSH0 DUP3 RETURNDATACOPY PUSH1 0x1F RETURNDATASIZE SWAP1 DUP2 ADD PUSH1 0x1F NOT AND DUP3 ADD PUSH1 0x40 MSTORE PUSH2 0x13A2 SWAP2 SWAP1 DUP2 ADD SWAP1 PUSH2 0x34B2 JUMP JUMPDEST PUSH1 0x40 MLOAD PUSH4 0x8351EEA7 PUSH1 0xE0 SHL DUP2 MSTORE PUSH1 0x4 ADD PUSH2 0xA9D SWAP2 SWAP1 PUSH2 0x27C5 JUMP JUMPDEST PUSH2 0x13C4 PUSH2 0x2754 JUMP JUMPDEST PUSH1 0x40 DUP1 MLOAD DUP1 DUP3 ADD SWAP1 SWAP2 MSTORE PUSH0 DUP1 DUP3 MSTORE PUSH1 0x20 DUP3 ADD MSTORE PUSH0 DUP1 PUSH2 0x13F3 PUSH1 0x40 DUP9 ADD CALLDATALOAD PUSH1 0x60 DUP10 ADD CALLDATALOAD PUSH2 0xDF8 PUSH1 0x20 DUP12 ADD DUP12 PUSH2 0x2D13 JUMP JUMPDEST SWAP2 POP SWAP2 POP PUSH0 DUP1 PUSH2 0x1403 DUP10 DUP5 PUSH2 0x1BCB JUMP JUMPDEST SWAP1 SWAP3 POP SWAP1 POP PUSH2 0x142F PUSH2 0x1418 PUSH1 0x20 DUP12 ADD DUP12 PUSH2 0x2D13 JUMP JUMPDEST DUP4 DUP4 PUSH2 0x1429 CALLDATASIZE DUP14 SWAP1 SUB DUP14 ADD DUP14 PUSH2 0x30CD JUMP JUMPDEST DUP12 PUSH2 0x1DE4 JUMP JUMPDEST PUSH1 0x40 DUP1 MLOAD DUP1 DUP3 ADD SWAP1 SWAP2 MSTORE DUP6 DUP2 MSTORE PUSH1 0x20 DUP1 DUP3 ADD DUP7 SWAP1 MSTORE DUP3 MLOAD SWAP3 SWAP9 POP SWAP1 SWAP7 POP CALLER SWAP2 SWAP1 PUSH32 0x85496B760A4B7F8D66384B9DF21B381F5D1B1E79F229A47AAF4C232EDC2FE59A SWAP1 PUSH2 0x147D SWAP1 DUP14 ADD DUP14 PUSH2 0x2D13 JUMP JUMPDEST PUSH1 0x40 DUP1 MLOAD PUSH4 0xFFFFFFFF SWAP1 SWAP3 AND DUP3 MSTORE PUSH1 0x20 DUP3 ADD DUP10 SWAP1 MSTORE DUP2 ADD DUP8 SWAP1 MSTORE PUSH1 0x60 ADD PUSH1 0x40 MLOAD DUP1 SWAP2 SUB SWAP1 LOG3 POP POP POP POP SWAP4 POP SWAP4 SWAP2 POP POP JUMP JUMPDEST PUSH2 0x14B6 PUSH2 0x1B9F JUMP JUMPDEST PUSH1 0x40 MLOAD PUSH4 0xCA5EB5E1 PUSH1 0xE0 SHL DUP2 MSTORE PUSH1 0x1 PUSH1 0x1 PUSH1 0xA0 SHL SUB DUP3 DUP2 AND PUSH1 0x4 DUP4 ADD MSTORE PUSH32 0x0 AND SWAP1 PUSH4 0xCA5EB5E1 SWAP1 PUSH1 0x24 ADD PUSH0 PUSH1 0x40 MLOAD DUP1 DUP4 SUB DUP2 PUSH0 DUP8 DUP1 EXTCODESIZE ISZERO DUP1 ISZERO PUSH2 0x1516 JUMPI PUSH0 DUP1 REVERT JUMPDEST POP GAS CALL ISZERO DUP1 ISZERO PUSH2 0x1528 JUMPI RETURNDATASIZE PUSH0 DUP1 RETURNDATACOPY RETURNDATASIZE PUSH0 REVERT JUMPDEST POP POP POP POP POP JUMP JUMPDEST CALLER ADDRESS EQ PUSH2 0x154F JUMPI PUSH1 0x40 MLOAD PUSH4 0x29A949D PUSH1 0xE3 SHL DUP2 MSTORE PUSH1 0x4 ADD PUSH1 0x40 MLOAD DUP1 SWAP2 SUB SWAP1 REVERT JUMPDEST PUSH2 0xB0D DUP8 DUP8 DUP8 DUP8 DUP8 DUP8 DUP8 PUSH2 0xAFE JUMP JUMPDEST PUSH2 0x1566 PUSH2 0x1B9F JUMP JUMPDEST PUSH1 0x2 DUP1 SLOAD PUSH1 0x1 PUSH1 0x1 PUSH1 0xA0 SHL SUB NOT AND PUSH1 0x1 PUSH1 0x1 PUSH1 0xA0 SHL SUB DUP4 AND SWAP1 DUP2 OR SWAP1 SWAP2 SSTORE PUSH1 0x40 MLOAD SWAP1 DUP2 MSTORE PUSH32 0xD48D879CEF83A1C0BDDA516F27B13DDB1B3F8BBAC1C9E1511BB2A659C2427760 SWAP1 PUSH1 0x20 ADD PUSH2 0xF31 JUMP JUMPDEST PUSH2 0x15BE CALLER DUP3 PUSH2 0x1F7A JUMP JUMPDEST PUSH1 0x40 MLOAD PUSH4 0xA9059CBB PUSH1 0xE0 SHL DUP2 MSTORE CALLER PUSH1 0x4 DUP3 ADD MSTORE PUSH1 0x24 DUP2 ADD DUP3 SWAP1 MSTORE PUSH32 0x0 PUSH1 0x1 PUSH1 0x1 PUSH1 0xA0 SHL SUB AND SWAP1 PUSH4 0xA9059CBB SWAP1 PUSH1 0x44 ADD JUMPDEST PUSH1 0x20 PUSH1 0x40 MLOAD DUP1 DUP4 SUB DUP2 PUSH0 DUP8 GAS CALL ISZERO DUP1 ISZERO PUSH2 0x1629 JUMPI RETURNDATASIZE PUSH0 DUP1 RETURNDATACOPY RETURNDATASIZE PUSH0 REVERT JUMPDEST POP POP POP POP PUSH1 0x40 MLOAD RETURNDATASIZE PUSH1 0x1F NOT PUSH1 0x1F DUP3 ADD AND DUP3 ADD DUP1 PUSH1 0x40 MSTORE POP DUP2 ADD SWAP1 PUSH2 0x164D SWAP2 SWAP1 PUSH2 0x3526 JUMP JUMPDEST POP POP JUMP JUMPDEST PUSH1 0x40 MLOAD PUSH4 0x23B872DD PUSH1 0xE0 SHL DUP2 MSTORE CALLER PUSH1 0x4 DUP3 ADD MSTORE ADDRESS PUSH1 0x24 DUP3 ADD MSTORE PUSH1 0x44 DUP2 ADD DUP3 SWAP1 MSTORE PUSH32 0x0 PUSH1 0x1 PUSH1 0x1 PUSH1 0xA0 SHL SUB AND SWAP1 PUSH4 0x23B872DD SWAP1 PUSH1 0x64 ADD PUSH2 0x160D JUMP JUMPDEST PUSH2 0x16B2 PUSH2 0x1B9F JUMP JUMPDEST PUSH1 0x1 PUSH1 0x1 PUSH1 0xA0 SHL SUB DUP2 AND PUSH2 0x16DB JUMPI PUSH1 0x40 MLOAD PUSH4 0x1E4FBDF7 PUSH1 0xE0 SHL DUP2 MSTORE PUSH0 PUSH1 0x4 DUP3 ADD MSTORE PUSH1 0x24 ADD PUSH2 0xA9D JUMP JUMPDEST PUSH2 0x16E4 DUP2 PUSH2 0x1EEA JUMP JUMPDEST POP JUMP JUMPDEST PUSH0 PUSH1 0x20 DUP3 ADD DUP1 CALLDATALOAD SWAP1 PUSH1 0x1 SWAP1 DUP4 SWAP1 PUSH2 0x16FE SWAP1 DUP7 PUSH2 0x2D13 JUMP JUMPDEST PUSH4 0xFFFFFFFF AND DUP2 MSTORE PUSH1 0x20 DUP2 ADD SWAP2 SWAP1 SWAP2 MSTORE PUSH1 0x40 ADD PUSH0 KECCAK256 SLOAD EQ SWAP3 SWAP2 POP POP JUMP JUMPDEST PUSH2 0x1728 DUP4 DUP4 DUP4 PUSH1 0x1 PUSH2 0x1FAE JUMP JUMPDEST POP POP POP JUMP JUMPDEST PUSH0 DUP1 PUSH2 0x1738 DUP6 PUSH2 0x2080 JUMP JUMPDEST SWAP2 POP DUP2 SWAP1 POP DUP4 DUP2 LT ISZERO PUSH2 0x1768 JUMPI PUSH1 0x40 MLOAD PUSH4 0x71C4EFED PUSH1 0xE0 SHL DUP2 MSTORE PUSH1 0x4 DUP2 ADD DUP3 SWAP1 MSTORE PUSH1 0x24 DUP2 ADD DUP6 SWAP1 MSTORE PUSH1 0x44 ADD PUSH2 0xA9D JUMP JUMPDEST SWAP4 POP SWAP4 SWAP2 POP POP JUMP JUMPDEST PUSH4 0xFFFFFFFF DUP2 AND PUSH0 SWAP1 DUP2 MSTORE PUSH1 0x1 PUSH1 0x20 MSTORE PUSH1 0x40 DUP2 KECCAK256 SLOAD DUP1 PUSH2 0x985 JUMPI PUSH1 0x40 MLOAD PUSH4 0xF6FF4FB7 PUSH1 0xE0 SHL DUP2 MSTORE PUSH4 0xFFFFFFFF DUP5 AND PUSH1 0x4 DUP3 ADD MSTORE PUSH1 0x24 ADD PUSH2 0xA9D JUMP JUMPDEST PUSH0 DUP1 PUSH0 PUSH1 0x60 ADDRESS PUSH1 0x1 PUSH1 0x1 PUSH1 0xA0 SHL SUB AND PUSH4 0x416FC591 DUP11 DUP11 PUSH1 0x40 MLOAD DUP4 PUSH4 0xFFFFFFFF AND PUSH1 0xE0 SHL DUP2 MSTORE PUSH1 0x4 ADD PUSH2 0x17DE SWAP3 SWAP2 SWAP1 PUSH2 0x33F1 JUMP JUMPDEST PUSH0 PUSH1 0x40 MLOAD DUP1 DUP4 SUB DUP2 DUP7 DUP1 EXTCODESIZE ISZERO DUP1 ISZERO PUSH2 0x17F4 JUMPI PUSH0 DUP1 REVERT JUMPDEST POP GAS STATICCALL SWAP3 POP POP POP DUP1 ISZERO PUSH2 0x1805 JUMPI POP PUSH1 0x1 JUMPDEST PUSH2 0x183E JUMPI RETURNDATASIZE DUP1 DUP1 ISZERO PUSH2 0x1832 JUMPI PUSH1 0x40 MLOAD SWAP2 POP PUSH1 0x1F NOT PUSH1 0x3F RETURNDATASIZE ADD AND DUP3 ADD PUSH1 0x40 MSTORE RETURNDATASIZE DUP3 MSTORE RETURNDATASIZE PUSH0 PUSH1 0x20 DUP5 ADD RETURNDATACOPY PUSH2 0x1837 JUMP JUMPDEST PUSH1 0x60 SWAP2 POP JUMPDEST POP POP PUSH2 0x1843 JUMP JUMPDEST PUSH1 0x1 SWAP4 POP JUMPDEST DUP4 ISZERO PUSH2 0x1943 JUMPI PUSH0 DUP1 PUSH2 0x1857 DUP11 DUP13 ADD DUP13 PUSH2 0x2F30 JUMP JUMPDEST SWAP2 POP SWAP2 POP PUSH2 0x186A PUSH2 0x1867 DUP4 PUSH2 0x20B6 JUMP JUMPDEST SWAP1 JUMP JUMPDEST SWAP5 POP PUSH2 0x1898 DUP6 PUSH2 0x1881 PUSH2 0x187C DUP6 PUSH2 0x20E1 JUMP JUMPDEST PUSH2 0x210C JUMP JUMPDEST DUP16 PUSH0 ADD PUSH1 0x20 DUP2 ADD SWAP1 PUSH2 0x1893 SWAP2 SWAP1 PUSH2 0x2D13 JUMP JUMPDEST PUSH2 0x2140 JUMP JUMPDEST PUSH1 0xA SLOAD PUSH1 0x40 DUP1 MLOAD PUSH4 0xD5969143 PUSH1 0xE0 SHL DUP2 MSTORE DUP5 MLOAD PUSH1 0x1 PUSH1 0x1 PUSH1 0xA0 SHL SUB SWAP1 DUP2 AND PUSH1 0x4 DUP4 ADD MSTORE PUSH1 0x20 DUP7 ADD MLOAD DUP2 AND PUSH1 0x24 DUP4 ADD MSTORE SWAP2 DUP6 ADD MLOAD DUP3 AND PUSH1 0x44 DUP3 ADD MSTORE PUSH1 0x60 DUP6 ADD MLOAD DUP3 AND PUSH1 0x64 DUP3 ADD MSTORE PUSH1 0x80 DUP6 ADD MLOAD PUSH3 0xFFFFFF AND PUSH1 0x84 DUP3 ADD MSTORE PUSH1 0xA0 DUP6 ADD MLOAD PUSH1 0xA4 DUP3 ADD MSTORE PUSH1 0xC4 DUP2 ADD DUP5 SWAP1 MSTORE SWAP3 SWAP7 POP AND SWAP1 PUSH4 0xD5969143 SWAP1 PUSH1 0xE4 ADD PUSH0 PUSH1 0x40 MLOAD DUP1 DUP4 SUB DUP2 PUSH0 DUP8 DUP1 EXTCODESIZE ISZERO DUP1 ISZERO PUSH2 0x1923 JUMPI PUSH0 DUP1 REVERT JUMPDEST POP GAS CALL ISZERO DUP1 ISZERO PUSH2 0x1935 JUMPI RETURNDATASIZE PUSH0 DUP1 RETURNDATACOPY RETURNDATASIZE PUSH0 REVERT JUMPDEST POP POP POP POP DUP2 SWAP3 POP POP POP PUSH2 0x19AB JUMP JUMPDEST PUSH2 0x1950 PUSH2 0x1867 DUP11 DUP11 PUSH2 0x2153 JUMP JUMPDEST SWAP3 POP PUSH2 0x1970 DUP4 PUSH2 0x1963 PUSH2 0x187C DUP13 DUP13 PUSH2 0x216A JUMP JUMPDEST PUSH2 0x1893 PUSH1 0x20 DUP16 ADD DUP16 PUSH2 0x2D13 JUMP JUMPDEST SWAP2 POP DUP9 DUP9 DUP1 DUP1 PUSH1 0x1F ADD PUSH1 0x20 DUP1 SWAP2 DIV MUL PUSH1 0x20 ADD PUSH1 0x40 MLOAD SWAP1 DUP2 ADD PUSH1 0x40 MSTORE DUP1 SWAP4 SWAP3 SWAP2 SWAP1 DUP2 DUP2 MSTORE PUSH1 0x20 ADD DUP4 DUP4 DUP1 DUP3 DUP5 CALLDATACOPY PUSH0 SWAP3 ADD SWAP2 SWAP1 SWAP2 MSTORE POP SWAP3 SWAP4 POP POP POP POP JUMPDEST DUP1 MLOAD PUSH1 0x28 LT ISZERO PUSH2 0x1A69 JUMPI PUSH0 PUSH2 0x19E5 PUSH2 0x19C9 PUSH1 0x60 DUP15 ADD PUSH1 0x40 DUP16 ADD PUSH2 0x3541 JUMP JUMPDEST PUSH2 0x19D6 PUSH1 0x20 DUP16 ADD DUP16 PUSH2 0x2D13 JUMP JUMPDEST DUP6 PUSH2 0x19E0 DUP7 PUSH2 0x218C JUMP JUMPDEST PUSH2 0x2278 JUMP JUMPDEST PUSH1 0x40 MLOAD PUSH4 0x3E5AC809 PUSH1 0xE1 SHL DUP2 MSTORE SWAP1 SWAP2 POP PUSH1 0x1 PUSH1 0x1 PUSH1 0xA0 SHL SUB PUSH32 0x0 AND SWAP1 PUSH4 0x7CB59012 SWAP1 PUSH2 0x1A3A SWAP1 DUP8 SWAP1 DUP16 SWAP1 PUSH0 SWAP1 DUP8 SWAP1 PUSH1 0x4 ADD PUSH2 0x355C JUMP JUMPDEST PUSH0 PUSH1 0x40 MLOAD DUP1 DUP4 SUB DUP2 PUSH0 DUP8 DUP1 EXTCODESIZE ISZERO DUP1 ISZERO PUSH2 0x1A51 JUMPI PUSH0 DUP1 REVERT JUMPDEST POP GAS CALL ISZERO DUP1 ISZERO PUSH2 0x1A63 JUMPI RETURNDATASIZE PUSH0 DUP1 RETURNDATACOPY RETURNDATASIZE PUSH0 REVERT JUMPDEST POP POP POP POP POP JUMPDEST PUSH1 0x1 PUSH1 0x1 PUSH1 0xA0 SHL SUB DUP4 AND DUP11 PUSH32 0xEFED6D3500546B29533B128A29E3A94D70788727F0507505AC12EAF2E578FD9C PUSH2 0x1AA2 PUSH1 0x20 DUP16 ADD DUP16 PUSH2 0x2D13 JUMP JUMPDEST PUSH1 0x40 DUP1 MLOAD PUSH4 0xFFFFFFFF SWAP1 SWAP3 AND DUP3 MSTORE PUSH1 0x20 DUP3 ADD DUP8 SWAP1 MSTORE ADD PUSH1 0x40 MLOAD DUP1 SWAP2 SUB SWAP1 LOG3 POP POP POP POP POP POP POP POP POP POP POP JUMP JUMPDEST PUSH1 0x1 PUSH1 0x1 PUSH1 0xA0 SHL SUB DUP4 DUP2 AND PUSH0 SWAP1 DUP2 MSTORE PUSH1 0x6 PUSH1 0x20 SWAP1 DUP2 MSTORE PUSH1 0x40 DUP1 DUP4 KECCAK256 SWAP4 DUP7 AND DUP4 MSTORE SWAP3 SWAP1 MSTORE KECCAK256 SLOAD PUSH0 NOT DUP2 EQ PUSH2 0xC8E JUMPI DUP2 DUP2 LT ISZERO PUSH2 0x1B34 JUMPI PUSH1 0x40 MLOAD PUSH4 0x7DC7A0D9 PUSH1 0xE1 SHL DUP2 MSTORE PUSH1 0x1 PUSH1 0x1 PUSH1 0xA0 SHL SUB DUP5 AND PUSH1 0x4 DUP3 ADD MSTORE PUSH1 0x24 DUP2 ADD DUP3 SWAP1 MSTORE PUSH1 0x44 DUP2 ADD DUP4 SWAP1 MSTORE PUSH1 0x64 ADD PUSH2 0xA9D JUMP JUMPDEST PUSH2 0xC8E DUP5 DUP5 DUP5 DUP5 SUB PUSH0 PUSH2 0x1FAE JUMP JUMPDEST PUSH1 0x1 PUSH1 0x1 PUSH1 0xA0 SHL SUB DUP4 AND PUSH2 0x1B6B JUMPI PUSH1 0x40 MLOAD PUSH4 0x4B637E8F PUSH1 0xE1 SHL DUP2 MSTORE PUSH0 PUSH1 0x4 DUP3 ADD MSTORE PUSH1 0x24 ADD PUSH2 0xA9D JUMP JUMPDEST PUSH1 0x1 PUSH1 0x1 PUSH1 0xA0 SHL SUB DUP3 AND PUSH2 0x1B94 JUMPI PUSH1 0x40 MLOAD PUSH4 0xEC442F05 PUSH1 0xE0 SHL DUP2 MSTORE PUSH0 PUSH1 0x4 DUP3 ADD MSTORE PUSH1 0x24 ADD PUSH2 0xA9D JUMP JUMPDEST PUSH2 0x1728 DUP4 DUP4 DUP4 PUSH2 0x22AA JUMP JUMPDEST PUSH0 SLOAD PUSH1 0x1 PUSH1 0x1 PUSH1 0xA0 SHL SUB AND CALLER EQ PUSH2 0xF4D JUMPI PUSH1 0x40 MLOAD PUSH4 0x118CDAA7 PUSH1 0xE0 SHL DUP2 MSTORE CALLER PUSH1 0x4 DUP3 ADD MSTORE PUSH1 0x24 ADD PUSH2 0xA9D JUMP JUMPDEST PUSH1 0x60 DUP1 PUSH0 PUSH2 0x1C26 DUP6 PUSH1 0x20 ADD CALLDATALOAD PUSH2 0x1BE0 DUP7 PUSH2 0x23D0 JUMP JUMPDEST PUSH2 0x1BED PUSH1 0xA0 DUP10 ADD DUP10 PUSH2 0x3130 JUMP JUMPDEST DUP1 DUP1 PUSH1 0x1F ADD PUSH1 0x20 DUP1 SWAP2 DIV MUL PUSH1 0x20 ADD PUSH1 0x40 MLOAD SWAP1 DUP2 ADD PUSH1 0x40 MSTORE DUP1 SWAP4 SWAP3 SWAP2 SWAP1 DUP2 DUP2 MSTORE PUSH1 0x20 ADD DUP4 DUP4 DUP1 DUP3 DUP5 CALLDATACOPY PUSH0 SWAP3 ADD SWAP2 SWAP1 SWAP2 MSTORE POP PUSH2 0x23FB SWAP3 POP POP POP JUMP JUMPDEST SWAP1 SWAP4 POP SWAP1 POP PUSH0 DUP2 PUSH2 0x1C38 JUMPI PUSH1 0x1 PUSH2 0x1C3B JUMP JUMPDEST PUSH1 0x2 JUMPDEST SWAP1 POP PUSH2 0x1C5B PUSH2 0x1C4D PUSH1 0x20 DUP9 ADD DUP9 PUSH2 0x2D13 JUMP JUMPDEST DUP3 PUSH2 0x7A6 PUSH1 0x80 DUP11 ADD DUP11 PUSH2 0x3130 JUMP JUMPDEST PUSH1 0x4 SLOAD SWAP1 SWAP4 POP PUSH1 0x1 PUSH1 0x1 PUSH1 0xA0 SHL SUB AND ISZERO PUSH2 0x1CE1 JUMPI PUSH1 0x4 DUP1 SLOAD PUSH1 0x40 MLOAD PUSH4 0x43A78EB PUSH1 0xE0 SHL DUP2 MSTORE PUSH1 0x1 PUSH1 0x1 PUSH1 0xA0 SHL SUB SWAP1 SWAP2 AND SWAP2 PUSH4 0x43A78EB SWAP2 PUSH2 0x1CA0 SWAP2 DUP9 SWAP2 DUP9 SWAP2 ADD PUSH2 0x358C JUMP JUMPDEST PUSH1 0x20 PUSH1 0x40 MLOAD DUP1 DUP4 SUB DUP2 DUP7 GAS STATICCALL ISZERO DUP1 ISZERO PUSH2 0x1CBB JUMPI RETURNDATASIZE PUSH0 DUP1 RETURNDATACOPY RETURNDATASIZE PUSH0 REVERT JUMPDEST POP POP POP POP PUSH1 0x40 MLOAD RETURNDATASIZE PUSH1 0x1F NOT PUSH1 0x1F DUP3 ADD AND DUP3 ADD DUP1 PUSH1 0x40 MSTORE POP DUP2 ADD SWAP1 PUSH2 0x1CDF SWAP2 SWAP1 PUSH2 0x3526 JUMP JUMPDEST POP JUMPDEST POP POP SWAP3 POP SWAP3 SWAP1 POP JUMP JUMPDEST PUSH1 0x40 DUP1 MLOAD DUP1 DUP3 ADD SWAP1 SWAP2 MSTORE PUSH0 DUP1 DUP3 MSTORE PUSH1 0x20 DUP3 ADD MSTORE PUSH32 0x0 PUSH1 0x1 PUSH1 0x1 PUSH1 0xA0 SHL SUB AND PUSH4 0xDDC28C58 PUSH1 0x40 MLOAD DUP1 PUSH1 0xA0 ADD PUSH1 0x40 MSTORE DUP1 DUP9 PUSH4 0xFFFFFFFF AND DUP2 MSTORE PUSH1 0x20 ADD PUSH2 0x1D4C DUP10 PUSH2 0x1770 JUMP JUMPDEST DUP2 MSTORE PUSH1 0x20 ADD DUP8 DUP2 MSTORE PUSH1 0x20 ADD DUP7 DUP2 MSTORE PUSH1 0x20 ADD DUP6 ISZERO ISZERO DUP2 MSTORE POP ADDRESS PUSH1 0x40 MLOAD DUP4 PUSH4 0xFFFFFFFF AND PUSH1 0xE0 SHL DUP2 MSTORE PUSH1 0x4 ADD PUSH2 0x1D81 SWAP3 SWAP2 SWAP1 PUSH2 0x35B0 JUMP JUMPDEST PUSH1 0x40 DUP1 MLOAD DUP1 DUP4 SUB DUP2 DUP7 GAS STATICCALL ISZERO DUP1 ISZERO PUSH2 0x1D9B JUMPI RETURNDATASIZE PUSH0 DUP1 RETURNDATACOPY RETURNDATASIZE PUSH0 REVERT JUMPDEST POP POP POP POP PUSH1 0x40 MLOAD RETURNDATASIZE PUSH1 0x1F NOT PUSH1 0x1F DUP3 ADD AND DUP3 ADD DUP1 PUSH1 0x40 MSTORE POP DUP2 ADD SWAP1 PUSH2 0x1DBF SWAP2 SWAP1 PUSH2 0x3657 JUMP JUMPDEST SWAP6 SWAP5 POP POP POP POP POP JUMP JUMPDEST PUSH0 DUP1 PUSH2 0x1DD5 DUP6 DUP6 DUP6 PUSH2 0x172D JUMP JUMPDEST SWAP1 SWAP3 POP SWAP1 POP PUSH2 0x1768 CALLER DUP4 PUSH2 0x1F7A JUMP JUMPDEST PUSH2 0x1DEC PUSH2 0x2754 JUMP JUMPDEST PUSH0 PUSH2 0x1DF9 DUP5 PUSH0 ADD MLOAD PUSH2 0x2475 JUMP JUMPDEST PUSH1 0x20 DUP6 ADD MLOAD SWAP1 SWAP2 POP ISZERO PUSH2 0x1E13 JUMPI PUSH2 0x1E13 DUP5 PUSH1 0x20 ADD MLOAD PUSH2 0x249C JUMP JUMPDEST PUSH32 0x0 PUSH1 0x1 PUSH1 0x1 PUSH1 0xA0 SHL SUB AND PUSH4 0x2637A450 DUP3 PUSH1 0x40 MLOAD DUP1 PUSH1 0xA0 ADD PUSH1 0x40 MSTORE DUP1 DUP12 PUSH4 0xFFFFFFFF AND DUP2 MSTORE PUSH1 0x20 ADD PUSH2 0x1E63 DUP13 PUSH2 0x1770 JUMP JUMPDEST DUP2 MSTORE PUSH1 0x20 ADD DUP11 DUP2 MSTORE PUSH1 0x20 ADD DUP10 DUP2 MSTORE PUSH1 0x20 ADD PUSH0 DUP10 PUSH1 0x20 ADD MLOAD GT ISZERO ISZERO DUP2 MSTORE POP DUP7 PUSH1 0x40 MLOAD DUP5 PUSH4 0xFFFFFFFF AND PUSH1 0xE0 SHL DUP2 MSTORE PUSH1 0x4 ADD PUSH2 0x1E9E SWAP3 SWAP2 SWAP1 PUSH2 0x35B0 JUMP JUMPDEST PUSH1 0x80 PUSH1 0x40 MLOAD DUP1 DUP4 SUB DUP2 DUP6 DUP9 GAS CALL ISZERO DUP1 ISZERO PUSH2 0x1EBA JUMPI RETURNDATASIZE PUSH0 DUP1 RETURNDATACOPY RETURNDATASIZE PUSH0 REVERT JUMPDEST POP POP POP POP POP PUSH1 0x40 MLOAD RETURNDATASIZE PUSH1 0x1F NOT PUSH1 0x1F DUP3 ADD AND DUP3 ADD DUP1 PUSH1 0x40 MSTORE POP DUP2 ADD SWAP1 PUSH2 0x1EDF SWAP2 SWAP1 PUSH2 0x3671 JUMP JUMPDEST SWAP8 SWAP7 POP POP POP POP POP POP POP JUMP JUMPDEST PUSH0 DUP1 SLOAD PUSH1 0x1 PUSH1 0x1 PUSH1 0xA0 SHL SUB DUP4 DUP2 AND PUSH1 0x1 PUSH1 0x1 PUSH1 0xA0 SHL SUB NOT DUP4 AND DUP2 OR DUP5 SSTORE PUSH1 0x40 MLOAD SWAP2 SWAP1 SWAP3 AND SWAP3 DUP4 SWAP2 PUSH32 0x8BE0079C531659141344CD1FD0A4F28419497F9722A3DAAFE3B4186F6B6457E0 SWAP2 SWAP1 LOG3 POP POP JUMP JUMPDEST PUSH0 PUSH2 0x1F47 PUSH1 0x2 DUP3 DUP5 DUP7 PUSH2 0x3395 JUMP JUMPDEST PUSH2 0x1F50 SWAP2 PUSH2 0x36D8 JUMP JUMPDEST PUSH1 0xF0 SHR SWAP1 POP PUSH1 0x3 DUP2 EQ PUSH2 0x1728 JUMPI DUP3 DUP3 PUSH1 0x40 MLOAD PUSH4 0x9A6D49CD PUSH1 0xE0 SHL DUP2 MSTORE PUSH1 0x4 ADD PUSH2 0xA9D SWAP3 SWAP2 SWAP1 PUSH2 0x33F1 JUMP JUMPDEST PUSH1 0x1 PUSH1 0x1 PUSH1 0xA0 SHL SUB DUP3 AND PUSH2 0x1FA3 JUMPI PUSH1 0x40 MLOAD PUSH4 0x4B637E8F PUSH1 0xE1 SHL DUP2 MSTORE PUSH0 PUSH1 0x4 DUP3 ADD MSTORE PUSH1 0x24 ADD PUSH2 0xA9D JUMP JUMPDEST PUSH2 0x164D DUP3 PUSH0 DUP4 PUSH2 0x22AA JUMP JUMPDEST PUSH1 0x1 PUSH1 0x1 PUSH1 0xA0 SHL SUB DUP5 AND PUSH2 0x1FD7 JUMPI PUSH1 0x40 MLOAD PUSH4 0xE602DF05 PUSH1 0xE0 SHL DUP2 MSTORE PUSH0 PUSH1 0x4 DUP3 ADD MSTORE PUSH1 0x24 ADD PUSH2 0xA9D JUMP JUMPDEST PUSH1 0x1 PUSH1 0x1 PUSH1 0xA0 SHL SUB DUP4 AND PUSH2 0x2000 JUMPI PUSH1 0x40 MLOAD PUSH4 0x4A1406B1 PUSH1 0xE1 SHL DUP2 MSTORE PUSH0 PUSH1 0x4 DUP3 ADD MSTORE PUSH1 0x24 ADD PUSH2 0xA9D JUMP JUMPDEST PUSH1 0x1 PUSH1 0x1 PUSH1 0xA0 SHL SUB DUP1 DUP6 AND PUSH0 SWAP1 DUP2 MSTORE PUSH1 0x6 PUSH1 0x20 SWAP1 DUP2 MSTORE PUSH1 0x40 DUP1 DUP4 KECCAK256 SWAP4 DUP8 AND DUP4 MSTORE SWAP3 SWAP1 MSTORE KECCAK256 DUP3 SWAP1 SSTORE DUP1 ISZERO PUSH2 0xC8E JUMPI DUP3 PUSH1 0x1 PUSH1 0x1 PUSH1 0xA0 SHL SUB AND DUP5 PUSH1 0x1 PUSH1 0x1 PUSH1 0xA0 SHL SUB AND PUSH32 0x8C5BE1E5EBEC7D5BD14F71427D1E84F3DD0314C0F7B2291E5B200AC8C7C3B925 DUP5 PUSH1 0x40 MLOAD PUSH2 0x2072 SWAP2 DUP2 MSTORE PUSH1 0x20 ADD SWAP1 JUMP JUMPDEST PUSH1 0x40 MLOAD DUP1 SWAP2 SUB SWAP1 LOG3 POP POP POP POP JUMP JUMPDEST PUSH0 PUSH32 0x0 PUSH2 0x20AC DUP2 DUP5 PUSH2 0x3724 JUMP JUMPDEST PUSH2 0x985 SWAP2 SWAP1 PUSH2 0x3743 JUMP JUMPDEST PUSH0 PUSH1 0x20 DUP3 MLOAD LT ISZERO PUSH2 0x20D9 JUMPI PUSH1 0x40 MLOAD PUSH3 0x461BCD PUSH1 0xE5 SHL DUP2 MSTORE PUSH1 0x4 ADD PUSH2 0xA9D SWAP1 PUSH2 0x375A JUMP JUMPDEST POP PUSH1 0x20 ADD MLOAD SWAP1 JUMP JUMPDEST PUSH0 PUSH1 0x28 DUP3 MLOAD LT ISZERO PUSH2 0x2104 JUMPI PUSH1 0x40 MLOAD PUSH3 0x461BCD PUSH1 0xE5 SHL DUP2 MSTORE PUSH1 0x4 ADD PUSH2 0xA9D SWAP1 PUSH2 0x375A JUMP JUMPDEST POP PUSH1 0x28 ADD MLOAD SWAP1 JUMP JUMPDEST PUSH0 PUSH2 0x985 PUSH32 0x0 PUSH1 0x1 PUSH1 0x1 PUSH1 0x40 SHL SUB DUP5 AND PUSH2 0x3743 JUMP JUMPDEST PUSH0 PUSH2 0x214B DUP5 DUP5 PUSH2 0x257B JUMP JUMPDEST POP SWAP1 SWAP3 SWAP2 POP POP JUMP JUMPDEST PUSH0 PUSH2 0x2161 PUSH1 0x20 DUP3 DUP5 DUP7 PUSH2 0x3395 JUMP JUMPDEST PUSH2 0xBAF SWAP2 PUSH2 0x3785 JUMP JUMPDEST PUSH0 PUSH2 0x2179 PUSH1 0x28 PUSH1 0x20 DUP5 DUP7 PUSH2 0x3395 JUMP JUMPDEST PUSH2 0x2182 SWAP2 PUSH2 0x37A2 JUMP JUMPDEST PUSH1 0xC0 SHR SWAP4 SWAP3 POP POP POP JUMP JUMPDEST DUP1 MLOAD PUSH1 0x60 SWAP1 PUSH1 0x28 SWAP1 DUP2 GT ISZERO PUSH2 0x21B3 JUMPI PUSH1 0x40 MLOAD PUSH3 0x461BCD PUSH1 0xE5 SHL DUP2 MSTORE PUSH1 0x4 ADD PUSH2 0xA9D SWAP1 PUSH2 0x375A JUMP JUMPDEST PUSH0 DUP2 PUSH1 0xFF AND DUP5 MLOAD PUSH2 0x21C4 SWAP2 SWAP1 PUSH2 0x37D8 JUMP JUMPDEST SWAP1 POP PUSH0 DUP2 PUSH1 0x1 PUSH1 0x1 PUSH1 0x40 SHL SUB DUP2 GT ISZERO PUSH2 0x21DF JUMPI PUSH2 0x21DF PUSH2 0x2E6A JUMP JUMPDEST PUSH1 0x40 MLOAD SWAP1 DUP1 DUP3 MSTORE DUP1 PUSH1 0x1F ADD PUSH1 0x1F NOT AND PUSH1 0x20 ADD DUP3 ADD PUSH1 0x40 MSTORE DUP1 ISZERO PUSH2 0x2209 JUMPI PUSH1 0x20 DUP3 ADD DUP2 DUP1 CALLDATASIZE DUP4 CALLDATACOPY ADD SWAP1 POP JUMPDEST POP SWAP1 POP PUSH0 JUMPDEST DUP3 DUP2 LT ISZERO PUSH2 0x226F JUMPI DUP6 PUSH2 0x2224 DUP3 PUSH1 0xFF DUP8 AND PUSH2 0x37EB JUMP JUMPDEST DUP2 MLOAD DUP2 LT PUSH2 0x2234 JUMPI PUSH2 0x2234 PUSH2 0x30FE JUMP JUMPDEST PUSH1 0x20 ADD ADD MLOAD PUSH1 0xF8 SHR PUSH1 0xF8 SHL DUP3 DUP3 DUP2 MLOAD DUP2 LT PUSH2 0x2251 JUMPI PUSH2 0x2251 PUSH2 0x30FE JUMP JUMPDEST PUSH1 0x20 ADD ADD SWAP1 PUSH1 0x1 PUSH1 0x1 PUSH1 0xF8 SHL SUB NOT AND SWAP1 DUP2 PUSH0 BYTE SWAP1 MSTORE8 POP PUSH1 0x1 ADD PUSH2 0x220E JUMP JUMPDEST POP SWAP5 SWAP4 POP POP POP POP JUMP JUMPDEST PUSH1 0x60 DUP5 DUP5 DUP5 DUP5 PUSH1 0x40 MLOAD PUSH1 0x20 ADD PUSH2 0x2291 SWAP5 SWAP4 SWAP3 SWAP2 SWAP1 PUSH2 0x37FE JUMP JUMPDEST PUSH1 0x40 MLOAD PUSH1 0x20 DUP2 DUP4 SUB SUB DUP2 MSTORE SWAP1 PUSH1 0x40 MSTORE SWAP1 POP SWAP5 SWAP4 POP POP POP POP JUMP JUMPDEST PUSH1 0x1 PUSH1 0x1 PUSH1 0xA0 SHL SUB DUP4 AND PUSH2 0x22D4 JUMPI DUP1 PUSH1 0x7 PUSH0 DUP3 DUP3 SLOAD PUSH2 0x22C9 SWAP2 SWAP1 PUSH2 0x37EB JUMP JUMPDEST SWAP1 SWAP2 SSTORE POP PUSH2 0x2344 SWAP1 POP JUMP JUMPDEST PUSH1 0x1 PUSH1 0x1 PUSH1 0xA0 SHL SUB DUP4 AND PUSH0 SWAP1 DUP2 MSTORE PUSH1 0x5 PUSH1 0x20 MSTORE PUSH1 0x40 SWAP1 KECCAK256 SLOAD DUP2 DUP2 LT ISZERO PUSH2 0x2326 JUMPI PUSH1 0x40 MLOAD PUSH4 0x391434E3 PUSH1 0xE2 SHL DUP2 MSTORE PUSH1 0x1 PUSH1 0x1 PUSH1 0xA0 SHL SUB DUP6 AND PUSH1 0x4 DUP3 ADD MSTORE PUSH1 0x24 DUP2 ADD DUP3 SWAP1 MSTORE PUSH1 0x44 DUP2 ADD DUP4 SWAP1 MSTORE PUSH1 0x64 ADD PUSH2 0xA9D JUMP JUMPDEST PUSH1 0x1 PUSH1 0x1 PUSH1 0xA0 SHL SUB DUP5 AND PUSH0 SWAP1 DUP2 MSTORE PUSH1 0x5 PUSH1 0x20 MSTORE PUSH1 0x40 SWAP1 KECCAK256 SWAP1 DUP3 SWAP1 SUB SWAP1 SSTORE JUMPDEST PUSH1 0x1 PUSH1 0x1 PUSH1 0xA0 SHL SUB DUP3 AND PUSH2 0x2360 JUMPI PUSH1 0x7 DUP1 SLOAD DUP3 SWAP1 SUB SWAP1 SSTORE PUSH2 0x237E JUMP JUMPDEST PUSH1 0x1 PUSH1 0x1 PUSH1 0xA0 SHL SUB DUP3 AND PUSH0 SWAP1 DUP2 MSTORE PUSH1 0x5 PUSH1 0x20 MSTORE PUSH1 0x40 SWAP1 KECCAK256 DUP1 SLOAD DUP3 ADD SWAP1 SSTORE JUMPDEST DUP2 PUSH1 0x1 PUSH1 0x1 PUSH1 0xA0 SHL SUB AND DUP4 PUSH1 0x1 PUSH1 0x1 PUSH1 0xA0 SHL SUB AND PUSH32 0xDDF252AD1BE2C89B69C2B068FC378DAA952BA7F163C4A11628F55A4DF523B3EF DUP4 PUSH1 0x40 MLOAD PUSH2 0x23C3 SWAP2 DUP2 MSTORE PUSH1 0x20 ADD SWAP1 JUMP JUMPDEST PUSH1 0x40 MLOAD DUP1 SWAP2 SUB SWAP1 LOG3 POP POP POP JUMP JUMPDEST PUSH0 PUSH2 0x985 PUSH32 0x0 DUP4 PUSH2 0x3724 JUMP JUMPDEST DUP1 MLOAD PUSH1 0x60 SWAP1 ISZERO ISZERO DUP1 PUSH2 0x2444 JUMPI DUP5 DUP5 PUSH1 0x40 MLOAD PUSH1 0x20 ADD PUSH2 0x2430 SWAP3 SWAP2 SWAP1 SWAP2 DUP3 MSTORE PUSH1 0xC0 SHL PUSH1 0x1 PUSH1 0x1 PUSH1 0xC0 SHL SUB NOT AND PUSH1 0x20 DUP3 ADD MSTORE PUSH1 0x28 ADD SWAP1 JUMP JUMPDEST PUSH1 0x40 MLOAD PUSH1 0x20 DUP2 DUP4 SUB SUB DUP2 MSTORE SWAP1 PUSH1 0x40 MSTORE PUSH2 0x246B JUMP JUMPDEST DUP5 DUP5 CALLER DUP6 PUSH1 0x40 MLOAD PUSH1 0x20 ADD PUSH2 0x245B SWAP5 SWAP4 SWAP3 SWAP2 SWAP1 PUSH2 0x3838 JUMP JUMPDEST PUSH1 0x40 MLOAD PUSH1 0x20 DUP2 DUP4 SUB SUB DUP2 MSTORE SWAP1 PUSH1 0x40 MSTORE JUMPDEST SWAP2 POP SWAP4 POP SWAP4 SWAP2 POP POP JUMP JUMPDEST PUSH0 DUP2 CALLVALUE EQ PUSH2 0x2498 JUMPI PUSH1 0x40 MLOAD PUSH4 0x4FB8209 PUSH1 0xE5 SHL DUP2 MSTORE CALLVALUE PUSH1 0x4 DUP3 ADD MSTORE PUSH1 0x24 ADD PUSH2 0xA9D JUMP JUMPDEST POP SWAP1 JUMP JUMPDEST PUSH0 PUSH32 0x0 PUSH1 0x1 PUSH1 0x1 PUSH1 0xA0 SHL SUB AND PUSH4 0xE4FE1D94 PUSH1 0x40 MLOAD DUP2 PUSH4 0xFFFFFFFF AND PUSH1 0xE0 SHL DUP2 MSTORE PUSH1 0x4 ADD PUSH1 0x20 PUSH1 0x40 MLOAD DUP1 DUP4 SUB DUP2 DUP7 GAS STATICCALL ISZERO DUP1 ISZERO PUSH2 0x24F9 JUMPI RETURNDATASIZE PUSH0 DUP1 RETURNDATACOPY RETURNDATASIZE PUSH0 REVERT JUMPDEST POP POP POP POP PUSH1 0x40 MLOAD RETURNDATASIZE PUSH1 0x1F NOT PUSH1 0x1F DUP3 ADD AND DUP3 ADD DUP1 PUSH1 0x40 MSTORE POP DUP2 ADD SWAP1 PUSH2 0x251D SWAP2 SWAP1 PUSH2 0x3864 JUMP JUMPDEST SWAP1 POP PUSH1 0x1 PUSH1 0x1 PUSH1 0xA0 SHL SUB DUP2 AND PUSH2 0x2546 JUMPI PUSH1 0x40 MLOAD PUSH4 0x29B99A95 PUSH1 0xE1 SHL DUP2 MSTORE PUSH1 0x4 ADD PUSH1 0x40 MLOAD DUP1 SWAP2 SUB SWAP1 REVERT JUMPDEST PUSH2 0x164D PUSH1 0x1 PUSH1 0x1 PUSH1 0xA0 SHL SUB DUP3 AND CALLER PUSH32 0x0 DUP6 PUSH2 0x25AF JUMP JUMPDEST PUSH1 0x1 PUSH1 0x1 PUSH1 0xA0 SHL SUB DUP3 AND PUSH2 0x25A4 JUMPI PUSH1 0x40 MLOAD PUSH4 0xEC442F05 PUSH1 0xE0 SHL DUP2 MSTORE PUSH0 PUSH1 0x4 DUP3 ADD MSTORE PUSH1 0x24 ADD PUSH2 0xA9D JUMP JUMPDEST PUSH2 0x164D PUSH0 DUP4 DUP4 PUSH2 0x22AA JUMP JUMPDEST PUSH1 0x40 DUP1 MLOAD PUSH1 0x1 PUSH1 0x1 PUSH1 0xA0 SHL SUB DUP6 DUP2 AND PUSH1 0x24 DUP4 ADD MSTORE DUP5 DUP2 AND PUSH1 0x44 DUP4 ADD MSTORE PUSH1 0x64 DUP1 DUP4 ADD DUP6 SWAP1 MSTORE DUP4 MLOAD DUP1 DUP5 SUB SWAP1 SWAP2 ADD DUP2 MSTORE PUSH1 0x84 SWAP1 SWAP3 ADD SWAP1 SWAP3 MSTORE PUSH1 0x20 DUP2 ADD DUP1 MLOAD PUSH1 0x1 PUSH1 0x1 PUSH1 0xE0 SHL SUB AND PUSH4 0x23B872DD PUSH1 0xE0 SHL OR SWAP1 MSTORE PUSH2 0xC8E SWAP2 DUP7 SWAP2 SWAP1 PUSH0 SWAP1 PUSH2 0x2614 SWAP1 DUP5 AND DUP4 PUSH2 0x2661 JUMP JUMPDEST SWAP1 POP DUP1 MLOAD PUSH0 EQ ISZERO DUP1 ISZERO PUSH2 0x2638 JUMPI POP DUP1 DUP1 PUSH1 0x20 ADD SWAP1 MLOAD DUP2 ADD SWAP1 PUSH2 0x2636 SWAP2 SWAP1 PUSH2 0x3526 JUMP JUMPDEST ISZERO JUMPDEST ISZERO PUSH2 0x1728 JUMPI PUSH1 0x40 MLOAD PUSH4 0x5274AFE7 PUSH1 0xE0 SHL DUP2 MSTORE PUSH1 0x1 PUSH1 0x1 PUSH1 0xA0 SHL SUB DUP5 AND PUSH1 0x4 DUP3 ADD MSTORE PUSH1 0x24 ADD PUSH2 0xA9D JUMP JUMPDEST PUSH1 0x60 PUSH2 0xBAF DUP4 DUP4 PUSH0 DUP5 PUSH0 DUP1 DUP6 PUSH1 0x1 PUSH1 0x1 PUSH1 0xA0 SHL SUB AND DUP5 DUP7 PUSH1 0x40 MLOAD PUSH2 0x2685 SWAP2 SWAP1 PUSH2 0x387F JUMP JUMPDEST PUSH0 PUSH1 0x40 MLOAD DUP1 DUP4 SUB DUP2 DUP6 DUP8 GAS CALL SWAP3 POP POP POP RETURNDATASIZE DUP1 PUSH0 DUP2 EQ PUSH2 0x26BF JUMPI PUSH1 0x40 MLOAD SWAP2 POP PUSH1 0x1F NOT PUSH1 0x3F RETURNDATASIZE ADD AND DUP3 ADD PUSH1 0x40 MSTORE RETURNDATASIZE DUP3 MSTORE RETURNDATASIZE PUSH0 PUSH1 0x20 DUP5 ADD RETURNDATACOPY PUSH2 0x26C4 JUMP JUMPDEST PUSH1 0x60 SWAP2 POP JUMPDEST POP SWAP2 POP SWAP2 POP PUSH2 0xC6D DUP7 DUP4 DUP4 PUSH1 0x60 DUP3 PUSH2 0x26E4 JUMPI PUSH2 0x26DF DUP3 PUSH2 0x272B JUMP JUMPDEST PUSH2 0xBAF JUMP JUMPDEST DUP2 MLOAD ISZERO DUP1 ISZERO PUSH2 0x26FB JUMPI POP PUSH1 0x1 PUSH1 0x1 PUSH1 0xA0 SHL SUB DUP5 AND EXTCODESIZE ISZERO JUMPDEST ISZERO PUSH2 0x2724 JUMPI PUSH1 0x40 MLOAD PUSH4 0x9996B315 PUSH1 0xE0 SHL DUP2 MSTORE PUSH1 0x1 PUSH1 0x1 PUSH1 0xA0 SHL SUB DUP6 AND PUSH1 0x4 DUP3 ADD MSTORE PUSH1 0x24 ADD PUSH2 0xA9D JUMP JUMPDEST POP DUP1 PUSH2 0xBAF JUMP JUMPDEST DUP1 MLOAD ISZERO PUSH2 0x273B JUMPI DUP1 MLOAD DUP1 DUP3 PUSH1 0x20 ADD REVERT JUMPDEST PUSH1 0x40 MLOAD PUSH4 0xA12F521 PUSH1 0xE1 SHL DUP2 MSTORE PUSH1 0x4 ADD PUSH1 0x40 MLOAD DUP1 SWAP2 SUB SWAP1 REVERT JUMPDEST PUSH1 0x40 MLOAD DUP1 PUSH1 0x60 ADD PUSH1 0x40 MSTORE DUP1 PUSH0 DUP1 NOT AND DUP2 MSTORE PUSH1 0x20 ADD PUSH0 PUSH1 0x1 PUSH1 0x1 PUSH1 0x40 SHL SUB AND DUP2 MSTORE PUSH1 0x20 ADD PUSH2 0x2792 PUSH1 0x40 MLOAD DUP1 PUSH1 0x40 ADD PUSH1 0x40 MSTORE DUP1 PUSH0 DUP2 MSTORE PUSH1 0x20 ADD PUSH0 DUP2 MSTORE POP SWAP1 JUMP JUMPDEST SWAP1 MSTORE SWAP1 JUMP JUMPDEST PUSH0 DUP2 MLOAD DUP1 DUP5 MSTORE DUP1 PUSH1 0x20 DUP5 ADD PUSH1 0x20 DUP7 ADD MCOPY PUSH0 PUSH1 0x20 DUP3 DUP7 ADD ADD MSTORE PUSH1 0x20 PUSH1 0x1F NOT PUSH1 0x1F DUP4 ADD AND DUP6 ADD ADD SWAP2 POP POP SWAP3 SWAP2 POP POP JUMP JUMPDEST PUSH1 0x20 DUP2 MSTORE PUSH0 PUSH2 0xBAF PUSH1 0x20 DUP4 ADD DUP5 PUSH2 0x2797 JUMP JUMPDEST PUSH1 0x1 PUSH1 0x1 PUSH1 0xA0 SHL SUB DUP2 AND DUP2 EQ PUSH2 0x16E4 JUMPI PUSH0 DUP1 REVERT JUMPDEST PUSH0 DUP1 PUSH1 0x40 DUP4 DUP6 SUB SLT ISZERO PUSH2 0x27FC JUMPI PUSH0 DUP1 REVERT JUMPDEST DUP3 CALLDATALOAD PUSH2 0x2807 DUP2 PUSH2 0x27D7 JUMP JUMPDEST SWAP5 PUSH1 0x20 SWAP4 SWAP1 SWAP4 ADD CALLDATALOAD SWAP4 POP POP POP JUMP JUMPDEST PUSH0 PUSH1 0xE0 DUP3 DUP5 SUB SLT ISZERO PUSH2 0x2825 JUMPI PUSH0 DUP1 REVERT JUMPDEST POP SWAP2 SWAP1 POP JUMP JUMPDEST PUSH0 PUSH1 0x20 DUP3 DUP5 SUB SLT ISZERO PUSH2 0x283B JUMPI PUSH0 DUP1 REVERT JUMPDEST DUP2 CALLDATALOAD PUSH1 0x1 PUSH1 0x1 PUSH1 0x40 SHL SUB DUP2 GT ISZERO PUSH2 0x2850 JUMPI PUSH0 DUP1 REVERT JUMPDEST PUSH2 0x1234 DUP5 DUP3 DUP6 ADD PUSH2 0x2815 JUMP JUMPDEST DUP4 MLOAD DUP2 MSTORE PUSH1 0x20 DUP1 DUP6 ADD MLOAD SWAP1 DUP3 ADD MSTORE PUSH0 PUSH1 0xA0 DUP3 ADD PUSH1 0xA0 PUSH1 0x40 DUP5 ADD MSTORE DUP1 DUP6 MLOAD DUP1 DUP4 MSTORE PUSH1 0xC0 DUP6 ADD SWAP2 POP PUSH1 0xC0 DUP2 PUSH1 0x5 SHL DUP7 ADD ADD SWAP3 POP PUSH1 0x20 DUP8 ADD PUSH0 JUMPDEST DUP3 DUP2 LT ISZERO PUSH2 0x28DB JUMPI PUSH1 0xBF NOT DUP8 DUP7 SUB ADD DUP5 MSTORE DUP2 MLOAD DUP1 MLOAD DUP7 MSTORE PUSH1 0x20 DUP2 ADD MLOAD SWAP1 POP PUSH1 0x40 PUSH1 0x20 DUP8 ADD MSTORE PUSH2 0x28C5 PUSH1 0x40 DUP8 ADD DUP3 PUSH2 0x2797 JUMP JUMPDEST SWAP6 POP POP PUSH1 0x20 SWAP4 DUP5 ADD SWAP4 SWAP2 SWAP1 SWAP2 ADD SWAP1 PUSH1 0x1 ADD PUSH2 0x2893 JUMP JUMPDEST POP POP DUP6 MLOAD PUSH1 0x60 DUP7 ADD MSTORE POP POP PUSH1 0x20 DUP5 ADD MLOAD PUSH1 0x80 DUP5 ADD MSTORE SWAP1 POP PUSH2 0x1234 JUMP JUMPDEST PUSH0 PUSH1 0x60 DUP3 DUP5 SUB SLT ISZERO PUSH2 0x2825 JUMPI PUSH0 DUP1 REVERT JUMPDEST PUSH0 DUP1 DUP4 PUSH1 0x1F DUP5 ADD SLT PUSH2 0x2917 JUMPI PUSH0 DUP1 REVERT JUMPDEST POP DUP2 CALLDATALOAD PUSH1 0x1 PUSH1 0x1 PUSH1 0x40 SHL SUB DUP2 GT ISZERO PUSH2 0x292D JUMPI PUSH0 DUP1 REVERT JUMPDEST PUSH1 0x20 DUP4 ADD SWAP2 POP DUP4 PUSH1 0x20 DUP3 DUP6 ADD ADD GT ISZERO PUSH2 0x2944 JUMPI PUSH0 DUP1 REVERT JUMPDEST SWAP3 POP SWAP3 SWAP1 POP JUMP JUMPDEST PUSH0 DUP1 PUSH0 DUP1 PUSH0 DUP1 PUSH0 PUSH1 0xE0 DUP9 DUP11 SUB SLT ISZERO PUSH2 0x2961 JUMPI PUSH0 DUP1 REVERT JUMPDEST PUSH2 0x296B DUP10 DUP10 PUSH2 0x28F7 JUMP JUMPDEST SWAP7 POP PUSH1 0x60 DUP9 ADD CALLDATALOAD SWAP6 POP PUSH1 0x80 DUP9 ADD CALLDATALOAD PUSH1 0x1 PUSH1 0x1 PUSH1 0x40 SHL SUB DUP2 GT ISZERO PUSH2 0x298C JUMPI PUSH0 DUP1 REVERT JUMPDEST PUSH2 0x2998 DUP11 DUP3 DUP12 ADD PUSH2 0x2907 JUMP JUMPDEST SWAP1 SWAP7 POP SWAP5 POP POP PUSH1 0xA0 DUP9 ADD CALLDATALOAD PUSH2 0x29AC DUP2 PUSH2 0x27D7 JUMP JUMPDEST SWAP3 POP PUSH1 0xC0 DUP9 ADD CALLDATALOAD PUSH1 0x1 PUSH1 0x1 PUSH1 0x40 SHL SUB DUP2 GT ISZERO PUSH2 0x29C6 JUMPI PUSH0 DUP1 REVERT JUMPDEST PUSH2 0x29D2 DUP11 DUP3 DUP12 ADD PUSH2 0x2907 JUMP JUMPDEST SWAP9 SWAP12 SWAP8 SWAP11 POP SWAP6 SWAP9 POP SWAP4 SWAP7 SWAP3 SWAP6 SWAP3 SWAP4 POP POP POP JUMP JUMPDEST PUSH0 PUSH1 0x20 DUP3 DUP5 SUB SLT ISZERO PUSH2 0x29F5 JUMPI PUSH0 DUP1 REVERT JUMPDEST DUP2 CALLDATALOAD PUSH2 0xBAF DUP2 PUSH2 0x27D7 JUMP JUMPDEST PUSH0 DUP1 PUSH0 PUSH1 0x60 DUP5 DUP7 SUB SLT ISZERO PUSH2 0x2A12 JUMPI PUSH0 DUP1 REVERT JUMPDEST DUP4 CALLDATALOAD PUSH2 0x2A1D DUP2 PUSH2 0x27D7 JUMP JUMPDEST SWAP3 POP PUSH1 0x20 DUP5 ADD CALLDATALOAD PUSH2 0x2A2D DUP2 PUSH2 0x27D7 JUMP JUMPDEST SWAP3 SWAP6 SWAP3 SWAP5 POP POP POP PUSH1 0x40 SWAP2 SWAP1 SWAP2 ADD CALLDATALOAD SWAP1 JUMP JUMPDEST DUP1 CALLDATALOAD PUSH4 0xFFFFFFFF DUP2 AND DUP2 EQ PUSH2 0x2A51 JUMPI PUSH0 DUP1 REVERT JUMPDEST SWAP2 SWAP1 POP JUMP JUMPDEST PUSH0 DUP1 PUSH1 0x40 DUP4 DUP6 SUB SLT ISZERO PUSH2 0x2A67 JUMPI PUSH0 DUP1 REVERT JUMPDEST PUSH2 0x2807 DUP4 PUSH2 0x2A3E JUMP JUMPDEST DUP1 ISZERO ISZERO DUP2 EQ PUSH2 0x16E4 JUMPI PUSH0 DUP1 REVERT JUMPDEST PUSH0 DUP1 PUSH1 0x40 DUP4 DUP6 SUB SLT ISZERO PUSH2 0x2A8E JUMPI PUSH0 DUP1 REVERT JUMPDEST DUP3 CALLDATALOAD PUSH1 0x1 PUSH1 0x1 PUSH1 0x40 SHL SUB DUP2 GT ISZERO PUSH2 0x2AA3 JUMPI PUSH0 DUP1 REVERT JUMPDEST PUSH2 0x2AAF DUP6 DUP3 DUP7 ADD PUSH2 0x2815 JUMP JUMPDEST SWAP3 POP POP PUSH1 0x20 DUP4 ADD CALLDATALOAD PUSH2 0x2AC0 DUP2 PUSH2 0x2A70 JUMP JUMPDEST DUP1 SWAP2 POP POP SWAP3 POP SWAP3 SWAP1 POP JUMP JUMPDEST DUP2 MLOAD DUP2 MSTORE PUSH1 0x20 DUP1 DUP4 ADD MLOAD SWAP1 DUP3 ADD MSTORE PUSH1 0x40 DUP2 ADD PUSH2 0x985 JUMP JUMPDEST PUSH0 DUP1 PUSH1 0x20 DUP4 DUP6 SUB SLT ISZERO PUSH2 0x2AF3 JUMPI PUSH0 DUP1 REVERT JUMPDEST DUP3 CALLDATALOAD PUSH1 0x1 PUSH1 0x1 PUSH1 0x40 SHL SUB DUP2 GT ISZERO PUSH2 0x2B08 JUMPI PUSH0 DUP1 REVERT JUMPDEST PUSH2 0x2B14 DUP6 DUP3 DUP7 ADD PUSH2 0x2907 JUMP JUMPDEST SWAP1 SWAP7 SWAP1 SWAP6 POP SWAP4 POP POP POP POP JUMP JUMPDEST DUP1 CALLDATALOAD PUSH2 0xFFFF DUP2 AND DUP2 EQ PUSH2 0x2A51 JUMPI PUSH0 DUP1 REVERT JUMPDEST PUSH0 DUP1 PUSH1 0x40 DUP4 DUP6 SUB SLT ISZERO PUSH2 0x2B42 JUMPI PUSH0 DUP1 REVERT JUMPDEST PUSH2 0x2B4B DUP4 PUSH2 0x2A3E JUMP JUMPDEST SWAP2 POP PUSH2 0x2B59 PUSH1 0x20 DUP5 ADD PUSH2 0x2B20 JUMP JUMPDEST SWAP1 POP SWAP3 POP SWAP3 SWAP1 POP JUMP JUMPDEST PUSH0 PUSH1 0xC0 DUP3 DUP5 SUB SLT ISZERO PUSH2 0x2825 JUMPI PUSH0 DUP1 REVERT JUMPDEST PUSH0 DUP1 PUSH0 PUSH2 0x100 DUP5 DUP7 SUB SLT ISZERO PUSH2 0x2B85 JUMPI PUSH0 DUP1 REVERT JUMPDEST DUP4 CALLDATALOAD PUSH1 0x1 PUSH1 0x1 PUSH1 0x40 SHL SUB DUP2 GT ISZERO PUSH2 0x2B9A JUMPI PUSH0 DUP1 REVERT JUMPDEST PUSH2 0x2BA6 DUP7 DUP3 DUP8 ADD PUSH2 0x2815 JUMP JUMPDEST SWAP4 POP POP PUSH2 0x2BB6 DUP6 PUSH1 0x20 DUP7 ADD PUSH2 0x2B62 JUMP JUMPDEST SWAP2 POP PUSH1 0xE0 DUP5 ADD CALLDATALOAD PUSH2 0x2BC6 DUP2 PUSH2 0x2A70 JUMP JUMPDEST DUP1 SWAP2 POP POP SWAP3 POP SWAP3 POP SWAP3 JUMP JUMPDEST PUSH0 PUSH1 0x40 DUP3 DUP5 SUB SLT ISZERO PUSH2 0x2825 JUMPI PUSH0 DUP1 REVERT JUMPDEST PUSH0 DUP1 PUSH0 DUP1 PUSH2 0x140 DUP6 DUP8 SUB SLT ISZERO PUSH2 0x2BF5 JUMPI PUSH0 DUP1 REVERT JUMPDEST DUP5 CALLDATALOAD PUSH1 0x1 PUSH1 0x1 PUSH1 0x40 SHL SUB DUP2 GT ISZERO PUSH2 0x2C0A JUMPI PUSH0 DUP1 REVERT JUMPDEST PUSH2 0x2C16 DUP8 DUP3 DUP9 ADD PUSH2 0x2815 JUMP JUMPDEST SWAP5 POP POP PUSH2 0x2C26 DUP7 PUSH1 0x20 DUP8 ADD PUSH2 0x2BD1 JUMP JUMPDEST SWAP3 POP PUSH1 0x60 DUP6 ADD CALLDATALOAD PUSH2 0x2C36 DUP2 PUSH2 0x27D7 JUMP JUMPDEST SWAP2 POP PUSH2 0x2C45 DUP7 PUSH1 0x80 DUP8 ADD PUSH2 0x2B62 JUMP JUMPDEST SWAP1 POP SWAP3 SWAP6 SWAP2 SWAP5 POP SWAP3 POP JUMP JUMPDEST PUSH0 PUSH1 0xC0 DUP3 ADD SWAP1 POP DUP4 MLOAD DUP3 MSTORE PUSH1 0x1 PUSH1 0x1 PUSH1 0x40 SHL SUB PUSH1 0x20 DUP6 ADD MLOAD AND PUSH1 0x20 DUP4 ADD MSTORE PUSH1 0x40 DUP5 ADD MLOAD PUSH2 0x2C8A PUSH1 0x40 DUP5 ADD DUP3 DUP1 MLOAD DUP3 MSTORE PUSH1 0x20 SWAP1 DUP2 ADD MLOAD SWAP2 ADD MSTORE JUMP JUMPDEST POP DUP3 MLOAD PUSH1 0x80 DUP4 ADD MSTORE PUSH1 0x20 DUP4 ADD MLOAD PUSH1 0xA0 DUP4 ADD MSTORE PUSH2 0xBAF JUMP JUMPDEST PUSH0 DUP1 DUP4 PUSH1 0x1F DUP5 ADD SLT PUSH2 0x2CB1 JUMPI PUSH0 DUP1 REVERT JUMPDEST POP DUP2 CALLDATALOAD PUSH1 0x1 PUSH1 0x1 PUSH1 0x40 SHL SUB DUP2 GT ISZERO PUSH2 0x2CC7 JUMPI PUSH0 DUP1 REVERT JUMPDEST PUSH1 0x20 DUP4 ADD SWAP2 POP DUP4 PUSH1 0x20 DUP3 PUSH1 0x5 SHL DUP6 ADD ADD GT ISZERO PUSH2 0x2944 JUMPI PUSH0 DUP1 REVERT JUMPDEST PUSH0 DUP1 PUSH1 0x20 DUP4 DUP6 SUB SLT ISZERO PUSH2 0x2CF2 JUMPI PUSH0 DUP1 REVERT JUMPDEST DUP3 CALLDATALOAD PUSH1 0x1 PUSH1 0x1 PUSH1 0x40 SHL SUB DUP2 GT ISZERO PUSH2 0x2D07 JUMPI PUSH0 DUP1 REVERT JUMPDEST PUSH2 0x2B14 DUP6 DUP3 DUP7 ADD PUSH2 0x2CA1 JUMP JUMPDEST PUSH0 PUSH1 0x20 DUP3 DUP5 SUB SLT ISZERO PUSH2 0x2D23 JUMPI PUSH0 DUP1 REVERT JUMPDEST PUSH2 0xBAF DUP3 PUSH2 0x2A3E JUMP JUMPDEST PUSH0 DUP1 PUSH0 DUP1 PUSH1 0x60 DUP6 DUP8 SUB SLT ISZERO PUSH2 0x2D3F JUMPI PUSH0 DUP1 REVERT JUMPDEST PUSH2 0x2D48 DUP6 PUSH2 0x2A3E JUMP JUMPDEST SWAP4 POP PUSH2 0x2D56 PUSH1 0x20 DUP7 ADD PUSH2 0x2B20 JUMP JUMPDEST SWAP3 POP PUSH1 0x40 DUP6 ADD CALLDATALOAD PUSH1 0x1 PUSH1 0x1 PUSH1 0x40 SHL SUB DUP2 GT ISZERO PUSH2 0x2D70 JUMPI PUSH0 DUP1 REVERT JUMPDEST PUSH2 0x2D7C DUP8 DUP3 DUP9 ADD PUSH2 0x2907 JUMP JUMPDEST SWAP6 SWAP9 SWAP5 SWAP8 POP SWAP6 POP POP POP POP JUMP JUMPDEST PUSH0 DUP1 PUSH0 PUSH1 0x80 DUP5 DUP7 SUB SLT ISZERO PUSH2 0x2D9A JUMPI PUSH0 DUP1 REVERT JUMPDEST DUP4 CALLDATALOAD PUSH1 0x1 PUSH1 0x1 PUSH1 0x40 SHL SUB DUP2 GT ISZERO PUSH2 0x2DAF JUMPI PUSH0 DUP1 REVERT JUMPDEST PUSH2 0x2DBB DUP7 DUP3 DUP8 ADD PUSH2 0x2815 JUMP JUMPDEST SWAP4 POP POP PUSH2 0x2DCB DUP6 PUSH1 0x20 DUP7 ADD PUSH2 0x2BD1 JUMP JUMPDEST SWAP2 POP PUSH1 0x60 DUP5 ADD CALLDATALOAD PUSH2 0x2BC6 DUP2 PUSH2 0x27D7 JUMP JUMPDEST PUSH0 DUP1 PUSH1 0x40 DUP4 DUP6 SUB SLT ISZERO PUSH2 0x2DEC JUMPI PUSH0 DUP1 REVERT JUMPDEST DUP3 CALLDATALOAD PUSH2 0x2DF7 DUP2 PUSH2 0x27D7 JUMP JUMPDEST SWAP2 POP PUSH1 0x20 DUP4 ADD CALLDATALOAD PUSH2 0x2AC0 DUP2 PUSH2 0x27D7 JUMP JUMPDEST PUSH0 PUSH1 0x20 DUP3 DUP5 SUB SLT ISZERO PUSH2 0x2E17 JUMPI PUSH0 DUP1 REVERT JUMPDEST POP CALLDATALOAD SWAP2 SWAP1 POP JUMP JUMPDEST PUSH0 PUSH1 0x60 DUP3 DUP5 SUB SLT ISZERO PUSH2 0x2E2E JUMPI PUSH0 DUP1 REVERT JUMPDEST PUSH2 0xBAF DUP4 DUP4 PUSH2 0x28F7 JUMP JUMPDEST PUSH1 0x1 DUP2 DUP2 SHR SWAP1 DUP3 AND DUP1 PUSH2 0x2E4C JUMPI PUSH1 0x7F DUP3 AND SWAP2 POP JUMPDEST PUSH1 0x20 DUP3 LT DUP2 SUB PUSH2 0x2825 JUMPI PUSH4 0x4E487B71 PUSH1 0xE0 SHL PUSH0 MSTORE PUSH1 0x22 PUSH1 0x4 MSTORE PUSH1 0x24 PUSH0 REVERT JUMPDEST PUSH4 0x4E487B71 PUSH1 0xE0 SHL PUSH0 MSTORE PUSH1 0x41 PUSH1 0x4 MSTORE PUSH1 0x24 PUSH0 REVERT JUMPDEST PUSH1 0x40 MLOAD PUSH1 0xC0 DUP2 ADD PUSH1 0x1 PUSH1 0x1 PUSH1 0x40 SHL SUB DUP2 GT DUP3 DUP3 LT OR ISZERO PUSH2 0x2EA0 JUMPI PUSH2 0x2EA0 PUSH2 0x2E6A JUMP JUMPDEST PUSH1 0x40 MSTORE SWAP1 JUMP JUMPDEST PUSH1 0x40 DUP1 MLOAD SWAP1 DUP2 ADD PUSH1 0x1 PUSH1 0x1 PUSH1 0x40 SHL SUB DUP2 GT DUP3 DUP3 LT OR ISZERO PUSH2 0x2EA0 JUMPI PUSH2 0x2EA0 PUSH2 0x2E6A JUMP JUMPDEST PUSH1 0x40 MLOAD PUSH1 0x1F DUP3 ADD PUSH1 0x1F NOT AND DUP2 ADD PUSH1 0x1 PUSH1 0x1 PUSH1 0x40 SHL SUB DUP2 GT DUP3 DUP3 LT OR ISZERO PUSH2 0x2EF0 JUMPI PUSH2 0x2EF0 PUSH2 0x2E6A JUMP JUMPDEST PUSH1 0x40 MSTORE SWAP2 SWAP1 POP JUMP JUMPDEST PUSH0 PUSH1 0x1 PUSH1 0x1 PUSH1 0x40 SHL SUB DUP3 GT ISZERO PUSH2 0x2F10 JUMPI PUSH2 0x2F10 PUSH2 0x2E6A JUMP JUMPDEST POP PUSH1 0x1F ADD PUSH1 0x1F NOT AND PUSH1 0x20 ADD SWAP1 JUMP JUMPDEST DUP1 CALLDATALOAD PUSH3 0xFFFFFF DUP2 AND DUP2 EQ PUSH2 0x2A51 JUMPI PUSH0 DUP1 REVERT JUMPDEST PUSH0 DUP1 DUP3 DUP5 SUB PUSH1 0xE0 DUP2 SLT ISZERO PUSH2 0x2F42 JUMPI PUSH0 DUP1 REVERT JUMPDEST DUP4 CALLDATALOAD PUSH1 0x1 PUSH1 0x1 PUSH1 0x40 SHL SUB DUP2 GT ISZERO PUSH2 0x2F57 JUMPI PUSH0 DUP1 REVERT JUMPDEST DUP5 ADD PUSH1 0x1F DUP2 ADD DUP7 SGT PUSH2 0x2F67 JUMPI PUSH0 DUP1 REVERT JUMPDEST DUP1 CALLDATALOAD PUSH2 0x2F7A PUSH2 0x2F75 DUP3 PUSH2 0x2EF8 JUMP JUMPDEST PUSH2 0x2EC8 JUMP JUMPDEST DUP2 DUP2 MSTORE DUP8 PUSH1 0x20 DUP4 DUP6 ADD ADD GT ISZERO PUSH2 0x2F8E JUMPI PUSH0 DUP1 REVERT JUMPDEST DUP2 PUSH1 0x20 DUP5 ADD PUSH1 0x20 DUP4 ADD CALLDATACOPY PUSH0 SWAP2 DUP2 ADD PUSH1 0x20 ADD SWAP2 SWAP1 SWAP2 MSTORE SWAP4 POP POP PUSH1 0xC0 PUSH1 0x1F NOT DUP3 ADD SLT ISZERO PUSH2 0x2FB7 JUMPI PUSH0 DUP1 REVERT JUMPDEST POP PUSH2 0x2FC0 PUSH2 0x2E7E JUMP JUMPDEST PUSH1 0x20 DUP5 ADD CALLDATALOAD PUSH2 0x2FCE DUP2 PUSH2 0x27D7 JUMP JUMPDEST DUP2 MSTORE PUSH1 0x40 DUP5 ADD CALLDATALOAD PUSH2 0x2FDE DUP2 PUSH2 0x27D7 JUMP JUMPDEST PUSH1 0x20 DUP3 ADD MSTORE PUSH1 0x60 DUP5 ADD CALLDATALOAD PUSH2 0x2FF1 DUP2 PUSH2 0x27D7 JUMP JUMPDEST PUSH1 0x40 DUP3 ADD MSTORE PUSH1 0x80 DUP5 ADD CALLDATALOAD PUSH2 0x3004 DUP2 PUSH2 0x27D7 JUMP JUMPDEST PUSH1 0x60 DUP3 ADD MSTORE PUSH2 0x3015 PUSH1 0xA0 DUP6 ADD PUSH2 0x2F1E JUMP JUMPDEST PUSH1 0x80 DUP3 ADD MSTORE PUSH1 0xC0 SWAP4 SWAP1 SWAP4 ADD CALLDATALOAD PUSH1 0xA0 DUP5 ADD MSTORE POP SWAP3 SWAP1 SWAP2 POP JUMP JUMPDEST PUSH0 DUP4 CALLDATALOAD PUSH2 0x3039 DUP2 PUSH2 0x27D7 JUMP JUMPDEST PUSH1 0x1 PUSH1 0x1 PUSH1 0xA0 SHL SUB AND DUP3 MSTORE PUSH1 0x20 DUP5 ADD CALLDATALOAD PUSH2 0x3052 DUP2 PUSH2 0x27D7 JUMP JUMPDEST PUSH1 0x1 PUSH1 0x1 PUSH1 0xA0 SHL SUB AND PUSH1 0x20 DUP4 ADD MSTORE PUSH1 0x40 DUP5 ADD CALLDATALOAD PUSH2 0x306E DUP2 PUSH2 0x27D7 JUMP JUMPDEST PUSH1 0x1 PUSH1 0x1 PUSH1 0xA0 SHL SUB AND PUSH1 0x40 DUP4 ADD MSTORE PUSH1 0x60 DUP5 ADD CALLDATALOAD PUSH2 0x308A DUP2 PUSH2 0x27D7 JUMP JUMPDEST PUSH1 0x1 PUSH1 0x1 PUSH1 0xA0 SHL SUB AND PUSH1 0x60 DUP4 ADD MSTORE PUSH2 0x30A4 PUSH1 0x80 DUP6 ADD PUSH2 0x2F1E JUMP JUMPDEST PUSH3 0xFFFFFF AND PUSH1 0x80 DUP4 ADD MSTORE PUSH1 0xA0 DUP5 DUP2 ADD CALLDATALOAD SWAP1 DUP4 ADD MSTORE PUSH1 0xE0 PUSH1 0xC0 DUP4 ADD DUP2 SWAP1 MSTORE PUSH2 0x1234 SWAP1 DUP4 ADD DUP5 PUSH2 0x2797 JUMP JUMPDEST PUSH0 PUSH1 0x40 DUP3 DUP5 SUB SLT DUP1 ISZERO PUSH2 0x30DE JUMPI PUSH0 DUP1 REVERT JUMPDEST POP PUSH2 0x30E7 PUSH2 0x2EA6 JUMP JUMPDEST DUP3 CALLDATALOAD DUP2 MSTORE PUSH1 0x20 SWAP3 DUP4 ADD CALLDATALOAD SWAP3 DUP2 ADD SWAP3 SWAP1 SWAP3 MSTORE POP SWAP2 SWAP1 POP JUMP JUMPDEST PUSH4 0x4E487B71 PUSH1 0xE0 SHL PUSH0 MSTORE PUSH1 0x32 PUSH1 0x4 MSTORE PUSH1 0x24 PUSH0 REVERT JUMPDEST PUSH0 DUP3 CALLDATALOAD PUSH1 0x5E NOT DUP4 CALLDATASIZE SUB ADD DUP2 SLT PUSH2 0x3126 JUMPI PUSH0 DUP1 REVERT JUMPDEST SWAP2 SWAP1 SWAP2 ADD SWAP3 SWAP2 POP POP JUMP JUMPDEST PUSH0 DUP1 DUP4 CALLDATALOAD PUSH1 0x1E NOT DUP5 CALLDATASIZE SUB ADD DUP2 SLT PUSH2 0x3145 JUMPI PUSH0 DUP1 REVERT JUMPDEST DUP4 ADD DUP1 CALLDATALOAD SWAP2 POP PUSH1 0x1 PUSH1 0x1 PUSH1 0x40 SHL SUB DUP3 GT ISZERO PUSH2 0x315E JUMPI PUSH0 DUP1 REVERT JUMPDEST PUSH1 0x20 ADD SWAP2 POP CALLDATASIZE DUP2 SWAP1 SUB DUP3 SGT ISZERO PUSH2 0x2944 JUMPI PUSH0 DUP1 REVERT JUMPDEST PUSH0 PUSH1 0x20 DUP3 DUP5 SUB SLT ISZERO PUSH2 0x3182 JUMPI PUSH0 DUP1 REVERT JUMPDEST PUSH2 0xBAF DUP3 PUSH2 0x2B20 JUMP JUMPDEST PUSH1 0x1F DUP3 GT ISZERO PUSH2 0x1728 JUMPI DUP1 PUSH0 MSTORE PUSH1 0x20 PUSH0 KECCAK256 PUSH1 0x1F DUP5 ADD PUSH1 0x5 SHR DUP2 ADD PUSH1 0x20 DUP6 LT ISZERO PUSH2 0x31B0 JUMPI POP DUP1 JUMPDEST PUSH1 0x1F DUP5 ADD PUSH1 0x5 SHR DUP3 ADD SWAP2 POP JUMPDEST DUP2 DUP2 LT ISZERO PUSH2 0x1528 JUMPI PUSH0 DUP2 SSTORE PUSH1 0x1 ADD PUSH2 0x31BC JUMP JUMPDEST PUSH1 0x1 PUSH1 0x1 PUSH1 0x40 SHL SUB DUP4 GT ISZERO PUSH2 0x31E6 JUMPI PUSH2 0x31E6 PUSH2 0x2E6A JUMP JUMPDEST PUSH2 0x31FA DUP4 PUSH2 0x31F4 DUP4 SLOAD PUSH2 0x2E38 JUMP JUMPDEST DUP4 PUSH2 0x318B JUMP JUMPDEST PUSH0 PUSH1 0x1F DUP5 GT PUSH1 0x1 DUP2 EQ PUSH2 0x322B JUMPI PUSH0 DUP6 ISZERO PUSH2 0x3214 JUMPI POP DUP4 DUP3 ADD CALLDATALOAD JUMPDEST PUSH0 NOT PUSH1 0x3 DUP8 SWAP1 SHL SHR NOT AND PUSH1 0x1 DUP7 SWAP1 SHL OR DUP4 SSTORE PUSH2 0x1528 JUMP JUMPDEST PUSH0 DUP4 DUP2 MSTORE PUSH1 0x20 DUP2 KECCAK256 PUSH1 0x1F NOT DUP8 AND SWAP2 JUMPDEST DUP3 DUP2 LT ISZERO PUSH2 0x325A JUMPI DUP7 DUP6 ADD CALLDATALOAD DUP3 SSTORE PUSH1 0x20 SWAP5 DUP6 ADD SWAP5 PUSH1 0x1 SWAP1 SWAP3 ADD SWAP2 ADD PUSH2 0x323A JUMP JUMPDEST POP DUP7 DUP3 LT ISZERO PUSH2 0x3276 JUMPI PUSH0 NOT PUSH1 0xF8 DUP9 PUSH1 0x3 SHL AND SHR NOT DUP5 DUP8 ADD CALLDATALOAD AND DUP2 SSTORE JUMPDEST POP POP PUSH1 0x1 DUP6 PUSH1 0x1 SHL ADD DUP4 SSTORE POP POP POP POP POP JUMP JUMPDEST DUP2 DUP4 MSTORE DUP2 DUP2 PUSH1 0x20 DUP6 ADD CALLDATACOPY POP PUSH0 DUP3 DUP3 ADD PUSH1 0x20 SWAP1 DUP2 ADD SWAP2 SWAP1 SWAP2 MSTORE PUSH1 0x1F SWAP1 SWAP2 ADD PUSH1 0x1F NOT AND SWAP1 SWAP2 ADD ADD SWAP1 JUMP JUMPDEST PUSH1 0x20 DUP1 DUP3 MSTORE DUP2 ADD DUP3 SWAP1 MSTORE PUSH0 PUSH1 0x40 PUSH1 0x5 DUP5 SWAP1 SHL DUP4 ADD DUP2 ADD SWAP1 DUP4 ADD DUP6 DUP4 PUSH1 0x5E NOT CALLDATASIZE DUP4 SWAP1 SUB ADD JUMPDEST DUP8 DUP3 LT ISZERO PUSH2 0x3388 JUMPI DUP7 DUP6 SUB PUSH1 0x3F NOT ADD DUP5 MSTORE DUP3 CALLDATALOAD DUP2 DUP2 SLT PUSH2 0x32F2 JUMPI PUSH0 DUP1 REVERT JUMPDEST DUP10 ADD PUSH4 0xFFFFFFFF PUSH2 0x3302 DUP3 PUSH2 0x2A3E JUMP JUMPDEST AND DUP7 MSTORE PUSH2 0xFFFF PUSH2 0x3314 PUSH1 0x20 DUP4 ADD PUSH2 0x2B20 JUMP JUMPDEST AND PUSH1 0x20 DUP8 ADD MSTORE PUSH1 0x40 DUP2 ADD CALLDATALOAD PUSH1 0x1E NOT DUP3 CALLDATASIZE SUB ADD DUP2 SLT PUSH2 0x3330 JUMPI PUSH0 DUP1 REVERT JUMPDEST ADD PUSH1 0x20 DUP2 ADD SWAP1 CALLDATALOAD PUSH1 0x1 PUSH1 0x1 PUSH1 0x40 SHL SUB DUP2 GT ISZERO PUSH2 0x334A JUMPI PUSH0 DUP1 REVERT JUMPDEST DUP1 CALLDATASIZE SUB DUP3 SGT ISZERO PUSH2 0x3358 JUMPI PUSH0 DUP1 REVERT JUMPDEST PUSH1 0x60 PUSH1 0x40 DUP9 ADD MSTORE PUSH2 0x336D PUSH1 0x60 DUP9 ADD DUP3 DUP5 PUSH2 0x3288 JUMP JUMPDEST SWAP7 POP POP POP PUSH1 0x20 DUP4 ADD SWAP3 POP PUSH1 0x20 DUP5 ADD SWAP4 POP PUSH1 0x1 DUP3 ADD SWAP2 POP PUSH2 0x32D4 JUMP JUMPDEST POP SWAP3 SWAP8 SWAP7 POP POP POP POP POP POP POP JUMP JUMPDEST PUSH0 DUP1 DUP6 DUP6 GT ISZERO PUSH2 0x33A3 JUMPI PUSH0 DUP1 REVERT JUMPDEST DUP4 DUP7 GT ISZERO PUSH2 0x33AF JUMPI PUSH0 DUP1 REVERT JUMPDEST POP POP DUP3 ADD SWAP4 SWAP2 SWAP1 SWAP3 SUB SWAP2 POP JUMP JUMPDEST PUSH0 DUP2 MLOAD DUP1 PUSH1 0x20 DUP5 ADD DUP6 MCOPY PUSH0 SWAP4 ADD SWAP3 DUP4 MSTORE POP SWAP1 SWAP2 SWAP1 POP JUMP JUMPDEST PUSH0 PUSH2 0x33DE DUP3 DUP7 PUSH2 0x33BC JUMP JUMPDEST DUP4 DUP6 DUP3 CALLDATACOPY PUSH0 SWAP4 ADD SWAP3 DUP4 MSTORE POP SWAP1 SWAP4 SWAP3 POP POP POP JUMP JUMPDEST PUSH1 0x20 DUP2 MSTORE PUSH0 PUSH2 0x1234 PUSH1 0x20 DUP4 ADD DUP5 DUP7 PUSH2 0x3288 JUMP JUMPDEST PUSH0 DUP3 CALLDATALOAD PUSH2 0x13E NOT DUP4 CALLDATASIZE SUB ADD DUP2 SLT PUSH2 0x3126 JUMPI PUSH0 DUP1 REVERT JUMPDEST PUSH1 0x1 PUSH1 0x1 PUSH1 0x40 SHL SUB DUP2 AND DUP2 EQ PUSH2 0x16E4 JUMPI PUSH0 DUP1 REVERT JUMPDEST PUSH4 0xFFFFFFFF PUSH2 0x343B DUP10 PUSH2 0x2A3E JUMP JUMPDEST AND DUP2 MSTORE PUSH1 0x20 DUP9 DUP2 ADD CALLDATALOAD SWAP1 DUP3 ADD MSTORE PUSH0 PUSH1 0x40 DUP10 ADD CALLDATALOAD PUSH2 0x3457 DUP2 PUSH2 0x3419 JUMP JUMPDEST PUSH1 0x1 PUSH1 0x1 PUSH1 0x40 SHL SUB DUP2 AND PUSH1 0x40 DUP5 ADD MSTORE POP DUP8 PUSH1 0x60 DUP4 ADD MSTORE PUSH1 0xE0 PUSH1 0x80 DUP4 ADD MSTORE PUSH2 0x3482 PUSH1 0xE0 DUP4 ADD DUP8 DUP10 PUSH2 0x3288 JUMP JUMPDEST PUSH1 0x1 PUSH1 0x1 PUSH1 0xA0 SHL SUB DUP7 AND PUSH1 0xA0 DUP5 ADD MSTORE DUP3 DUP2 SUB PUSH1 0xC0 DUP5 ADD MSTORE PUSH2 0x34A4 DUP2 DUP6 DUP8 PUSH2 0x3288 JUMP JUMPDEST SWAP11 SWAP10 POP POP POP POP POP POP POP POP POP POP JUMP JUMPDEST PUSH0 PUSH1 0x20 DUP3 DUP5 SUB SLT ISZERO PUSH2 0x34C2 JUMPI PUSH0 DUP1 REVERT JUMPDEST DUP2 MLOAD PUSH1 0x1 PUSH1 0x1 PUSH1 0x40 SHL SUB DUP2 GT ISZERO PUSH2 0x34D7 JUMPI PUSH0 DUP1 REVERT JUMPDEST DUP3 ADD PUSH1 0x1F DUP2 ADD DUP5 SGT PUSH2 0x34E7 JUMPI PUSH0 DUP1 REVERT JUMPDEST DUP1 MLOAD PUSH2 0x34F5 PUSH2 0x2F75 DUP3 PUSH2 0x2EF8 JUMP JUMPDEST DUP2 DUP2 MSTORE DUP6 PUSH1 0x20 DUP4 DUP6 ADD ADD GT ISZERO PUSH2 0x3509 JUMPI PUSH0 DUP1 REVERT JUMPDEST DUP2 PUSH1 0x20 DUP5 ADD PUSH1 0x20 DUP4 ADD MCOPY PUSH0 SWAP2 DUP2 ADD PUSH1 0x20 ADD SWAP2 SWAP1 SWAP2 MSTORE SWAP5 SWAP4 POP POP POP POP JUMP JUMPDEST PUSH0 PUSH1 0x20 DUP3 DUP5 SUB SLT ISZERO PUSH2 0x3536 JUMPI PUSH0 DUP1 REVERT JUMPDEST DUP2 MLOAD PUSH2 0xBAF DUP2 PUSH2 0x2A70 JUMP JUMPDEST PUSH0 PUSH1 0x20 DUP3 DUP5 SUB SLT ISZERO PUSH2 0x3551 JUMPI PUSH0 DUP1 REVERT JUMPDEST DUP2 CALLDATALOAD PUSH2 0xBAF DUP2 PUSH2 0x3419 JUMP JUMPDEST PUSH1 0x1 DUP1 PUSH1 0xA0 SHL SUB DUP6 AND DUP2 MSTORE DUP4 PUSH1 0x20 DUP3 ADD MSTORE PUSH2 0xFFFF DUP4 AND PUSH1 0x40 DUP3 ADD MSTORE PUSH1 0x80 PUSH1 0x60 DUP3 ADD MSTORE PUSH0 PUSH2 0xC6D PUSH1 0x80 DUP4 ADD DUP5 PUSH2 0x2797 JUMP JUMPDEST PUSH1 0x40 DUP2 MSTORE PUSH0 PUSH2 0x359E PUSH1 0x40 DUP4 ADD DUP6 PUSH2 0x2797 JUMP JUMPDEST DUP3 DUP2 SUB PUSH1 0x20 DUP5 ADD MSTORE PUSH2 0x1DBF DUP2 DUP6 PUSH2 0x2797 JUMP JUMPDEST PUSH1 0x40 DUP2 MSTORE PUSH4 0xFFFFFFFF DUP4 MLOAD AND PUSH1 0x40 DUP3 ADD MSTORE PUSH1 0x20 DUP4 ADD MLOAD PUSH1 0x60 DUP3 ADD MSTORE PUSH0 PUSH1 0x40 DUP5 ADD MLOAD PUSH1 0xA0 PUSH1 0x80 DUP5 ADD MSTORE PUSH2 0x35E5 PUSH1 0xE0 DUP5 ADD DUP3 PUSH2 0x2797 JUMP JUMPDEST SWAP1 POP PUSH1 0x60 DUP6 ADD MLOAD PUSH1 0x3F NOT DUP5 DUP4 SUB ADD PUSH1 0xA0 DUP6 ADD MSTORE PUSH2 0x3602 DUP3 DUP3 PUSH2 0x2797 JUMP JUMPDEST PUSH1 0x80 SWAP7 SWAP1 SWAP7 ADD MLOAD ISZERO ISZERO PUSH1 0xC0 DUP6 ADD MSTORE POP POP POP PUSH1 0x1 PUSH1 0x1 PUSH1 0xA0 SHL SUB SWAP2 SWAP1 SWAP2 AND PUSH1 0x20 SWAP1 SWAP2 ADD MSTORE SWAP1 JUMP JUMPDEST PUSH0 PUSH1 0x40 DUP3 DUP5 SUB SLT ISZERO PUSH2 0x3638 JUMPI PUSH0 DUP1 REVERT JUMPDEST PUSH2 0x3640 PUSH2 0x2EA6 JUMP JUMPDEST DUP3 MLOAD DUP2 MSTORE PUSH1 0x20 SWAP3 DUP4 ADD MLOAD SWAP3 DUP2 ADD SWAP3 SWAP1 SWAP3 MSTORE POP SWAP2 SWAP1 POP JUMP JUMPDEST PUSH0 PUSH1 0x40 DUP3 DUP5 SUB SLT ISZERO PUSH2 0x3667 JUMPI PUSH0 DUP1 REVERT JUMPDEST PUSH2 0xBAF DUP4 DUP4 PUSH2 0x3628 JUMP JUMPDEST PUSH0 PUSH1 0x80 DUP3 DUP5 SUB SLT DUP1 ISZERO PUSH2 0x3682 JUMPI PUSH0 DUP1 REVERT JUMPDEST POP PUSH1 0x40 MLOAD PUSH1 0x60 DUP2 ADD PUSH1 0x1 PUSH1 0x1 PUSH1 0x40 SHL SUB DUP2 GT DUP3 DUP3 LT OR ISZERO PUSH2 0x36A5 JUMPI PUSH2 0x36A5 PUSH2 0x2E6A JUMP JUMPDEST PUSH1 0x40 MSTORE DUP3 MLOAD DUP2 MSTORE PUSH1 0x20 DUP4 ADD MLOAD PUSH2 0x36BA DUP2 PUSH2 0x3419 JUMP JUMPDEST PUSH1 0x20 DUP3 ADD MSTORE PUSH2 0x36CC DUP5 PUSH1 0x40 DUP6 ADD PUSH2 0x3628 JUMP JUMPDEST PUSH1 0x40 DUP3 ADD MSTORE SWAP4 SWAP3 POP POP POP JUMP JUMPDEST DUP1 CALLDATALOAD PUSH1 0x1 PUSH1 0x1 PUSH1 0xF0 SHL SUB NOT DUP2 AND SWAP1 PUSH1 0x2 DUP5 LT ISZERO PUSH2 0x3709 JUMPI PUSH1 0x1 PUSH1 0x1 PUSH1 0xF0 SHL SUB NOT PUSH1 0x2 DUP6 SWAP1 SUB PUSH1 0x3 SHL DUP2 SWAP1 SHL DUP3 AND AND SWAP2 POP JUMPDEST POP SWAP3 SWAP2 POP POP JUMP JUMPDEST PUSH4 0x4E487B71 PUSH1 0xE0 SHL PUSH0 MSTORE PUSH1 0x11 PUSH1 0x4 MSTORE PUSH1 0x24 PUSH0 REVERT JUMPDEST PUSH0 DUP3 PUSH2 0x373E JUMPI PUSH4 0x4E487B71 PUSH1 0xE0 SHL PUSH0 MSTORE PUSH1 0x12 PUSH1 0x4 MSTORE PUSH1 0x24 PUSH0 REVERT JUMPDEST POP DIV SWAP1 JUMP JUMPDEST DUP1 DUP3 MUL DUP2 ISZERO DUP3 DUP3 DIV DUP5 EQ OR PUSH2 0x985 JUMPI PUSH2 0x985 PUSH2 0x3710 JUMP JUMPDEST PUSH1 0x20 DUP1 DUP3 MSTORE PUSH1 0x11 SWAP1 DUP3 ADD MSTORE PUSH17 0x13595CDCD859D9481D1BDBC81CDA1BDC9D PUSH1 0x7A SHL PUSH1 0x40 DUP3 ADD MSTORE PUSH1 0x60 ADD SWAP1 JUMP JUMPDEST DUP1 CALLDATALOAD PUSH1 0x20 DUP4 LT ISZERO PUSH2 0x985 JUMPI PUSH0 NOT PUSH1 0x20 DUP5 SWAP1 SUB PUSH1 0x3 SHL SHL AND SWAP3 SWAP2 POP POP JUMP JUMPDEST DUP1 CALLDATALOAD PUSH1 0x1 PUSH1 0x1 PUSH1 0xC0 SHL SUB NOT DUP2 AND SWAP1 PUSH1 0x8 DUP5 LT ISZERO PUSH2 0x3709 JUMPI PUSH1 0x1 PUSH1 0x1 PUSH1 0xC0 SHL SUB NOT PUSH1 0x8 SWAP5 SWAP1 SWAP5 SUB PUSH1 0x3 SHL DUP5 SWAP1 SHL AND SWAP1 SWAP3 AND SWAP3 SWAP2 POP POP JUMP JUMPDEST DUP2 DUP2 SUB DUP2 DUP2 GT ISZERO PUSH2 0x985 JUMPI PUSH2 0x985 PUSH2 0x3710 JUMP JUMPDEST DUP1 DUP3 ADD DUP1 DUP3 GT ISZERO PUSH2 0x985 JUMPI PUSH2 0x985 PUSH2 0x3710 JUMP JUMPDEST PUSH1 0xC0 DUP6 SWAP1 SHL PUSH1 0x1 PUSH1 0x1 PUSH1 0xC0 SHL SUB NOT AND DUP2 MSTORE PUSH1 0xE0 DUP5 SWAP1 SHL PUSH1 0x1 PUSH1 0x1 PUSH1 0xE0 SHL SUB NOT AND PUSH1 0x8 DUP3 ADD MSTORE PUSH1 0xC DUP2 ADD DUP4 SWAP1 MSTORE PUSH0 PUSH2 0xC6D PUSH1 0x2C DUP4 ADD DUP5 PUSH2 0x33BC JUMP JUMPDEST DUP5 DUP2 MSTORE PUSH1 0x1 PUSH1 0x1 PUSH1 0x40 SHL SUB PUSH1 0xC0 SHL DUP5 PUSH1 0xC0 SHL AND PUSH1 0x20 DUP3 ADD MSTORE DUP3 PUSH1 0x28 DUP3 ADD MSTORE PUSH0 PUSH2 0xC6D PUSH1 0x48 DUP4 ADD DUP5 PUSH2 0x33BC JUMP JUMPDEST PUSH0 PUSH1 0x20 DUP3 DUP5 SUB SLT ISZERO PUSH2 0x3874 JUMPI PUSH0 DUP1 REVERT JUMPDEST DUP2 MLOAD PUSH2 0xBAF DUP2 PUSH2 0x27D7 JUMP JUMPDEST PUSH0 PUSH2 0xBAF DUP3 DUP5 PUSH2 0x33BC JUMP INVALID LOG2 PUSH5 0x6970667358 0x22 SLT KECCAK256 0xD6 CODESIZE POP SIGNEXTEND 0xE5 0xBE POP SLOAD BLOBBASEFEE TLOAD ADDRESS 0xD1 DUP12 0xFB LOG3 0xF9 0xDF 0xD0 DUP10 0x2B MUL MSTORE8 GASPRICE 0xF7 BASEFEE 0xDC SWAP8 0xBC 0xFB OR NUMBER DIV PUSH5 0x736F6C6343 STOP ADDMOD BYTE STOP CALLER "
		},
		"gasEstimates": {
			"creation": {
				"codeDepositCost": "2905600",
				"executionCost": "infinite",
				"totalCost": "infinite"
			},
			"external": {
				"SEND()": "337",
				"SEND_AND_CALL()": "360",
				"allowInitializePath((uint32,bytes32,uint64))": "infinite",
				"allowance(address,address)": "infinite",
				"approvalRequired()": "263",
				"approve(address,uint256)": "24775",
				"balanceOf(address)": "2574",
				"captainHook()": "2470",
				"combineOptions(uint32,uint16,bytes)": "infinite",
				"composeMsgSender()": "344",
				"decimalConversionRate()": "infinite",
				"decimals()": "235",
				"endpoint()": "infinite",
				"enforcedOptions(uint32,uint16)": "infinite",
				"isPeer(uint32,bytes32)": "2616",
				"lzReceive((uint32,bytes32,uint64),bytes32,bytes,address,bytes)": "infinite",
				"lzReceiveAndRevert(((uint32,bytes32,uint64),uint32,address,bytes32,uint256,address,bytes,bytes)[])": "infinite",
				"lzReceiveSimulate((uint32,bytes32,uint64),bytes32,bytes,address,bytes)": "infinite",
				"msgInspector()": "2449",
				"name()": "infinite",
				"nextNonce(uint32,bytes32)": "477",
				"oApp()": "367",
				"oAppVersion()": "284",
				"oftVersion()": "268",
				"owner()": "2463",
				"peers(uint32)": "2549",
				"preCrime()": "2447",
				"quoteOFT((uint32,bytes32,uint256,uint256,bytes,bytes,bytes))": "infinite",
				"quoteSend((uint32,bytes32,uint256,uint256,bytes,bytes,bytes),bool)": "infinite",
				"quoteSendAsCollateral((uint32,bytes32,uint256,uint256,bytes,bytes,bytes),(address,address,address,address,uint24,bytes32),bool)": "infinite",
				"renounceOwnership()": "infinite",
				"send((uint32,bytes32,uint256,uint256,bytes,bytes,bytes),(uint256,uint256),address)": "infinite",
				"sendAsCollateral((uint32,bytes32,uint256,uint256,bytes,bytes,bytes),(uint256,uint256),address,(address,address,address,address,uint24,bytes32))": "infinite",
				"setCaptainHook(address)": "26747",
				"setDelegate(address)": "infinite",
				"setEnforcedOptions((uint32,uint16,bytes)[])": "infinite",
				"setMsgInspector(address)": "27935",
				"setPeer(uint32,bytes32)": "26068",
				"setPreCrime(address)": "27858",
				"sharedDecimals()": "312",
				"symbol()": "infinite",
				"token()": "321",
				"totalSupply()": "2392",
				"transfer(address,uint256)": "51290",
				"transferFrom(address,address,uint256)": "infinite",
				"transferOwnership(address)": "infinite",
				"tryDecodeMsg(bytes)": "infinite",
				"unwrap(uint256)": "infinite",
				"wrap(uint256)": "infinite"
			},
			"internal": {
				"_lzReceive(struct Origin calldata,bytes32,bytes calldata,address,bytes calldata)": "infinite",
				"amountSD(bytes memory)": "infinite",
				"composeMsgMemory(bytes memory)": "infinite",
				"isComposed(bytes memory)": "infinite",
				"sendTo(bytes memory)": "infinite"
			}
		},
		"methodIdentifiers": {
			"SEND()": "1f5e1334",
			"SEND_AND_CALL()": "134d4f25",
			"allowInitializePath((uint32,bytes32,uint64))": "ff7bd03d",
			"allowance(address,address)": "dd62ed3e",
			"approvalRequired()": "9f68b964",
			"approve(address,uint256)": "095ea7b3",
			"balanceOf(address)": "70a08231",
			"captainHook()": "442c876d",
			"combineOptions(uint32,uint16,bytes)": "bc70b354",
			"composeMsgSender()": "b92d0eff",
			"decimalConversionRate()": "963efcaa",
			"decimals()": "313ce567",
			"endpoint()": "5e280f11",
			"enforcedOptions(uint32,uint16)": "5535d461",
			"isPeer(uint32,bytes32)": "5a0dfe4d",
			"lzReceive((uint32,bytes32,uint64),bytes32,bytes,address,bytes)": "13137d65",
			"lzReceiveAndRevert(((uint32,bytes32,uint64),uint32,address,bytes32,uint256,address,bytes,bytes)[])": "bd815db0",
			"lzReceiveSimulate((uint32,bytes32,uint64),bytes32,bytes,address,bytes)": "d045a0dc",
			"msgInspector()": "111ecdad",
			"name()": "06fdde03",
			"nextNonce(uint32,bytes32)": "7d25a05e",
			"oApp()": "52ae2879",
			"oAppVersion()": "17442b70",
			"oftVersion()": "156a0d0f",
			"owner()": "8da5cb5b",
			"peers(uint32)": "bb0b6a53",
			"preCrime()": "b731ea0a",
			"quoteOFT((uint32,bytes32,uint256,uint256,bytes,bytes,bytes))": "0d35b415",
			"quoteSend((uint32,bytes32,uint256,uint256,bytes,bytes,bytes),bool)": "3b6f743b",
			"quoteSendAsCollateral((uint32,bytes32,uint256,uint256,bytes,bytes,bytes),(address,address,address,address,uint24,bytes32),bool)": "657a4a25",
			"renounceOwnership()": "715018a6",
			"send((uint32,bytes32,uint256,uint256,bytes,bytes,bytes),(uint256,uint256),address)": "c7c7f5b3",
			"sendAsCollateral((uint32,bytes32,uint256,uint256,bytes,bytes,bytes),(uint256,uint256),address,(address,address,address,address,uint24,bytes32))": "6d70e9a8",
			"setCaptainHook(address)": "14531de8",
			"setDelegate(address)": "ca5eb5e1",
			"setEnforcedOptions((uint32,uint16,bytes)[])": "b98bd070",
			"setMsgInspector(address)": "6fc1b31e",
			"setPeer(uint32,bytes32)": "3400288b",
			"setPreCrime(address)": "d4243885",
			"sharedDecimals()": "857749b0",
			"symbol()": "95d89b41",
			"token()": "fc0c546a",
			"totalSupply()": "18160ddd",
			"transfer(address,uint256)": "a9059cbb",
			"transferFrom(address,address,uint256)": "23b872dd",
			"transferOwnership(address)": "f2fde38b",
			"tryDecodeMsg(bytes)": "416fc591",
			"unwrap(uint256)": "de0e9a3e",
			"wrap(uint256)": "ea598cb0"
		}
	},
	"abi": [
		{
			"inputs": [
				{
					"internalType": "string",
					"name": "_name",
					"type": "string"
				},
				{
					"internalType": "string",
					"name": "_symbol",
					"type": "string"
				},
				{
					"internalType": "address",
					"name": "_lzEndpoint",
					"type": "address"
				},
				{
					"internalType": "address",
					"name": "_delegate",
					"type": "address"
				},
				{
					"internalType": "address",
					"name": "_baseToken",
					"type": "address"
				}
			],
			"stateMutability": "nonpayable",
			"type": "constructor"
		},
		{
			"inputs": [
				{
					"internalType": "address",
					"name": "target",
					"type": "address"
				}
			],
			"name": "AddressEmptyCode",
			"type": "error"
		},
		{
			"inputs": [
				{
					"internalType": "address",
					"name": "account",
					"type": "address"
				}
			],
			"name": "AddressInsufficientBalance",
			"type": "error"
		},
		{
			"inputs": [
				{
					"internalType": "address",
					"name": "spender",
					"type": "address"
				},
				{
					"internalType": "uint256",
					"name": "allowance",
					"type": "uint256"
				},
				{
					"internalType": "uint256",
					"name": "needed",
					"type": "uint256"
				}
			],
			"name": "ERC20InsufficientAllowance",
			"type": "error"
		},
		{
			"inputs": [
				{
					"internalType": "address",
					"name": "sender",
					"type": "address"
				},
				{
					"internalType": "uint256",
					"name": "balance",
					"type": "uint256"
				},
				{
					"internalType": "uint256",
					"name": "needed",
					"type": "uint256"
				}
			],
			"name": "ERC20InsufficientBalance",
			"type": "error"
		},
		{
			"inputs": [
				{
					"internalType": "address",
					"name": "approver",
					"type": "address"
				}
			],
			"name": "ERC20InvalidApprover",
			"type": "error"
		},
		{
			"inputs": [
				{
					"internalType": "address",
					"name": "receiver",
					"type": "address"
				}
			],
			"name": "ERC20InvalidReceiver",
			"type": "error"
		},
		{
			"inputs": [
				{
					"internalType": "address",
					"name": "sender",
					"type": "address"
				}
			],
			"name": "ERC20InvalidSender",
			"type": "error"
		},
		{
			"inputs": [
				{
					"internalType": "address",
					"name": "spender",
					"type": "address"
				}
			],
			"name": "ERC20InvalidSpender",
			"type": "error"
		},
		{
			"inputs": [],
			"name": "FailedInnerCall",
			"type": "error"
		},
		{
			"inputs": [],
			"name": "InvalidDelegate",
			"type": "error"
		},
		{
			"inputs": [],
			"name": "InvalidEndpointCall",
			"type": "error"
		},
		{
			"inputs": [],
			"name": "InvalidLocalDecimals",
			"type": "error"
		},
		{
			"inputs": [
				{
					"internalType": "bytes",
					"name": "options",
					"type": "bytes"
				}
			],
			"name": "InvalidOptions",
			"type": "error"
		},
		{
			"inputs": [],
			"name": "LzTokenUnavailable",
			"type": "error"
		},
		{
			"inputs": [
				{
					"internalType": "uint32",
					"name": "eid",
					"type": "uint32"
				}
			],
			"name": "NoPeer",
			"type": "error"
		},
		{
			"inputs": [
				{
					"internalType": "uint256",
					"name": "msgValue",
					"type": "uint256"
				}
			],
			"name": "NotEnoughNative",
			"type": "error"
		},
		{
			"inputs": [
				{
					"internalType": "address",
					"name": "addr",
					"type": "address"
				}
			],
			"name": "OnlyEndpoint",
			"type": "error"
		},
		{
			"inputs": [
				{
					"internalType": "uint32",
					"name": "eid",
					"type": "uint32"
				},
				{
					"internalType": "bytes32",
					"name": "sender",
					"type": "bytes32"
				}
			],
			"name": "OnlyPeer",
			"type": "error"
		},
		{
			"inputs": [],
			"name": "OnlySelf",
			"type": "error"
		},
		{
			"inputs": [
				{
					"internalType": "address",
					"name": "owner",
					"type": "address"
				}
			],
			"name": "OwnableInvalidOwner",
			"type": "error"
		},
		{
			"inputs": [
				{
					"internalType": "address",
					"name": "account",
					"type": "address"
				}
			],
			"name": "OwnableUnauthorizedAccount",
			"type": "error"
		},
		{
			"inputs": [
				{
					"internalType": "address",
					"name": "token",
					"type": "address"
				}
			],
			"name": "SafeERC20FailedOperation",
			"type": "error"
		},
		{
			"inputs": [
				{
					"internalType": "bytes",
					"name": "result",
					"type": "bytes"
				}
			],
			"name": "SimulationResult",
			"type": "error"
		},
		{
			"inputs": [
				{
					"internalType": "uint256",
					"name": "amountLD",
					"type": "uint256"
				},
				{
					"internalType": "uint256",
					"name": "minAmountLD",
					"type": "uint256"
				}
			],
			"name": "SlippageExceeded",
			"type": "error"
		},
		{
			"anonymous": false,
			"inputs": [
				{
					"indexed": true,
					"internalType": "address",
					"name": "owner",
					"type": "address"
				},
				{
					"indexed": true,
					"internalType": "address",
					"name": "spender",
					"type": "address"
				},
				{
					"indexed": false,
					"internalType": "uint256",
					"name": "value",
					"type": "uint256"
				}
			],
			"name": "Approval",
			"type": "event"
		},
		{
			"anonymous": false,
			"inputs": [
				{
					"components": [
						{
							"internalType": "uint32",
							"name": "eid",
							"type": "uint32"
						},
						{
							"internalType": "uint16",
							"name": "msgType",
							"type": "uint16"
						},
						{
							"internalType": "bytes",
							"name": "options",
							"type": "bytes"
						}
					],
					"indexed": false,
					"internalType": "struct EnforcedOptionParam[]",
					"name": "_enforcedOptions",
					"type": "tuple[]"
				}
			],
			"name": "EnforcedOptionSet",
			"type": "event"
		},
		{
			"anonymous": false,
			"inputs": [
				{
					"indexed": false,
					"internalType": "address",
					"name": "inspector",
					"type": "address"
				}
			],
			"name": "MsgInspectorSet",
			"type": "event"
		},
		{
			"anonymous": false,
			"inputs": [
				{
					"indexed": true,
					"internalType": "bytes32",
					"name": "guid",
					"type": "bytes32"
				},
				{
					"indexed": false,
					"internalType": "uint32",
					"name": "srcEid",
					"type": "uint32"
				},
				{
					"indexed": true,
					"internalType": "address",
					"name": "toAddress",
					"type": "address"
				},
				{
					"indexed": false,
					"internalType": "uint256",
					"name": "amountReceivedLD",
					"type": "uint256"
				}
			],
			"name": "OFTReceived",
			"type": "event"
		},
		{
			"anonymous": false,
			"inputs": [
				{
					"indexed": true,
					"internalType": "bytes32",
					"name": "guid",
					"type": "bytes32"
				},
				{
					"indexed": false,
					"internalType": "uint32",
					"name": "dstEid",
					"type": "uint32"
				},
				{
					"indexed": true,
					"internalType": "address",
					"name": "fromAddress",
					"type": "address"
				},
				{
					"indexed": false,
					"internalType": "uint256",
					"name": "amountSentLD",
					"type": "uint256"
				},
				{
					"indexed": false,
					"internalType": "uint256",
					"name": "amountReceivedLD",
					"type": "uint256"
				}
			],
			"name": "OFTSent",
			"type": "event"
		},
		{
			"anonymous": false,
			"inputs": [
				{
					"indexed": true,
					"internalType": "address",
					"name": "previousOwner",
					"type": "address"
				},
				{
					"indexed": true,
					"internalType": "address",
					"name": "newOwner",
					"type": "address"
				}
			],
			"name": "OwnershipTransferred",
			"type": "event"
		},
		{
			"anonymous": false,
			"inputs": [
				{
					"indexed": false,
					"internalType": "uint32",
					"name": "eid",
					"type": "uint32"
				},
				{
					"indexed": false,
					"internalType": "bytes32",
					"name": "peer",
					"type": "bytes32"
				}
			],
			"name": "PeerSet",
			"type": "event"
		},
		{
			"anonymous": false,
			"inputs": [
				{
					"indexed": false,
					"internalType": "address",
					"name": "preCrimeAddress",
					"type": "address"
				}
			],
			"name": "PreCrimeSet",
			"type": "event"
		},
		{
			"anonymous": false,
			"inputs": [
				{
					"indexed": true,
					"internalType": "address",
					"name": "from",
					"type": "address"
				},
				{
					"indexed": true,
					"internalType": "address",
					"name": "to",
					"type": "address"
				},
				{
					"indexed": false,
					"internalType": "uint256",
					"name": "value",
					"type": "uint256"
				}
			],
			"name": "Transfer",
			"type": "event"
		},
		{
			"anonymous": false,
			"inputs": [
				{
					"indexed": true,
					"internalType": "address",
					"name": "user",
					"type": "address"
				},
				{
					"indexed": true,
					"internalType": "uint256",
					"name": "amount",
					"type": "uint256"
				}
			],
			"name": "Unwrap",
			"type": "event"
		},
		{
			"anonymous": false,
			"inputs": [
				{
					"indexed": true,
					"internalType": "address",
					"name": "user",
					"type": "address"
				},
				{
					"indexed": true,
					"internalType": "uint256",
					"name": "amount",
					"type": "uint256"
				}
			],
			"name": "Wrap",
			"type": "event"
		},
		{
			"inputs": [],
			"name": "SEND",
			"outputs": [
				{
					"internalType": "uint16",
					"name": "",
					"type": "uint16"
				}
			],
			"stateMutability": "view",
			"type": "function"
		},
		{
			"inputs": [],
			"name": "SEND_AND_CALL",
			"outputs": [
				{
					"internalType": "uint16",
					"name": "",
					"type": "uint16"
				}
			],
			"stateMutability": "view",
			"type": "function"
		},
		{
			"inputs": [
				{
					"components": [
						{
							"internalType": "uint32",
							"name": "srcEid",
							"type": "uint32"
						},
						{
							"internalType": "bytes32",
							"name": "sender",
							"type": "bytes32"
						},
						{
							"internalType": "uint64",
							"name": "nonce",
							"type": "uint64"
						}
					],
					"internalType": "struct Origin",
					"name": "origin",
					"type": "tuple"
				}
			],
			"name": "allowInitializePath",
			"outputs": [
				{
					"internalType": "bool",
					"name": "",
					"type": "bool"
				}
			],
			"stateMutability": "view",
			"type": "function"
		},
		{
			"inputs": [
				{
					"internalType": "address",
					"name": "owner",
					"type": "address"
				},
				{
					"internalType": "address",
					"name": "spender",
					"type": "address"
				}
			],
			"name": "allowance",
			"outputs": [
				{
					"internalType": "uint256",
					"name": "",
					"type": "uint256"
				}
			],
			"stateMutability": "view",
			"type": "function"
		},
		{
			"inputs": [],
			"name": "approvalRequired",
			"outputs": [
				{
					"internalType": "bool",
					"name": "",
					"type": "bool"
				}
			],
			"stateMutability": "pure",
			"type": "function"
		},
		{
			"inputs": [
				{
					"internalType": "address",
					"name": "spender",
					"type": "address"
				},
				{
					"internalType": "uint256",
					"name": "value",
					"type": "uint256"
				}
			],
			"name": "approve",
			"outputs": [
				{
					"internalType": "bool",
					"name": "",
					"type": "bool"
				}
			],
			"stateMutability": "nonpayable",
			"type": "function"
		},
		{
			"inputs": [
				{
					"internalType": "address",
					"name": "account",
					"type": "address"
				}
			],
			"name": "balanceOf",
			"outputs": [
				{
					"internalType": "uint256",
					"name": "",
					"type": "uint256"
				}
			],
			"stateMutability": "view",
			"type": "function"
		},
		{
			"inputs": [],
			"name": "captainHook",
			"outputs": [
				{
					"internalType": "contract ICaptainHook",
					"name": "",
					"type": "address"
				}
			],
			"stateMutability": "view",
			"type": "function"
		},
		{
			"inputs": [
				{
					"internalType": "uint32",
					"name": "_eid",
					"type": "uint32"
				},
				{
					"internalType": "uint16",
					"name": "_msgType",
					"type": "uint16"
				},
				{
					"internalType": "bytes",
					"name": "_extraOptions",
					"type": "bytes"
				}
			],
			"name": "combineOptions",
			"outputs": [
				{
					"internalType": "bytes",
					"name": "",
					"type": "bytes"
				}
			],
			"stateMutability": "view",
			"type": "function"
		},
		{
			"inputs": [],
			"name": "composeMsgSender",
			"outputs": [
				{
					"internalType": "address",
					"name": "sender",
					"type": "address"
				}
			],
			"stateMutability": "view",
			"type": "function"
		},
		{
			"inputs": [],
			"name": "decimalConversionRate",
			"outputs": [
				{
					"internalType": "uint256",
					"name": "",
					"type": "uint256"
				}
			],
			"stateMutability": "view",
			"type": "function"
		},
		{
			"inputs": [],
			"name": "decimals",
			"outputs": [
				{
					"internalType": "uint8",
					"name": "",
					"type": "uint8"
				}
			],
			"stateMutability": "view",
			"type": "function"
		},
		{
			"inputs": [],
			"name": "endpoint",
			"outputs": [
				{
					"internalType": "contract ILayerZeroEndpointV2",
					"name": "",
					"type": "address"
				}
			],
			"stateMutability": "view",
			"type": "function"
		},
		{
			"inputs": [
				{
					"internalType": "uint32",
					"name": "eid",
					"type": "uint32"
				},
				{
					"internalType": "uint16",
					"name": "msgType",
					"type": "uint16"
				}
			],
			"name": "enforcedOptions",
			"outputs": [
				{
					"internalType": "bytes",
					"name": "enforcedOption",
					"type": "bytes"
				}
			],
			"stateMutability": "view",
			"type": "function"
		},
		{
			"inputs": [
				{
					"internalType": "uint32",
					"name": "_eid",
					"type": "uint32"
				},
				{
					"internalType": "bytes32",
					"name": "_peer",
					"type": "bytes32"
				}
			],
			"name": "isPeer",
			"outputs": [
				{
					"internalType": "bool",
					"name": "",
					"type": "bool"
				}
			],
			"stateMutability": "view",
			"type": "function"
		},
		{
			"inputs": [
				{
					"components": [
						{
							"internalType": "uint32",
							"name": "srcEid",
							"type": "uint32"
						},
						{
							"internalType": "bytes32",
							"name": "sender",
							"type": "bytes32"
						},
						{
							"internalType": "uint64",
							"name": "nonce",
							"type": "uint64"
						}
					],
					"internalType": "struct Origin",
					"name": "_origin",
					"type": "tuple"
				},
				{
					"internalType": "bytes32",
					"name": "_guid",
					"type": "bytes32"
				},
				{
					"internalType": "bytes",
					"name": "_message",
					"type": "bytes"
				},
				{
					"internalType": "address",
					"name": "_executor",
					"type": "address"
				},
				{
					"internalType": "bytes",
					"name": "_extraData",
					"type": "bytes"
				}
			],
			"name": "lzReceive",
			"outputs": [],
			"stateMutability": "payable",
			"type": "function"
		},
		{
			"inputs": [
				{
					"components": [
						{
							"components": [
								{
									"internalType": "uint32",
									"name": "srcEid",
									"type": "uint32"
								},
								{
									"internalType": "bytes32",
									"name": "sender",
									"type": "bytes32"
								},
								{
									"internalType": "uint64",
									"name": "nonce",
									"type": "uint64"
								}
							],
							"internalType": "struct Origin",
							"name": "origin",
							"type": "tuple"
						},
						{
							"internalType": "uint32",
							"name": "dstEid",
							"type": "uint32"
						},
						{
							"internalType": "address",
							"name": "receiver",
							"type": "address"
						},
						{
							"internalType": "bytes32",
							"name": "guid",
							"type": "bytes32"
						},
						{
							"internalType": "uint256",
							"name": "value",
							"type": "uint256"
						},
						{
							"internalType": "address",
							"name": "executor",
							"type": "address"
						},
						{
							"internalType": "bytes",
							"name": "message",
							"type": "bytes"
						},
						{
							"internalType": "bytes",
							"name": "extraData",
							"type": "bytes"
						}
					],
					"internalType": "struct InboundPacket[]",
					"name": "_packets",
					"type": "tuple[]"
				}
			],
			"name": "lzReceiveAndRevert",
			"outputs": [],
			"stateMutability": "payable",
			"type": "function"
		},
		{
			"inputs": [
				{
					"components": [
						{
							"internalType": "uint32",
							"name": "srcEid",
							"type": "uint32"
						},
						{
							"internalType": "bytes32",
							"name": "sender",
							"type": "bytes32"
						},
						{
							"internalType": "uint64",
							"name": "nonce",
							"type": "uint64"
						}
					],
					"internalType": "struct Origin",
					"name": "_origin",
					"type": "tuple"
				},
				{
					"internalType": "bytes32",
					"name": "_guid",
					"type": "bytes32"
				},
				{
					"internalType": "bytes",
					"name": "_message",
					"type": "bytes"
				},
				{
					"internalType": "address",
					"name": "_executor",
					"type": "address"
				},
				{
					"internalType": "bytes",
					"name": "_extraData",
					"type": "bytes"
				}
			],
			"name": "lzReceiveSimulate",
			"outputs": [],
			"stateMutability": "payable",
			"type": "function"
		},
		{
			"inputs": [],
			"name": "msgInspector",
			"outputs": [
				{
					"internalType": "address",
					"name": "",
					"type": "address"
				}
			],
			"stateMutability": "view",
			"type": "function"
		},
		{
			"inputs": [],
			"name": "name",
			"outputs": [
				{
					"internalType": "string",
					"name": "",
					"type": "string"
				}
			],
			"stateMutability": "view",
			"type": "function"
		},
		{
			"inputs": [
				{
					"internalType": "uint32",
					"name": "",
					"type": "uint32"
				},
				{
					"internalType": "bytes32",
					"name": "",
					"type": "bytes32"
				}
			],
			"name": "nextNonce",
			"outputs": [
				{
					"internalType": "uint64",
					"name": "nonce",
					"type": "uint64"
				}
			],
			"stateMutability": "view",
			"type": "function"
		},
		{
			"inputs": [],
			"name": "oApp",
			"outputs": [
				{
					"internalType": "address",
					"name": "",
					"type": "address"
				}
			],
			"stateMutability": "view",
			"type": "function"
		},
		{
			"inputs": [],
			"name": "oAppVersion",
			"outputs": [
				{
					"internalType": "uint64",
					"name": "senderVersion",
					"type": "uint64"
				},
				{
					"internalType": "uint64",
					"name": "receiverVersion",
					"type": "uint64"
				}
			],
			"stateMutability": "pure",
			"type": "function"
		},
		{
			"inputs": [],
			"name": "oftVersion",
			"outputs": [
				{
					"internalType": "bytes4",
					"name": "interfaceId",
					"type": "bytes4"
				},
				{
					"internalType": "uint64",
					"name": "version",
					"type": "uint64"
				}
			],
			"stateMutability": "pure",
			"type": "function"
		},
		{
			"inputs": [],
			"name": "owner",
			"outputs": [
				{
					"internalType": "address",
					"name": "",
					"type": "address"
				}
			],
			"stateMutability": "view",
			"type": "function"
		},
		{
			"inputs": [
				{
					"internalType": "uint32",
					"name": "eid",
					"type": "uint32"
				}
			],
			"name": "peers",
			"outputs": [
				{
					"internalType": "bytes32",
					"name": "peer",
					"type": "bytes32"
				}
			],
			"stateMutability": "view",
			"type": "function"
		},
		{
			"inputs": [],
			"name": "preCrime",
			"outputs": [
				{
					"internalType": "address",
					"name": "",
					"type": "address"
				}
			],
			"stateMutability": "view",
			"type": "function"
		},
		{
			"inputs": [
				{
					"components": [
						{
							"internalType": "uint32",
							"name": "dstEid",
							"type": "uint32"
						},
						{
							"internalType": "bytes32",
							"name": "to",
							"type": "bytes32"
						},
						{
							"internalType": "uint256",
							"name": "amountLD",
							"type": "uint256"
						},
						{
							"internalType": "uint256",
							"name": "minAmountLD",
							"type": "uint256"
						},
						{
							"internalType": "bytes",
							"name": "extraOptions",
							"type": "bytes"
						},
						{
							"internalType": "bytes",
							"name": "composeMsg",
							"type": "bytes"
						},
						{
							"internalType": "bytes",
							"name": "oftCmd",
							"type": "bytes"
						}
					],
					"internalType": "struct SendParam",
					"name": "_sendParam",
					"type": "tuple"
				}
			],
			"name": "quoteOFT",
			"outputs": [
				{
					"components": [
						{
							"internalType": "uint256",
							"name": "minAmountLD",
							"type": "uint256"
						},
						{
							"internalType": "uint256",
							"name": "maxAmountLD",
							"type": "uint256"
						}
					],
					"internalType": "struct OFTLimit",
					"name": "oftLimit",
					"type": "tuple"
				},
				{
					"components": [
						{
							"internalType": "int256",
							"name": "feeAmountLD",
							"type": "int256"
						},
						{
							"internalType": "string",
							"name": "description",
							"type": "string"
						}
					],
					"internalType": "struct OFTFeeDetail[]",
					"name": "oftFeeDetails",
					"type": "tuple[]"
				},
				{
					"components": [
						{
							"internalType": "uint256",
							"name": "amountSentLD",
							"type": "uint256"
						},
						{
							"internalType": "uint256",
							"name": "amountReceivedLD",
							"type": "uint256"
						}
					],
					"internalType": "struct OFTReceipt",
					"name": "oftReceipt",
					"type": "tuple"
				}
			],
			"stateMutability": "view",
			"type": "function"
		},
		{
			"inputs": [
				{
					"components": [
						{
							"internalType": "uint32",
							"name": "dstEid",
							"type": "uint32"
						},
						{
							"internalType": "bytes32",
							"name": "to",
							"type": "bytes32"
						},
						{
							"internalType": "uint256",
							"name": "amountLD",
							"type": "uint256"
						},
						{
							"internalType": "uint256",
							"name": "minAmountLD",
							"type": "uint256"
						},
						{
							"internalType": "bytes",
							"name": "extraOptions",
							"type": "bytes"
						},
						{
							"internalType": "bytes",
							"name": "composeMsg",
							"type": "bytes"
						},
						{
							"internalType": "bytes",
							"name": "oftCmd",
							"type": "bytes"
						}
					],
					"internalType": "struct SendParam",
					"name": "_sendParam",
					"type": "tuple"
				},
				{
					"internalType": "bool",
					"name": "_payInLzToken",
					"type": "bool"
				}
			],
			"name": "quoteSend",
			"outputs": [
				{
					"components": [
						{
							"internalType": "uint256",
							"name": "nativeFee",
							"type": "uint256"
						},
						{
							"internalType": "uint256",
							"name": "lzTokenFee",
							"type": "uint256"
						}
					],
					"internalType": "struct MessagingFee",
					"name": "msgFee",
					"type": "tuple"
				}
			],
			"stateMutability": "view",
			"type": "function"
		},
		{
			"inputs": [
				{
					"components": [
						{
							"internalType": "uint32",
							"name": "dstEid",
							"type": "uint32"
						},
						{
							"internalType": "bytes32",
							"name": "to",
							"type": "bytes32"
						},
						{
							"internalType": "uint256",
							"name": "amountLD",
							"type": "uint256"
						},
						{
							"internalType": "uint256",
							"name": "minAmountLD",
							"type": "uint256"
						},
						{
							"internalType": "bytes",
							"name": "extraOptions",
							"type": "bytes"
						},
						{
							"internalType": "bytes",
							"name": "composeMsg",
							"type": "bytes"
						},
						{
							"internalType": "bytes",
							"name": "oftCmd",
							"type": "bytes"
						}
					],
					"internalType": "struct SendParam",
					"name": "_sendParam",
					"type": "tuple"
				},
				{
					"components": [
						{
							"internalType": "Currency",
							"name": "currency0",
							"type": "address"
						},
						{
							"internalType": "Currency",
							"name": "currency1",
							"type": "address"
						},
						{
							"internalType": "contract IHooks",
							"name": "hooks",
							"type": "address"
						},
						{
							"internalType": "contract IPoolManager",
							"name": "poolManager",
							"type": "address"
						},
						{
							"internalType": "uint24",
							"name": "fee",
							"type": "uint24"
						},
						{
							"internalType": "bytes32",
							"name": "parameters",
							"type": "bytes32"
						}
					],
					"internalType": "struct PoolKey",
					"name": "key",
					"type": "tuple"
				},
				{
					"internalType": "bool",
					"name": "_payInLzToken",
					"type": "bool"
				}
			],
			"name": "quoteSendAsCollateral",
			"outputs": [
				{
					"components": [
						{
							"internalType": "uint256",
							"name": "nativeFee",
							"type": "uint256"
						},
						{
							"internalType": "uint256",
							"name": "lzTokenFee",
							"type": "uint256"
						}
					],
					"internalType": "struct MessagingFee",
					"name": "msgFee",
					"type": "tuple"
				}
			],
			"stateMutability": "view",
			"type": "function"
		},
		{
			"inputs": [],
			"name": "renounceOwnership",
			"outputs": [],
			"stateMutability": "nonpayable",
			"type": "function"
		},
		{
			"inputs": [
				{
					"components": [
						{
							"internalType": "uint32",
							"name": "dstEid",
							"type": "uint32"
						},
						{
							"internalType": "bytes32",
							"name": "to",
							"type": "bytes32"
						},
						{
							"internalType": "uint256",
							"name": "amountLD",
							"type": "uint256"
						},
						{
							"internalType": "uint256",
							"name": "minAmountLD",
							"type": "uint256"
						},
						{
							"internalType": "bytes",
							"name": "extraOptions",
							"type": "bytes"
						},
						{
							"internalType": "bytes",
							"name": "composeMsg",
							"type": "bytes"
						},
						{
							"internalType": "bytes",
							"name": "oftCmd",
							"type": "bytes"
						}
					],
					"internalType": "struct SendParam",
					"name": "_sendParam",
					"type": "tuple"
				},
				{
					"components": [
						{
							"internalType": "uint256",
							"name": "nativeFee",
							"type": "uint256"
						},
						{
							"internalType": "uint256",
							"name": "lzTokenFee",
							"type": "uint256"
						}
					],
					"internalType": "struct MessagingFee",
					"name": "_fee",
					"type": "tuple"
				},
				{
					"internalType": "address",
					"name": "_refundAddress",
					"type": "address"
				}
			],
			"name": "send",
			"outputs": [
				{
					"components": [
						{
							"internalType": "bytes32",
							"name": "guid",
							"type": "bytes32"
						},
						{
							"internalType": "uint64",
							"name": "nonce",
							"type": "uint64"
						},
						{
							"components": [
								{
									"internalType": "uint256",
									"name": "nativeFee",
									"type": "uint256"
								},
								{
									"internalType": "uint256",
									"name": "lzTokenFee",
									"type": "uint256"
								}
							],
							"internalType": "struct MessagingFee",
							"name": "fee",
							"type": "tuple"
						}
					],
					"internalType": "struct MessagingReceipt",
					"name": "msgReceipt",
					"type": "tuple"
				},
				{
					"components": [
						{
							"internalType": "uint256",
							"name": "amountSentLD",
							"type": "uint256"
						},
						{
							"internalType": "uint256",
							"name": "amountReceivedLD",
							"type": "uint256"
						}
					],
					"internalType": "struct OFTReceipt",
					"name": "oftReceipt",
					"type": "tuple"
				}
			],
			"stateMutability": "payable",
			"type": "function"
		},
		{
			"inputs": [
				{
					"components": [
						{
							"internalType": "uint32",
							"name": "dstEid",
							"type": "uint32"
						},
						{
							"internalType": "bytes32",
							"name": "to",
							"type": "bytes32"
						},
						{
							"internalType": "uint256",
							"name": "amountLD",
							"type": "uint256"
						},
						{
							"internalType": "uint256",
							"name": "minAmountLD",
							"type": "uint256"
						},
						{
							"internalType": "bytes",
							"name": "extraOptions",
							"type": "bytes"
						},
						{
							"internalType": "bytes",
							"name": "composeMsg",
							"type": "bytes"
						},
						{
							"internalType": "bytes",
							"name": "oftCmd",
							"type": "bytes"
						}
					],
					"internalType": "struct SendParam",
					"name": "_sendParam",
					"type": "tuple"
				},
				{
					"components": [
						{
							"internalType": "uint256",
							"name": "nativeFee",
							"type": "uint256"
						},
						{
							"internalType": "uint256",
							"name": "lzTokenFee",
							"type": "uint256"
						}
					],
					"internalType": "struct MessagingFee",
					"name": "_fee",
					"type": "tuple"
				},
				{
					"internalType": "address",
					"name": "_refundAddress",
					"type": "address"
				},
				{
					"components": [
						{
							"internalType": "Currency",
							"name": "currency0",
							"type": "address"
						},
						{
							"internalType": "Currency",
							"name": "currency1",
							"type": "address"
						},
						{
							"internalType": "contract IHooks",
							"name": "hooks",
							"type": "address"
						},
						{
							"internalType": "contract IPoolManager",
							"name": "poolManager",
							"type": "address"
						},
						{
							"internalType": "uint24",
							"name": "fee",
							"type": "uint24"
						},
						{
							"internalType": "bytes32",
							"name": "parameters",
							"type": "bytes32"
						}
					],
					"internalType": "struct PoolKey",
					"name": "key",
					"type": "tuple"
				}
			],
			"name": "sendAsCollateral",
			"outputs": [
				{
					"components": [
						{
							"internalType": "bytes32",
							"name": "guid",
							"type": "bytes32"
						},
						{
							"internalType": "uint64",
							"name": "nonce",
							"type": "uint64"
						},
						{
							"components": [
								{
									"internalType": "uint256",
									"name": "nativeFee",
									"type": "uint256"
								},
								{
									"internalType": "uint256",
									"name": "lzTokenFee",
									"type": "uint256"
								}
							],
							"internalType": "struct MessagingFee",
							"name": "fee",
							"type": "tuple"
						}
					],
					"internalType": "struct MessagingReceipt",
					"name": "msgReceipt",
					"type": "tuple"
				},
				{
					"components": [
						{
							"internalType": "uint256",
							"name": "amountSentLD",
							"type": "uint256"
						},
						{
							"internalType": "uint256",
							"name": "amountReceivedLD",
							"type": "uint256"
						}
					],
					"internalType": "struct OFTReceipt",
					"name": "oftReceipt",
					"type": "tuple"
				}
			],
			"stateMutability": "payable",
			"type": "function"
		},
		{
			"inputs": [
				{
					"internalType": "address",
					"name": "_captainHook",
					"type": "address"
				}
			],
			"name": "setCaptainHook",
			"outputs": [],
			"stateMutability": "nonpayable",
			"type": "function"
		},
		{
			"inputs": [
				{
					"internalType": "address",
					"name": "_delegate",
					"type": "address"
				}
			],
			"name": "setDelegate",
			"outputs": [],
			"stateMutability": "nonpayable",
			"type": "function"
		},
		{
			"inputs": [
				{
					"components": [
						{
							"internalType": "uint32",
							"name": "eid",
							"type": "uint32"
						},
						{
							"internalType": "uint16",
							"name": "msgType",
							"type": "uint16"
						},
						{
							"internalType": "bytes",
							"name": "options",
							"type": "bytes"
						}
					],
					"internalType": "struct EnforcedOptionParam[]",
					"name": "_enforcedOptions",
					"type": "tuple[]"
				}
			],
			"name": "setEnforcedOptions",
			"outputs": [],
			"stateMutability": "nonpayable",
			"type": "function"
		},
		{
			"inputs": [
				{
					"internalType": "address",
					"name": "_msgInspector",
					"type": "address"
				}
			],
			"name": "setMsgInspector",
			"outputs": [],
			"stateMutability": "nonpayable",
			"type": "function"
		},
		{
			"inputs": [
				{
					"internalType": "uint32",
					"name": "_eid",
					"type": "uint32"
				},
				{
					"internalType": "bytes32",
					"name": "_peer",
					"type": "bytes32"
				}
			],
			"name": "setPeer",
			"outputs": [],
			"stateMutability": "nonpayable",
			"type": "function"
		},
		{
			"inputs": [
				{
					"internalType": "address",
					"name": "_preCrime",
					"type": "address"
				}
			],
			"name": "setPreCrime",
			"outputs": [],
			"stateMutability": "nonpayable",
			"type": "function"
		},
		{
			"inputs": [],
			"name": "sharedDecimals",
			"outputs": [
				{
					"internalType": "uint8",
					"name": "",
					"type": "uint8"
				}
			],
			"stateMutability": "pure",
			"type": "function"
		},
		{
			"inputs": [],
			"name": "symbol",
			"outputs": [
				{
					"internalType": "string",
					"name": "",
					"type": "string"
				}
			],
			"stateMutability": "view",
			"type": "function"
		},
		{
			"inputs": [],
			"name": "token",
			"outputs": [
				{
					"internalType": "address",
					"name": "",
					"type": "address"
				}
			],
			"stateMutability": "view",
			"type": "function"
		},
		{
			"inputs": [],
			"name": "totalSupply",
			"outputs": [
				{
					"internalType": "uint256",
					"name": "",
					"type": "uint256"
				}
			],
			"stateMutability": "view",
			"type": "function"
		},
		{
			"inputs": [
				{
					"internalType": "address",
					"name": "to",
					"type": "address"
				},
				{
					"internalType": "uint256",
					"name": "value",
					"type": "uint256"
				}
			],
			"name": "transfer",
			"outputs": [
				{
					"internalType": "bool",
					"name": "",
					"type": "bool"
				}
			],
			"stateMutability": "nonpayable",
			"type": "function"
		},
		{
			"inputs": [
				{
					"internalType": "address",
					"name": "from",
					"type": "address"
				},
				{
					"internalType": "address",
					"name": "to",
					"type": "address"
				},
				{
					"internalType": "uint256",
					"name": "value",
					"type": "uint256"
				}
			],
			"name": "transferFrom",
			"outputs": [
				{
					"internalType": "bool",
					"name": "",
					"type": "bool"
				}
			],
			"stateMutability": "nonpayable",
			"type": "function"
		},
		{
			"inputs": [
				{
					"internalType": "address",
					"name": "newOwner",
					"type": "address"
				}
			],
			"name": "transferOwnership",
			"outputs": [],
			"stateMutability": "nonpayable",
			"type": "function"
		},
		{
			"inputs": [
				{
					"internalType": "bytes",
					"name": "_message",
					"type": "bytes"
				}
			],
			"name": "tryDecodeMsg",
			"outputs": [],
			"stateMutability": "view",
			"type": "function"
		},
		{
			"inputs": [
				{
					"internalType": "uint256",
					"name": "amount",
					"type": "uint256"
				}
			],
			"name": "unwrap",
			"outputs": [],
			"stateMutability": "nonpayable",
			"type": "function"
		},
		{
			"inputs": [
				{
					"internalType": "uint256",
					"name": "amount",
					"type": "uint256"
				}
			],
			"name": "wrap",
			"outputs": [],
			"stateMutability": "nonpayable",
			"type": "function"
		}
	]
}